:020000041000EA
:4000000000040000000000000000000001000000F000000000000000000000000000000010B500F025FB04001448016803220A430260200080F3108810BD10B500F018FB99
:4000400004000E4801680322914301220A43026001680322914302220A430260200080F3108810BD80B5FFF7E8FF05480168490049080160FFF7D4FF01BD000040C0264015
:4000800000C026400000000000000000000000000000000000000000000000000000000000000000000000000000000000000000000000000000000000000000000000001A
:4000C0000000000000000000000000000000000000000000000000000000000000000000000000000000000000000000000000000000000000000000000000000000000000
:4001000000800008CB010010F8B505000C001700069E009A2100280000F03AF83200D2B22100280000F006F83A002100280000F03EF8F1BDF1B50098614BC018C3091020DB
:400140005843604C0419042910D20D001F262768BC46EF003000B840674687431000C0B20640E80086403E43266010E00800051F1F266768BC46EF003000B840674687435E
:400180001000C0B20640E80086403E436660F1BD00B5002A03D101238B40436002E001238B40836000BD01228A40C260704770B40B009D000F26446C3100A9408C43164068
:4001C000AE402643466470BC7047F8B5002403203D490860FFF746FF3C4DAA27FF052F603B4E002000900123062202213000FFF78BFF3848286000F00DF8374800F030FA23
:4002000002213000FFF7CFFF200080B238432860641CF2E7F8B586B02C4C304820603048019030482060019800F048FA05002E482060002D01D0012D02D1F42000F045FA9D
:40024000286805900599280000F02FFA0390FE20400028180068000C02902448206003980299884202D0F32000F02FFA8220400028180068083000901D4820600099280061
:4002800000F00AFA002802D1F22000F01EFA802676053768F019049016482060009B049A3900300000F0ECF9002804D112482060F12000F00AFAAA20C005206007B0F0BD34
:4002C0000000CFBF0000304000E100E00C002240000431400060065520BCBE00F0800066007C0017F1800066F2800066F3800066F4800066F5800066F68000660000000085
:4003000000000000000000000000000000000000000000000000000000000000000000000000000000000000000000000000000000000000000000000000000000000000BD
:40034000000000000000000000000000000000000000000000000000000000000000000000000000000000000000000000000000000000000000000000000000000000007D
:40038000000000000000000000000000000000000000000000000000000000000000000000000000000000000000000000000000000000000000000000000000000000003D
:4003C00000000000000000000000000000000000000000000000000000000000000000000000000000000000000000000000000000000000000000000000000000000000FD
:400400004859389960FE79FB7C7BF56EDE05E5AF6E7C810AC2216B90D9D0FE7CC645A5E8AFCB151C93AE68E879303FE459DA05C6531DC98DFE35A878D6A2C7C0EE03EB5748
:40044000B28D9037350D30865BA4C43B4EB952B6E88820A955730F9BFF07D8A969BCEC753D9F5B7B4E6D0BF9B069F9204033E87442C75C115EA3A1A54F48CF9F24C4FBD0D2
:4004800032C15EE305574F6B4C93AC3412421C5FCF6F959F38C5F1B51BD1FEBDCB0A537E9C60CE375597DF75053F37EAC1E679031631F5EBE7A1D533819E2830EE13416564
:4004C00001E836056C28BC2F8FA3920D060714F17F4F6872B89C83B451BC497F90BB99570B532A25BFB619C4247DD128F63FD57BA3143BE87CDB4127A2EE5CE7FE9D418548
:40050000130D2F885715F763C9EB5B87C9C638579FFA8CE35D06B8E69EC00902A161F4BE7C11FD374F7C5CFC7F03B25D0BE1FAA526FE0A02CCDB997EA0917C195B1D191CE3
:40054000AA25B458D8F3780B919ADC50925B1C3C5702F8358EDB2D652DDD02E392C8D62D3C8B996D0FAB326523437DF87F60DC96F0892B50244B8C706A63CC905B92C40660
:40058000000000000000000000000000000000000000000000000000000000000000000000000000000000000000000000000000000000000000000000000000000000003B
:4005C00000000000000000000000000000000000000000000000000000000000000000000000000000000000000000000000000000000000000000000000000000000000FB
:4006000000000000000000000000000000000000000000000000000000000000000000000000000000000000000000000000000000000000000000000000000000000000BA
:400640000000000000000000000000000000000000000000000000000000000000000000801C800803D0401C801EFCD100BF7047EFF3108072B6704780F310887047000033
:40068000F1B50F0016001D00124804682B00320039000098A047F2BD70B506000C000E48056821003000A84770BD70B506000C000A48056821003000A84770BD38B504000D
:4006C000074805682000A84732BD00B505490860FEE700004020001744200017482000174C20001700F0010800000000000000000000000000000000000000000000000003
:4007000000000000000000000000000000000000000000000000000000000000000000000000000000000000000000000000000000000000000000000000000000000000B9
:400740000000000000000000000000000000000000000000000000000000000000000000000000000000000000000000000000000000000000000000000000000000000079
:400780000000000000000000000000000000000000000000000000000000000000000000000000000000000000000000000000000000000000000000000000000000000039
:4007C00000000000000000000000000000000000000000000000000000000000000000000000000000000000000000000000000000000000000000000000000000000000F9
:0200000490303A
:02000000AE3917
:0200000490501A
:0C00000000000000000000000001AE390C
:00000001FF