:020000041000EA
:4000000000040000000000000000000001000000F000000000000000000000000000000010B500F00DF904001448016803220A430260200080F3108810BD10B500F000F9CD
:4000400004000E4801680322914301220A43026001680322914302220A430260200080F3108810BD80B5FFF7E8FF05480168490049080160FFF7D4FF01BD000040C0264015
:4000800000C026400000000000000000000000000000000000000000000000000000000000000000000000000000000000000000000000000000000000000000000000001A
:4000C0000000000000000000000000000000000000000000000000000000000000000000000000000000000000000000000000000000000000000000000000000000000000
:4001000000800008CB010010F8B505000C001700069E009A2100280000F03AF83200D2B22100280000F006F83A002100280000F03EF8F1BDF1B50098354BC018C309102007
:400140005843344C0419042910D20D001F262768BC46EF003000B840674687431000C0B20640E80086403E43266010E00800051F1F266768BC46EF003000B840674687438A
:400180001000C0B20640E80086403E436660F1BD00B5002A03D101238B40436002E001238B40836000BD01228A40C260704770B40B009D000F26446C3100A9408C43164068
:4001C000AE402643466470BC7047F8B50024032011490860FFF746FF104DAA27FF052F600F4E002000900123062202213000FFF78BFF0C4828600C4800F01AF802213000B8
:40020000FFF7D1FF200080B238432860641CF2E70000CFBF0000304000E100E00C002240000431400060065520BCBE0000000000801C800803D0401C801EFCD100BF70471F
:40024000EFF3108072B6704780F31088704700000000000000000000000000000000000000000000000000000000000000000000000000000000000000000000000000006B
:40028000000000000000000000000000000000000000000000000000000000000000000000000000000000000000000000000000000000000000000000000000000000003E
:4002C00000000000000000000000000000000000000000000000000000000000000000000000000000000000000000000000000000000000000000000000000000000000FE
:4003000000000000000000000000000000000000000000000000000000000000000000000000000000000000000000000000000000000000000000000000000000000000BD
:40034000000000000000000000000000000000000000000000000000000000000000000000000000000000000000000000000000000000000000000000000000000000007D
:40038000000000000000000000000000000000000000000000000000000000000000000000000000000000000000000000000000000000000000000000000000000000003D
:4003C00000000000000000000000000000000000000000000000000000000000000000000000000000000000000000000000000000000000000000000000000000000000FD
:40040000C725BB471AAC25822B61B6E83D2D03600A9918C34BC13E0487307CCB19B6E26CB867CEFBC9CE65BCEA143444720B5F9B177D261AEDAE1F42BB033F9F23A354016F
:400440000EC2FABAD39A684874B5F4EDA4C03A7D7B2F9BB85439B416FDF51387D1254970A8975BD3895EB4235BFE8468F38BD95A81EA7B02853E9F99F66CFED94330980AD5
:400480006E673627D638350FAB9C181E69E3C61AD2204A82CA46376853E33E03C04AD26103B220CA0196256E76DEACB9EE8C009319FC153ECCAD22D5CA24DE45814782919B
:4004C000DDB64E6A915FD5E5AB064A76E1AEC8C8BB6C10B620D6A751B91199651F04ED15A216A82A12077BC4688D501D4DD54EB61191F7BCA05A91F3683D180E6D5260AADE
:40050000DDC82CC11834F589AB14B96DC03C2EF23A89B65C0EA27CA55D911A554BF6190CB4125724AA09C744DC61E13DB5E3AECA3151158F0D1A11ABC54C2FB0907AD4258F
:40054000944D28EDE9022DFF9CE6324D1F100C7D73BD9D01EBCA2583719C9737F88B2CD6B15677BFC636443832B5E407627BA6F1336A7E1C2F0769BDF6B9B19193DFF94AF6
:400580006E46E19236F45031FB4C08CF965621E5F649DFAC31A8BC3D84DC20C8797CA5CF1E9FB4F1327D4ADF17382532A27571A8089AC0520CBDE19FE495C6CF42A0DD9B97
:4005C0008740FFF3C8D546B96FA25C6071A9234C222DC5425844F6F0CFD45986A4D0CCE70ACC296D29473CC7E7B7A64400E538A0ECDDAC688AE193D9070D95BBBCAFCDD289
:4006000000000000000000000000000000000000000000000000000000000000000000000000000000000000000000000000000000000000000000000000000000000000BA
:40064000000000000000000000000000000000000000000000000000000000000000000000000000000000000000000000000000000000000000000000000000000000007A
:40068000000000000000000000000000000000000000000000000000000000000000000000000000000000000000000000000000000000000000000000000000000000003A
:4006C00000000000000000000000000000000000000000000000000000000000000000000000000000000000000000000000000000000000000000000000000000000000FA
:4007000000000000000000000000000000000000000000000000000000000000000000000000000000000000000000000000000000000000000000000000000000000000B9
:400740000000000000000000000000000000000000000000000000000000000000000000000000000000000000000000000000000000000000000000000000000000000079
:400780000000000000000000000000000000000000000000000000000000000000000000000000000000000000000000000000000000000000000000000000000000000039
:4007C00000000000000000000000000000000000000000000000000000000000000000000000000000000000000000000000000000000000000000000000000000000000F9
:0200000490303A
:02000000887BFB
:0200000490501A
:0C00000000000000000000000001887BF0
:00000001FF