:020000041000EA
:1000000000000228D11E001001220010FD20001067
:1000100000000000000000000000000000000000E0
:100020000000000000000000000000006921001036
:10003000000000000000000005220010092200104E
:10004000CD1B0010F11B0010151C0010391C0010F6
:100050005D1C0010811C0010A51C0010C91C0010A4
:100060000D2200101122001015220010192200107C
:100070001D2200102122001025220010292200102C
:1000800000B5012027490A6852080240002A01D021
:10009000022001E00968084000BD27480168080007
:1000A000C007C00F704700B5C21E022A01D301204D
:1000B00002E0C01E0860002000BD1CB5FF24694698
:1000C000FFF7F1FFC0B2002802D02000C0B207E065
:1000D0003C480099890041580800C007C00FC0B2D1
:1000E00016BD00B5002801D0032801D3012002E08D
:1000F000401E0860002000BD1CB5FF246946FFF7C4
:10010000F0FFC0B2002802D02000C0B208E03148A1
:10011000009909014018C1680800C007C00FC0B2AB
:1001200016BD0000241526402B48006881080800F1
:10013000C007C00F704700004015264038B50400C6
:100140002000C0B208280DD3244D182224492800CD
:1001500000F0B0FB0020E875224823490860002029
:1001600000F008FC21482100C9B2890041580A006A
:10017000D205D20F002A05D0E4B2A10040580007F2
:10018000000F00E0FF2032BD38B505002800C0B2E6
:1001900008280ED3114C18221149200000F08AFBC8
:1001A0000020E075892000010F490860002000F060
:1001B000E1FB0E48EDB2A900405800098007800F0E
:1001C00032BD0000401626400C480068000AC0B24C
:1001D0007047000000192640100027404C090028F5
:1001E000941F00105B080000B4090028401226404C
:1001F00003480068000AC0B2704700001010204099
:100200000810204038B50400072C0ED3124D1822D8
:100210001249280000F04EFB0020E875CE20400077
:100220000F490860002000F0A5FB0A48A1004058D3
:100230004007400F010009B2042907D10448A1007A
:100240004058C106C90E80204000084300B232BDAC
:1002500000012640001226404C090028E01F001033
:10026000B40900281E4909688A03920B0260090E2E
:100270000A00D207D20FC271174909680A00D204D6
:10028000D20C82800A00120CD2B20281090CC9B2CF
:100290004181264909680F220B00134003730B09A3
:1002A0001A4042730A0AD204D20CC281090F89078C
:1002B000890F0174094909680A0A5207520F8271AD
:1002C0000A00120CD205D20D4282890F0A00D20711
:1002D000D20F027570470000341526403C152640A9
:1002E000301526401CB50C006946FFF7DCFE010006
:1002F000C9B2002901D0C0B217E00D4800998900A9
:1003000040584106490E21601F21020A0A406260DE
:10031000020C1140A160010F8907890F6173C00EA3
:100320000100C907C90F2173002016BD38152640EA
:10033000001626401CB50C006946FFF7D2FE0100EE
:10034000C9B2002901D0C0B233E01A4800990901AE
:100350004158CAB222601F220B0A134063600B0C83
:100360001A40A260090F8907890F217300990901BA
:1003700041184A68D10F61730721130F0B40002BFE
:1003800001D0012300E00023A3731202120A2261AC
:10039000009A120180188068C20F2275020E1300A5
:1003A000DB07DB0F63750200A275000C0140E175ED
:1003B000002016BD0019264080B50100864818228D
:1003C00000F0FCFA012085490870002002BD000001
:1003D00000B583490968C90F002907D07F4909780A
:1003E000002907D100210160032000BD0021016028
:1003F0000320FAE77849096801600020F5E700006A
:1004000010B50400FFF73CFE002803D10020206057
:1004100003200BE071480078002804D06E48806803
:100420002060002002E000202060032010BD00B505
:100430006A490978002904D06749496801600020A9
:1004400002E000210160032000BD000000B5654905
:100450000968C90F002907D060490978002907D128
:1004600000210160032000BD002101600320FAE7A4
:100470005949C96801600020F5E7000000B55A49F4
:100480000968C90F002907D054490978002907D104
:1004900000210160032000BD002101600320FAE774
:1004A0004D49096901600020F5E7000010B504001E
:1004B000FFF73AFE002803D10020206003200BE064
:1004C00046480078002804D0434840692060002056
:1004D00002E000202060032010BD000010B50C00D9
:1004E000C0B2FFF78FFE00280CD0401E0ED0401E79
:1004F00010D087214900401A10D0401E12D0C01ED3
:1005000014D017E02000FFF763FF16E02000FFF78C
:100510008EFF12E02000FFF773FF0EE02000FFF7D0
:1005200095FF0AE02000FFF7C1FF06E02000FFF77B
:10053000A5FF02E000202060032010BD80B501006F
:100540000020FFF7CBFF02BD80B50322D2B282426A
:1005500003D200200860012003E0401CC0B2FFF776
:10056000BDFF02BD30B587B004006846FFF7E6FF67
:100570000100C9B2002903D000212160C0B228E0E7
:1005800001A8FFF76FFE01AD287C022803D1009877
:10059000206000201DE07B480068C00F002808D0C4
:1005A000FFF77BFDC0B2002807D1002020600320A8
:1005B0000FE00098206000200BE00098019948436C
:1005C000A98800F022FAE979491C00F01EFA20609F
:1005D000002007B030BD000034090028CC090028F5
:1005E00018152640081526400C152640F0B58BB08E
:1005F00004000D0069462000C0B2FFF7A5FF01000E
:10060000C9B2002903D000212960C0B2B7E02000A0
:10061000C0B2022848D307A92000C0B2401CFFF78F
:1006200061FEC0B200280DD0824E182282493000EF
:1006300000F040F90020F0758048814908600020F2
:1006400000F098F97F482100C9B2890040180838A5
:100650000068C00F002807D007A8407B022807D1F8
:100660000098286000208AE000982860002086E03A
:10067000E4B2641C2000FFF720FD0100C9B200298C
:1006800002D0C0B2FF2803D100202860032076E00A
:10069000009807994843089900F0B7F9099900F0C4
:1006A000B4F9286000206AE001A92000C0B2401C13
:1006B000FFF740FEC0B200280DD05E4E18225E4902
:1006C000300000F0F7F80020F0755F485C490860E2
:1006D000002000F04FF95D482100C9B209014058DF
:1006E000C00F002807D001AE307B022807D1009848
:1006F0002860002043E00098286000203FE0E4B23A
:10070000641C2000FFF7F8FC0100C9B2002902D0E8
:10071000C0B2FF2803D10020286003202FE0707BA7
:10072000012821D100980021019E00273F06320AAE
:1007300017433606059A002392197B4100F0BCF955
:1007400006000F0002980021039A002300F0B4F97C
:1007500002000B003000390000F0C7F9000E0A0259
:100760001043090E286009E0009801994843029956
:1007700000F04BF9039900F048F9286000200BB015
:10078000F0BD00003015264010B50323421E0400C2
:10079000E4B2002C03D10800FFF7E4FE0CE01400E3
:1007A000DBB2E4B2A34204D31000C0B2FFF71EFFD5
:1007B00002E0C0B2FFF792FE10BD38B504000D0094
:1007C0002000C0B2FFF7BAFC0100C9B2FF2904D172
:1007D0002800FFF7FDFDC0B21BE06946C0B2FFF77D
:1007E000D3FF0100C9B2002903D000212960C0B2A3
:1007F0000FE02000C0B2FFF7C7FCC0B2002805D050
:1008000002280BD006D303280CD00FE000982860F4
:10081000002032BD009840082860F9E70098800861
:100820002860F5E70098C0082860F1E700202860FC
:100830000320EEE74C090028E01F001063090000C8
:10084000B4090028001626407F0900000019264040
:100850001CB5040069460020FFF7AFFF0100C9B2D4
:10086000002903D000212160C0B208E0FFF7ACFCF2
:1008700001000098491C00F0C8F82060002016BD57
:100880001CB504006846FFF7E3FF0100C9B2002968
:1008900001D0C0B208E0FFF7ABFC01000098491C92
:1008A00000F0B3F82060002016BD80B5FFF7E8FF28
:1008B00002BD000071B58B0709D0521E28D30B78FA
:1008C0000370401C1B421FD0491C8B07F5D1121F1F
:1008D0003ED3274CE50140C9331BB3432B4209D11A
:1008E000830716D140C0121F32D340C9331BB34314
:1008F0002B42F7D0121DFF231E4205D00670401C6C
:10090000360A521E1E42F9D11100002200F02CF9C5
:1009100071BDDB4216D0401E4670360A4680360C4A
:100920000671001D121F06D340C9331BB3432B426F
:10093000F2D0401CDEE7401C0AE040C9331BB34341
:100940002B42D7D10680360C4680001D121FF4D2F0
:10095000121D0BD00B780370521E07D0401C491C8F
:100960001B42F7D10370401C521EFBD171BD000029
:100970000101010100B501BEFEE780B50C4A0D4939
:100980000B68934210D00A6002684A6042688A602D
:100990008268CA60C2680A6102694A6142698A6102
:1009A0008269CA61C069086200F001F901BD0000F6
:1009B000F3F2F1F0100900287047704770B4103A54
:1009C00003D378C9103A78C0FBD2530701D318C9B2
:1009D00018C001D508C908C0D20704D30B8803800A
:1009E000891C801C002A01D50B78037070BC7047ED
:1009F0008B0701D18307E1D0124205D00B78491C47
:100A00000370401C521EF9D170470022030A8B422A
:100A10000BD203098B4219D243088B422ED2411AC2
:100A200000D20146524110467047FF2209023FD0D2
:100A300012068B4205D3121209028B4201D3121205
:100A4000090203098B4219D300E0090AC3098B424A
:100A500001D3CB01C01A524183098B4201D38B01D0
:100A6000C01A524143098B4201D34B01C01A524173
:100A700003098B4201D30B01C01A5241C3088B42B8
:100A800001D3CB00C01A524183088B4201D38B00A3
:100A9000C01A524143088B4201D34B00C01A524145
:100AA000884200D3401A5241CFD2014610467047C7
:100AB00008B500F07FF808BD30B4434351435D18DA
:100AC000010C0C00130C5C432D1980B2434392B20D
:100AD00051430024C918644124040B04090C09196A
:100AE0005043C018694130BC704712422DD0994222
:100AF00031D970B500251B4209D00C00002112E04D
:100B00001100FFF782FF0A000021002370BD094297
:100B1000F6D00024012649186441944200D3A41A57
:100B20007641F8D33100012601E0764109D2001860
:100B300064416D41A41A9D41F7D2A4185D41B619D4
:100B4000F5D3300022002B0070BD1B42CFD108B579
:100B500000F032F808BD01D19042CAD202000B0069
:100B60000021002070470000094205D0830707D00C
:100B70000270401C491EF9D1704700000022FFE7B7
:100B80001300103906D330B41400150010393CC0DE
:100B9000FCD230BC490700D30CC000D504C089008A
:100BA00002D30280801C002900D50270704700B576
:100BB000FEE700007047000070470000F8B584B001
:100BC00000F0EEFABF49012708680322904338433A
:100BD0000860BD480A6802400A60BC490A680323ED
:100BE0009A433A430A600A6802400A60B8490A68B0
:100BF00003239A433A430A600A6802400A60B549EF
:100C00000A6803239A433A430A600A68104008605E
:100C1000B14801680F22914339430160AF48016830
:100C2000072291430160AE480168072291430422E4
:100C30000A4302600168F0229143C0220A43026025
:100C40000168C02292000A4302600168C0221201BA
:100C50000A4302600168A34A0A4080214901114306
:100C60000160A1480168802212060A4302609F4881
:100C7000016839400029FAD0016849083940002943
:100C8000FAD0E048016808220A430260DE480068A2
:100C9000800838400028F9D0DC480168DC4A0A4066
:100CA0000260DC480168DA4A0A40802149001143A9
:100CB0000160D9480168D64A0A40802149001143A1
:100CC0000160D6480168D24A0A400260D4480168EF
:100CD0000722914302220A430260D2480168490078
:100CE00049080160D0480168890A890229220A431B
:100CF00002600168CD4A0A40026001688022520405
:100D00000A4302600168CA4A0A4002600168802200
:100D100012060A430260C7480168C74A0A40802198
:100D2000C900114301600168FF229143AF220A43C9
:100D30000260802189020268C04B13400B430360AC
:100D4000802292040368BE4C1C4014430460BD4BD7
:100D500004681C400460046880252D062543056056
:100D6000B94804680725AC43022525430560B74808
:100D70000468240E2406B64D254305600468B54D6D
:100D80002540802464052C430460046880252D06DA
:100D900025430560B0480468640064080460AF4CF3
:100DA0008025AD002668A448304028432060206894
:100DB000FF26B04362260643266026689F483040DF
:100DC0008026F6020643266026689D48304002438E
:100DD00022602068184020602068802212060243AA
:100DE00022609F4802680724A2430224144304603F
:100DF0009C4802687F24A2432824144304600268AC
:100E00008D4C14402C43046002688C4C14402143E8
:100E1000016001688A4A0A400260934902680A40F8
:100E2000026002681A4002600268802424061443AB
:100E300004608E4802680724A2430224144304601D
:100E4000B14802687F24A2431E2414430460026850
:100E5000794C1440254305600268784C1440C02248
:100E60009202224302600268754C144004600268DA
:100E70001140016001680B40036001688022120686
:100E80000A430260A148006838400028FAD0A04810
:100E9000006838400028FAD09E4800683840002892
:100EA000FAD09D48006838400028FAD09B48016875
:100EB000072291430160684699491022FFF77EFDA1
:100EC000002638E0C4132040FFFCFFFF0013204041
:100ED00080132040A013204000002440001526402D
:100EE00044152640FF8FFFFF1C1526402415264081
:100EF0003220002100F064F9300040B28000281850
:100F0000016830229143220052B212013023134073
:100F10000B430360641E200040B26946320052B2A7
:100F20005200895C00B209B28842E1DA3220002125
:100F300000F046F9761C300040B208283FD230005D
:100F400040B204280DD1EFF31084002080F3108804
:100F5000FA239B0000220121102000F0B3FA84F351
:100F60001088704D300040B28000281801680F22B0
:100F700091436A4633005BB25B00D2185278120785
:100F8000120F0A430260300040B280002818016846
:100F900030220A430260300040B280002818016805
:100FA000802252000A430260300040B280002818BC
:100FB0000168802212060A4302600224ABE75A4805
:100FC000134A016811400160F821C94303680B40CE
:100FD0000360564803681A400260026811400160CD
:100FE00000F0CBF852480168802212060A430260E2
:100FF00001680F43076000F0B5F800F039F805B05C
:10100000F0BD00BF00002740100027401010204016
:10101000FF00FFFF081020400C102040200320405C
:10102000041226400419264008192640FFFFF8FF45
:10103000FFFFFFEF00192640FFE0FFFFFFFFE0FF8B
:10104000FFFFFFF9FFFFFFCF0812264014192640CB
:10105000F1D24D00FFFFFF8F1819264010192640CE
:101060000C12264000162640FFFFFFF71012264004
:1010700038B586B068462F491822FFF79FFC6846AE
:10108000FFF79AF9C0B200280ED02B4C18222B493A
:101090002000FFF70FFC0020E075FF20A830284952
:1010A00008600020FFF766FC264D2800FFF7FDFBD7
:1010B000C0B200280ED0204C182220492000FFF793
:1010C000F9FB0020E075FF20AA301D4908600020D0
:1010D000FFF750FC1C4C2868206020681B49401812
:1010E0001B49FFF792FC1B4908601B4D20681B49F8
:1010F0004018FA218900FFF788FC28602868C0039F
:101100001749086007B030BD041626400C19264068
:101110001C1926404016264044162640141226402C
:10112000B82100104012264008002040080420404A
:1011300008152640A02100104C0900283C1F001073
:10114000B4090028B8090028BC0900283F420F0054
:1011500040420F00C4090028C0090028E70300002E
:10116000C809002880B500F0CBF913490A680323A9
:1011700013430B6000F0C8F901BD80B500F0C0F961
:101180000D490A6803239A43012313430B600A683D
:1011900003239A43022313430B6000F0B5F901BD0A
:1011A00080B5FFF7EAFF054801684900490801607A
:1011B000FFF7D8FF01BD000040C0264000C0264018
:1011C000F8B504000D00334F387800280ED02D4EAE
:1011D00018222D493000FFF76DFB0020F075CF205D
:1011E00040002A4908600020FFF7C4FB20002900C6
:1011F00001223A7080225204002399420AD301D876
:10120000904207D3244A04000D0024A003C800190B
:10121000694102E00200002000211D4B00241C60F7
:10122000204D2A60214A146005221A601A68D203F0
:10123000FCD51C600029DDD10028DBD13C70F1BD5C
:1012400070B50500184E306800280ED10D4C1822DC
:101250000D492000FFF72EFB0020E075E52040003F
:101260000A4908600020FFF785FB2C003068104910
:10127000FFF7CBFB002122000023FFF71DFCFFF747
:101280009FFF70BD4C0900282C200010B4090028D5
:1012900010E000E0CD090028FFFFFF00010000FF83
:1012A000FFFFFFFF14E000E0B809002818E000E0AD
:1012B00040420F00F3B595B0170000210D00080063
:1012C000684601801C00A4B2A408200080B28021DE
:1012D0008900884203D30125684604807E4C1C9E09
:1012E00000F021F9002800D099E06846877016A820
:1012F000077801A81021FFF741FC019802218843DB
:101300003100C9B249000222114001430191019804
:1013100004218843FFB2B900042211400143019126
:1013200001980821884369468978C900082211403C
:1013300001430191019810218843019001982021D7
:1013400088430190019840218843019001988021B1
:1013500001430191614F0198384015A909780902AC
:10136000F82252010A400243019201985C4901406F
:10137000019101980002000AA82149050143019149
:1013800011A81021FFF7FAFB1198800A8002A4B27D
:10139000A105890D0143119152480068002806D12A
:1013A00001980740D02040013843019007E0002811
:1013B00005D0019807408020400138430190002269
:1013C00011A901A800F023F9EDB2002D03D0684661
:1013D000008800F09DF809A81021FFF7CFFB0998BD
:1013E00002218843F6B271000222114001430991A3
:1013F00009983D490140099109983C4901408020E4
:1014000040020843099009980002000A8821490512
:1014100001430991002109A800F0A2F850E000F072
:101420008DF80128FBD000F083F80128F7D10DA832
:101430001021FFF7A3FB0DA80078FD2101400DA8A6
:1014400001700DA800780C2101430DA801700D98C2
:101450000002000AB021490501430D9100210DA8A9
:1014600000F07EF800F064F8002829D1EDB2002DDC
:1014700003D06846008800F04BF805A81021FFF75C
:101480007DFB059802218843F6B2710002221140CB
:1014900001430591059814490140059105981349A8
:1014A0000140802040020843059005980002000A90
:1014B0008821490501430591002105A800F050F855
:1014C00017B0F0BD1CB5012400949BB2D2B2C9B2D2
:1014D000C0B2FFF7EFFE13BDFF010000FFE0FFFF0A
:1014E000FF1FFFFF30070017FF00FFFFFFFF00FF98
:1014F000801C800803D0401C801EFCD100BF7047B8
:10150000EFF3108072B6704780F3108870470000C8
:101510000D490A680D4B134080B200050C4A024089
:101520001A430A60704708480068C00FC0B270478D
:10153000084801680800C007C00F704705480068E8
:10154000C00FC0B27047000028102640FFFF0FC038
:101550000000F03F2C102640C069C00FC0B2704799
:10156000F8B502000E00002A01D105204EE00F2040
:1015700069490B681B0A0340002B01D1002007E0DA
:101580000968090A08400E2801D1012000E0022064
:10159000624940010F18624C624D28001100102270
:1015A000FFF726FA286801218843286010212800C7
:1015B000FFF703FA5C4B2A000121380000F0CFF856
:1015C000002804D0012021E0641E002C15D0380032
:1015D000FFF7C2FF0028F7D1002E08D01021280005
:1015E000FFF7EAF9300029001022FFF701FA00F0B6
:1015F00079F8012803D1032008E0022006E000F07A
:1016000071F8002801D1002000E00420F2BDFEB5F1
:1016100003001600002B03D001910198002801D18E
:1016200005205DE00F203C490A68120A0240002AAA
:1016300001D1002007E00968090A08400E2801D1FD
:10164000012000E002203549400108180090374C85
:10165000344D280019001022FFF7CAF9344F380022
:1016600001991022FFF7C4F92868012188432860F6
:10167000386801218843386010212800FFF79DF960
:1016800010213800FFF799F93B002A00012100984A
:1016900000F065F8002804D0012021E0641E002C31
:1016A00015D00098FFF758FF0028F7D1002E08D07A
:1016B00010212800FFF780F9300029001022FFF7E1
:1016C00097F900F00FF8012803D1032008E0022069
:1016D00006E000F007F8002801D1002000E0042017
:1016E000FEBD000010B50F4C10212000FFF764F97B
:1016F0002068000F0007A0210906884201D10020C0
:1017000009E02068000F0007F0210906884201D196
:10171000012000E0022010BD000020400000224017
:10172000FFFFFF0F80090028B0090028FFFFFF001E
:10173000A0090028174A1268120C120489B211433A
:1017400081607047C16070470161704700B50068F3
:10175000C00F002801D1104800E0002000BDF8B5FE
:1017600007000C0015001E003800FFF7EFFF0028EF
:101770000DD129003800FFF7E5FF31003800FFF7F1
:10178000E3FF21003800FFF7D5FF002000E002480A
:10179000F2BD0000FC21001001008A0000B501002C
:1017A00009B2002905D40121C006C00E81408F482E
:1017B000016000BDF0B5020012B2002A18D4182250
:1017C0008B4B040024B2A408A4001C59FF2506007A
:1017D000F6001640B540AC438901C9B20500ED00E2
:1017E0002A409140214300B28008800019501CE03B
:1017F0000F22804C182503001BB21340083B9B08A6
:101800009B00060036B23240083A92089200A25875
:10181000FF260700FF002F40BE40B2438901C9B236
:10182000C0000540A9401143E150F0BD80B500F073
:1018300012F87148714902680A40026070480268F3
:101840000A4002606F4802681140016000F092F89F
:1018500000F0A9F801BDFEB568466B490CC90CC083
:1018600008390838002630000AE06A460300DBB277
:10187000DB00D2185268521C114000290ED1401CC6
:101880000100C9B200290AD107216A460300DBB270
:10189000DB00D2580A40002AE7D0FEE7FEE75B4CA7
:1018A000072021680140002900D0FEE7584F396821
:1018B000491C0840002800D0FEE7350024E06846B7
:1018C0002900C9B2C9004018416868462A00D2B24E
:1018D000D200805800F044F815E030000028EED027
:1018E0002168491E68462A00D2B2D200805800F012
:1018F00037F868462900C9B2C900401841683868FD
:10190000401C00F02DF86D1C2800C0B2002826D124
:1019100068462900C9B2C9004058002814D0206880
:1019200069462A00D2B2D200895888420AD3684652
:101930002900C9B2C900401840682168884201D313
:101940000120CBE73000C9E768462900C9B2C900C9
:101950004018406821688842BFD30120BEE7F7BD28
:1019600080B50022002302E00CC00838083088420D
:10197000FAD301BD30B5274880082749274A0023FC
:1019800008E01C00E4B2A40014591D00EDB2AD0043
:101990004C515B1C1C000500E4B2EDB2AC42F0D32C
:1019A0001F48016030BD10B5102311211A480022D4
:1019B0001C00E4B2A4001459DBB29B00C4500B001D
:1019C000DBB29B00D258C9B28900425001210020ED
:1019D000FFF7F0FE00210120FFF7ECFE0020FFF7EB
:1019E000DDFE0120FFF7DAFE10BD000000E100E09F
:1019F00000E400E01CED00E000132040FFFFF7FFD3
:101A000080132040A0132040D4210010341F001068
:101A1000381F001080000000000A0028000000109D
:101A200008ED00E070B55F4BC018C00900015E4BC7
:101A3000C31804290CD21F251C68CE002800B04012
:101A40008443D2B21540C800854025431D600CE098
:101A5000FC311F255C68CE002800B0408443D2B220
:101A60001540C800854025435D6070BD00B5002A63
:101A700003D101228A40426002E001228A40826052
:101A800000BD30B403008C000F25596C2800A04025
:101A900081431540A5400D435D6430BC704730B4B0
:101AA000030001259C6C28008840844315408D402C
:101AB00025439D6430BC704730B403000125DC6CC5
:101AC00028008840844315408D402543DD6430BCA8
:101AD000704730B403004C0010340325D96C280043
:101AE000A04081431540A5400D43DD6430BC7047E4
:101AF000426901228A4042614069704730B4030064
:101B000001259C6928008840844315408D40254369
:101B10009D6130BC704730B403004C000325196C44
:101B20002800A04081431540A5400D431D6430BCF2
:101B30007047F8B504000025002C30D01600002EA8
:101B40002DD00F00326839002000FFF78FFF327A66
:101B500039002000FFF766FF726939002000FFF7A7
:101B60009EFFB26939002000FFF7A6FFF269390035
:101B70002000FFF7AEFF726839002000FFF781FFF9
:101B8000F26839002000FFF7C6FF39002000FFF798
:101B9000AFFF326939002000FFF7B0FF00E0034DCE
:101BA0002800F2BD0000CFBF0000304001005A0005
:101BB00000B5010009B2002905D40121C006C00EFC
:101BC00081404A48016000BD00B5FEE780B5484845
:101BD000006848480068C10F002905D046498005C3
:101BE000800D8000085880470020FFF7E1FF01BD0D
:101BF00080B54248006842480068C10F002905D0FE
:101C00003D498005800D8000085880470120FFF77E
:101C1000CFFF01BD80B53B4800683B480068C10F5D
:101C2000002905D034498005800D80000858804780
:101C30000220FFF7BDFF01BD80B53448006834487D
:101C40000068C10F002905D02B498005800D800058
:101C5000085880470320FFF7ABFF01BD80B52D4832
:101C600000682D480068C10F002905D02249800571
:101C7000800D8000085880470420FFF799FF01BDC0
:101C800080B52648006826480068C10F002905D0A5
:101C900019498005800D8000085880470520FFF70E
:101CA00087FF01BD80B51F4800681F480068C10F4D
:101CB000002905D010498005800D80000858804714
:101CC0000620FFF775FF01BD80B518480068184869
:101CD0000068C10F002905D007498005800D8000EC
:101CE000085880470720FFF763FF01BD80E200E04E
:101CF000DC2100100011204000000028E02100102D
:101D000004112040E421001008112040E8210010B7
:101D10000C112040EC21001010112040F021001087
:101D200014112040F421001018112040F821001057
:101D30001C11204001228A40C2607047F8B5FEF7AE
:101D40003DFF62B63C4D2E00083600242000307066
:101D50002A0006213948FFF7ECFE200030702A00E7
:101D600007213648FFF7E5FE200030702A000321E6
:101D70003348FFF7DEFE200030702A00042130488F
:101D8000FFF7D7FE200030702E4F2A0000213800C8
:101D9000FFF7CFFE200030702A0001213800FFF746
:101DA000C8FE200030702A0002213800FFF7C1FE73
:101DB000200030702A0003213800FFF7BAFE20000F
:101DC00030702A0000212048FFF7B3FE34702A004B
:101DD00001211D48FFF7ADFE1C48FFF731FA174CF3
:101DE00006212000FFF7A6FF07212000FFF7A2FF32
:101DF000134C03212000FFF79DFF04212000FFF773
:101E000099FF00213800FFF795FF01213800FFF707
:101E100091FF02213800FFF78DFF03213800FFF703
:101E200089FF094C00212000FFF784FF01212000D9
:101E3000FFF780FFD0E70000DC0800288003314076
:101E400000043140800431400005314050C300009F
:101E5000F1B401684118436858080A18009880686E
:101E6000DB0701D54B46C01891422DD00D78491C97
:101E7000032403262E4002D10E78F61C491C2B09A0
:101E80000F2B07D10B780F33491C03E00F78491C47
:101E90000770401C761EF9D1002BE5D00E78491C46
:101EA000AD082C40032C01D10C78491C24023419B4
:101EB000654244190025AE1E9E42D5D02678641C8A
:101EC0000670401C6D1CF6E700980C30F2BC7047A1
:101ED00072B6104810490860BFF34F8F0120C0044C
:101EE0000E490A6802430A600D490A6802430A6003
:101EF0000C490A6802430A60002000210D4A03C20F
:101F00006A45FCD1084FB847084FB847084FB84753
:101F1000FEE700000000001008ED00E00013204084
:101F200080132040A01320402D180010B520001071
:101F30008521001000FF0128FFFF0128433A5C546F
:101F400032475F53616D706C655F4472697665728C
:101F50005F4C6962726172795F382E312E305C7429
:101F60007669696268386D5C7372635C73797374E7
:101F7000656D5C7265765F625C73797374656D5FC5
:101F8000747669696268386D5F636D30706C757303
:101F90002E630000433A5C5432475F53616D706CAE
:101FA000655F4472697665725F4C696272617279CD
:101FB0005F382E312E305C747669696268386D5CEA
:101FC0007372635C647269766572735C7379736350
:101FD0006C6B5C63795F737973636C6B2E68000064
:101FE000433A5C5432475F53616D706C655F447275
:101FF000697665725F4C6962726172795F382E3101
:102000002E305C747669696268386D5C7372635CEB
:10201000647269766572735C737973636C6B5C630D
:10202000795F737973636C6B2E630000433A5C5481
:1020300032475F53616D706C655F4472697665729B
:102040005F4C6962726172795F382E312E305C6349
:102050006F6D6D6F6E5C7372635C647269766572CE
:10206000735C7379737469636B5C63795F737973A1
:102070007469636B2E63000070B40123002413E0C5
:102080000168001D194202D04D466918491E0C60B6
:10209000091D121F042AFAD20D00960701D50C80E3
:1020A000AD1C1A4000D02C700268001D002AE7D138
:1020B00070BC704710B5074979441831064C7C4410
:1020C000163404E0081D0A68891888470100A142F7
:1020D000F8D110BD08000000240000009DFFFFFFA4
:1020E000C0000000100900280000000065FDFFFF8F
:1020F0003A01000050000000000000280420714652
:10210000084202D0EFF3098001E0EFF3088000B548
:102110000149884700BD00007B09001000F00EF85F
:10212000002801D0FFF7C6FF00BF00BF002000BF9E
:1021300000BFFFF703FE00F003F800000020704727
:1021400080B500F001F801BD0746384600F002F8FE
:10215000FBE7000080B500BF00BF024A1100182055
:10216000ABBEFBE72600020004207146084201D006
:10217000EFF30980EFF3088000B50149884700BDFF
:10218000C92100100548014603B4684680F3098858
:1021900000BF00BF00BF00BFFFF7C0FFA5EDF5FE09
:1021A00000127A00000000000024F400008000000B
:1021B0000080000000800000000300010004010313
:1021C00002020002000300058169891E0978C9B274
:1021D0000160704700000028FFFF01280000000098
:1021E00000000000000000000000000000000000EF
:1021F00000000000000000000000000000000000DF
:10220000FEE70000FEE70000FEE70000FEE700003A
:10221000FEE70000FEE70000FEE70000FEE700002A
:10222000FEE70000FEE70000FEE7F002FFC91B002A
:102230001004F1FF04F1FF04F1FF04F1FF04F1FFCA
:1022400004F1FF04F1FF04F14704120001F31D063D
:10225000000100000000000000000000000000007D
:10226000000000000000000000000000000000006E
:10227000000000000000000000000000000000005E
:10228000000000000000000000000000000000004E
:10229000000000000000000000000000000000003E
:1022A000000000000000000000000000000000002E
:1022B000000000000000000000000000000000001E
:1022C000000000000000000000000000000000000E
:1022D00000000000000000000000000000000000FE
:1022E00000000000000000000000000000000000EE
:1022F00000000000000000000000000000000000DE
:1023000000000000000000000000000000000000CD
:1023100000000000000000000000000000000000BD
:1023200000000000000000000000000000000000AD
:10233000000000000000000000000000000000009D
:10234000000000000000000000000000000000008D
:10235000000000000000000000000000000000007D
:10236000000000000000000000000000000000006D
:10237000000000000000000000000000000000005D
:10238000000000000000000000000000000000004D
:10239000000000000000000000000000000000003D
:1023A000000000000000000000000000000000002D
:0E23B00000000000000000000000000000001F
:040000051000218541
:00000001FF
