:020000041000EA
:4000000000040000000000000000000001000000F000000000000000000000000000000010B500F025FB04001448016803220A430260200080F3108810BD10B500F018FB99
:4000400004000E4801680322914301220A43026001680322914302220A430260200080F3108810BD80B5FFF7E8FF05480168490049080160FFF7D4FF01BD000040C0264015
:4000800000C026400000000000000000000000000000000000000000000000000000000000000000000000000000000000000000000000000000000000000000000000001A
:4000C0000000000000000000000000000000000000000000000000000000000000000000000000000000000000000000000000000000000000000000000000000000000000
:4001000000800028CB010010F8B505000C001700069E009A2100280000F03AF83200D2B22100280000F006F83A002100280000F03EF8F1BDF1B50098614BC018C3091020BB
:400140005843604C0419042910D20D001F262768BC46EF003000B840674687431000C0B20640E80086403E43266010E00800051F1F266768BC46EF003000B840674687435E
:400180001000C0B20640E80086403E436660F1BD00B5002A03D101238B40436002E001238B40836000BD01228A40C260704770B40B009D000F26446C3100A9408C43164068
:4001C000AE402643466470BC7047F8B5002403203D490860FFF746FF3C4DAA27FF052F603B4E002000900123062203213000FFF78BFF3848286000F00DF8374800F030FA22
:4002000003213000FFF7CFFF200080B238432860641CF2E7F8B586B02C4C304820603048019030482060019800F048FA05002E482060002D01D0012D02D1F42000F045FA9C
:40024000286805900599280000F02FFA0390FE20400028180068000C02902448206003980299884202D0F32000F02FFA8220400028180068083000901D4820600099280061
:4002800000F00AFA002802D1F22000F01EFA802676053768F019049016482060009B049A3900300000F0ECF9002804D112482060F12000F00AFAAA20C005206007B0F0BD34
:4002C0000000CFBF0000304000E100E00C002240800E31400060065520BCBE00F0800066007C0017F1800066F2800066F3800066F4800066F5800066F680006600000000FB
:4003000000000000000000000000000000000000000000000000000000000000000000000000000000000000000000000000000000000000000000000000000000000000BD
:40034000000000000000000000000000000000000000000000000000000000000000000000000000000000000000000000000000000000000000000000000000000000007D
:40038000000000000000000000000000000000000000000000000000000000000000000000000000000000000000000000000000000000000000000000000000000000003D
:4003C00000000000000000000000000000000000000000000000000000000000000000000000000000000000000000000000000000000000000000000000000000000000FD
:400400008A90EF574B58374695C0151D48AEA340F72D4775C368F6FDE6431498E094C65B5AD624E6FEC2B92D8BFD7629F984DE9E1FB1807ACE8A482B83C770DFB7B0FBD50F
:40044000E1E88EC7A25EC1F9F36B988C995821AA782CC2AA271099253305A34043E005BB491B4A3E4E8D02A80F5DD9C6FF20F29EA363C56D62BD984A42ACA3EE0A9FFDA238
:40048000DA84106A5B9A5AF3CAABCDAE0FBE859A57AFADE1E63B5DB60B71E6A8C32D9EBE1CDAF195721500D38CF456749E74EB72ADB565EE253DA0CDC73F5CEB24718EBCE9
:4004C00066450D5035B503309C1C24363721601819744882FEA59F3336A3AB29E1360A632D73B39012ABB2E6F4C64C10DE2B2FC283141488B3EC8C4CB9FB461A818CE55DA3
:400500001255C636061DF47B95620C7E0148384A256317B7574FE69B917706FAF520D1DD7D7B850E3AF2992DA2C5711DB2B6B918F8E23B5A22C5286D5115D4DF4CD31279D9
:400540007EE276217B3B7821251F1EBBDBFF5E11A81F18E316358FF20780027D15133FB3E8ED7D0B9396E1B167997A1DACB0D88BA8321F858922AA9B0B2D5E7950294DE68A
:4005800005C6A95CEEDBBB5E1FBFA8C8F926E9D5FF762E04AA825242FC4C6FE85322F804B3D715FF6E030A0F526B6E46B90BF7FB8DBAFF95229A4F9D11F3A4AD56B0C301F6
:4005C000DD67A90083776699EFC20A100345926EDAD8E83D8BD0C54E35B252EC33A56B9A43231433C9C2FB13C7F3EEBD65C18A0EEBBA2A70E932556D575500345B61EA2F81
:4006000000000000000000000000000000000000000000000000000000000000000000000000000000000000000000000000000000000000000000000000000000000000BA
:400640000000000000000000000000000000000000000000000000000000000000000000801C800803D0401C801EFCD100BF7047EFF3108072B6704780F310887047000033
:40068000F1B50F0016001D00124804682B00320039000098A047F2BD70B506000C000E48056821003000A84770BD70B506000C000A48056821003000A84770BD38B504000D
:4006C000074805682000A84732BD00B505490860FEE700004020001744200017482000174C20001700F0010800000000000000000000000000000000000000000000000003
:4007000000000000000000000000000000000000000000000000000000000000000000000000000000000000000000000000000000000000000000000000000000000000B9
:400740000000000000000000000000000000000000000000000000000000000000000000000000000000000000000000000000000000000000000000000000000000000079
:400780000000000000000000000000000000000000000000000000000000000000000000000000000000000000000000000000000000000000000000000000000000000039
:4007C00000000000000000000000000000000000000000000000000000000000000000000000000000000000000000000000000000000000000000000000000000000000F9
:0200000490303A
:02000000EE7799
:0200000490501A
:0C00000000000000000000000001EE778E
:00000001FF