:020000041008E2
:1000000000000628D1BA081085C00810F5BE0810F7
:1000100089C008108DC0081091C0081000000000B1
:1000200000000000000000000000000089BF081070
:1000300095C008100000000099C008109DC008106D
:1000400055B908107BB90810A1B90810C7B9081034
:10005000EDB9081013BA081039BA08105FBA0810C1
:10006000A1C00810A5C00810A9C00810ADC0081094
:10007000B1C00810B5C00810B9C00810BDC0081044
:1000800010B504000421200004F0D2F8206810BD4F
:1000900080B50160042104F0DDF801BD08230B8068
:1000A0000823138090F84630002B05D00B880833C6
:1000B0000B8013880833138090F84730002B02D050
:1000C0000B8808330B8090F84800002802D0108875
:1000D00008301080704710B401000020002307E0B2
:1000E0001A0092B201EB4202D2881018401C5B1C2D
:1000F0001A004C7992B2A4B2A242F1D380B210BCE1
:10010000704710B401000020002307E01A0092B2EB
:1001100001EB4202D28C1018401C5B1C1A000C79B7
:1001200092B2A4B2A242F1D380B210BC704738B5EB
:10013000040014F5BB60C4F85001002500E06D1CFC
:1001400028006179C0B2884208D22900C9B22000D3
:1001500004F02FFC0028F2D0162000E0002032BD71
:100160002DE9FF4105002800FFF7B5FF05EB8000F2
:1001700010F5BB60C5F89403002600E0761C300043
:100180002979C0B288423CD23100C9B2242041430F
:1001900005EB010010F55D773000C0B205EB4000C3
:1001A000C08C401C388201A8009002AB3A0031009C
:1001B000C9B2280005F07AFB01983860D7F80080B2
:1001C000002411E0032102E0002CFBD00021404676
:1001D000FFF75EFF0D4918F10400FFF759FFB5F86E
:1001E000D60518EB0008641C388A8442ECD3002240
:1001F0003100C9B2280005F086FB0028BED01620C9
:1002000000E0002004B0BDE8F08100000000AAFF7B
:1002100010B5012410F52570FFF732FF0100C1F37E
:100220004000002800D06400C1F38000002800D006
:10023000641CC1F3C000002800D0641CC1F300108E
:10024000002800D0641CC1F34010002800D0641CBA
:10025000C1F38010002800D0641CC1F3C010002836
:1002600000D0641CC1F30020002800D0641CC1F33E
:100270004020002800D0641CC1F38020002800D05A
:10028000641CC1F3C020002800D0641CC1F30030FE
:10029000002800D0641CC1F34030002800D0641C4A
:1002A000C1F38030002800D0641CC1F3C0300028A6
:1002B00000D0641C2000C0B210BD10B504005FF077
:1002C000FF3120682C30FFF7E3FE94F8300102285C
:1002D00006DB5FF0FF31206810F5C460FFF7D8FE41
:1002E00094F83001032806DB5FF0FF31206800F24C
:1002F0002460FFF7CDFE10BD10B5040094F8F500A2
:10030000002818D15FF0FF3120682430FFF7C0FECD
:1003100094F83001022804DB206810F58060FFF7B4
:10032000AFFE94F8300103281FDB206800F2044080
:10033000FFF7A6FE19E020682430FFF7A1FE94F82D
:100340003001022806DB5FF0FF31206810F5806085
:10035000FFF79EFE94F83001032806DB5FF0FF31C3
:10036000206800F20440FFF793FE10BD10B50400B2
:1003700000212068FFF78CFE00212068001DFFF798
:1003800087FE002120681430FFF782FE00212068DC
:100390001830FFF77DFE002120681C30FFF778FE43
:1003A000002120682030FFF773FE5FF0FF312068E6
:1003B0002C30FFF76DFE002120683430FFF768FE17
:1003C0005FF0FF3120683C30FFF762FE43F6FF71BB
:1003D00020684030FFF75CFE40F2FF712068443037
:1003E000FFF756FE4FF4205120684830FFF750FECB
:1003F000002120685C30FFF74BFE00212068603050
:10040000FFF746FE002120688030FFF741FE002103
:1004100020688430FFF73CFE00212068B830FFF7E9
:1004200037FE00212068BC30FFF732FE0021206833
:10043000C030FFF72DFE00212068C430FFF728FEF2
:1004400000212068C830FFF723FE00212068CC304F
:10045000FFF71EFE00212068D030FFF719FE0021B3
:100460002068D430FFF714FE00212068D830FFF751
:100470000FFE00212068DC30FFF70AFE0021206813
:10048000E030FFF705FE00212068E430FFF700FEB2
:1004900000212068F830FFF7FBFD5FF0FF31206896
:1004A00010F51870FFF7F4FD5FF0FF31206810F5CC
:1004B0001970FFF7EDFD5FF0FF31206810F51A703D
:1004C000FFF7E6FD0021206810F51C70FFF7E0FD46
:1004D0000021206810F51D70FFF7DAFD002120686B
:1004E00010F51E70FFF7D4FD0021206810F51F7075
:1004F000FFF7CEFD00212068F830FFF7C9FD00218D
:10050000206800F2BC40FFF7C3FD0021206810F511
:100510009860FFF7BDFD0021206800F2C440FFF79E
:10052000B7FD0021206810F59960FFF7B1FD0021AB
:10053000206800F2D440FFF7ABFD0021206800F2F4
:10054000CC40FFF7A5FD0021206810F59A60FFF769
:100550009FFD10BD02000020002901D10020F2E023
:1005600011F0030F0BD0D2F89C30002B07D111F003
:100570000303184389088900002900F0E4808B06F2
:100580000DD5D2F8A430002B09D111F02003184367
:10059000CB4313F020035940002900F0D48011F020
:1005A0001C0F0BD0D2F8A030002B07D111F01C0388
:1005B000184331F01C01002900F0C58011F0C00F74
:1005C0000BD0D2F8A830002B07D111F0C00318438C
:1005D00031F0C001002900F0B6808B010AD5D2F8B5
:1005E0009830002B06D150F0007031F000710029D6
:1005F00000F0A980CB050AD5D2F8AC30002B06D18B
:1006000050F4807031F48071002900F09C808B05DB
:100610000AD5D2F8B030002B06D150F4007031F476
:100620000071002900F08F804B050AD5D2F8B43054
:10063000002B06D150F4806031F48061002900F075
:1006400082800B0509D5D2F8B830002B05D150F4C3
:10065000006031F40061002975D011F0C07F0AD02C
:10066000D2F8BC30002B06D111F0C073184331F022
:10067000C071002967D011F4E04F0AD0D2F8C03021
:10068000002B06D111F4E043184331F4E041002976
:1006900059D011F4C03F0AD0D2F8C430002B06D193
:1006A00011F4C033184331F4C03100294BD011F498
:1006B000C02F0AD0D2F8C830002B06D111F4C023C5
:1006C000184331F4C02100293DD011F4C01F0AD0D5
:1006D000D2F8CC30002B06D111F4C013184331F4FA
:1006E000C01100292FD011F4C00F0AD0D2F8D03099
:1006F000002B06D111F4C003184331F4C0010029C6
:1007000021D04B0109D5D2F8D430002B05D150F0BF
:10071000806031F08061002915D00B0109D5D2F835
:10072000D830002B05D150F0006031F00061002975
:1007300009D0CB0007D5D2F8DC20002A03D150F035
:10074000805031F08051704710B504000020216DB9
:10075000206810F59960FFF79BFC0020616D206810
:1007600000F2D440FFF794FC10BD38B5040025001A
:1007700020685430FFF784FC0100012094F9272100
:1007800010FA02F294F80101002807D095F88E00C3
:10079000002803D1012085F88E0005E095F88E0031
:1007A000824201D285F88E2095F88E0060F30F21E9
:1007B00094F80101002807D095F88F00002803D194
:1007C000012085F88F0005E095F88F00824201D264
:1007D00085F88F2095F88F0060F30701206854306A
:1007E000FFF756FC31BD70B5040026000025290036
:1007F0002068FFF74DFC96F87C00002801D055F0EA
:10080000100596F87F00002801D055F4001596F8E1
:100810008C00002801D055F4800596F88D00002842
:1008200005D094F80401002801D055F4000596F88D
:100830009000002801D055F0007555F020052900E2
:100840002068FFF725FC70BD80B50300002293F8F7
:100850007A10002905D0022907D004D3032906D035
:1008600007E0012106E0042104E0082102E0102154
:1008700000E0042161F3040293F84910C90701D58F
:1008800052F0400293F84910890701D552F08002D6
:1008900093F8791061F3092293F8781061F38A22B2
:1008A00093F88710C90701D552F4006293F86810D5
:1008B00061F3174293F87B10C90701D552F080729B
:1008C00093F87B10890701D552F0007293F87B10E2
:1008D000490701D552F0806293F84610002901D0F3
:1008E00052F0804293F84710002901D052F0005294
:1008F00093F84810002901D052F08052110000688E
:100900001030FFF7C5FB01BD80B50300002293F84E
:100910007E10022907D093F87E10052903D093F8A2
:100920007E10062901D152F4806293F87E100329CB
:100930000BD093F87E10042907D093F87E10052978
:1009400003D093F87E10062901D152F4006293F887
:100950007E10032907D093F87E10042903D093F862
:100960007E10052901D152F0006293F8861000290B
:1009700001D052F0004293F87E10002905D093F880
:100980007E10032901D052F0010293F88010002953
:1009900001D052F0020293F88110002901D052F0E8
:1009A000007293F88B10002901D052F0804293F826
:1009B0008A10002901D052F0005293F889100029C2
:1009C00001D052F0080293F88810002901D052F4A7
:1009D000807293F88210002901D052F4007293F8CB
:1009E000831061F38F3293F88410002901D052F400
:1009F000803293F87D1061F3944293F84A1061F3CA
:100A0000565293F88510002901D052F4000293F851
:100A10008710890701D552F0807211000068001D0F
:100A2000FFF736FB01BD70B504000D0020790228E8
:100A30001DDB012618E0206800F2A440FFF728FB28
:100A400011E0002105EB060090F8680060F3070153
:100A50003000012802D00228EDD004E0206810F513
:100A60009460FFF715FB761C2079B042E9D270BD87
:100A7000002801D1002013E0B0F8E010072905D0CC
:100A8000B0F8E01040F20712914207D1B0F8E2004E
:100A900040F20711884201DB012000E00020C0B2D3
:100AA0007047002801D1002020E0B0F8E0100729AD
:100AB00008D1B0F8E210B1F5837F03D190F8E410CB
:100AC00002290FDAB0F8E010072905D1B0F8E210DA
:100AD00040F20712914205DAB0F8E00040F2071147
:100AE000884201DB012000E00020C0B2704738B529
:100AF0000400002C01D11620B9E12068FFF788FB23
:100B000084F8E5002068FC30FFF7BAFA0100090C10
:100B10000905090DA4F8E010A4F8E200000F84F81C
:100B2000E400206810F52070FFF7AAFA050015F020
:100B3000010084F8E6002800C0F3001084F8EA0001
:100B400094F8EA00002801D1012000E0002084F898
:100B5000EB002800C0F3801084F8EC002800400A65
:100B600010F0010084F8EF002800800A10F01F0048
:100B700084F8F0002800C00B10F01F0084F8F1008A
:100B80002800400D10F0010084F8F3002800800DCB
:100B900010F0010084F8F4002800C00D10F00100EE
:100BA00084F8F5002000FFF763FF002805D0280037
:100BB000000E10F0010084F8F6002800400E10F03E
:100BC000070084F8F8002D0F84F8F950206810F51C
:100BD0002170FFF755FA01008904890CA4F8FA1076
:100BE0000100090C11F00F0184F8FC100100090D3F
:100BF00011F0010184F8FD100100490D11F001010F
:100C000084F8FE100100890D11F00F0184F8FF1027
:100C10000100890E11F00F0184F80011800F10F00F
:100C2000010084F80101206810F52270FFF728FA0E
:100C3000000E10F03F0084F8F700206810F52470D3
:100C4000FFF71EFA10F00F0184F802110100C1F342
:100C5000031184F803110100090A11F0010184F85D
:100C600004110100490A11F0010184F80511010085
:100C7000890A11F0030184F806110100090B11F033
:100C8000070184F807110100C90B11F0030184F872
:100C900008110100490C11F0030184F80911010049
:100CA000C90C11F0010184F80A110100090D84F842
:100CB0000B110100090F11F0010184F80C11400F14
:100CC00084F80D01206810F52570FFF7D9F90500AB
:100CD0002800000C10F00F0084F80E012800000D11
:100CE00010F0010084F80F012800400D10F0010001
:100CF00084F810012800800D10F0010084F8110123
:100D00002800C00D10F0010084F81A012800000E20
:100D100010F0010084F828012000FFF7A9FE002848
:100D200011D02800C00E10F0010084F82A01AD0E89
:100D300015F0010584F82951012084F82B010120C8
:100D400084F82C010BE0002084F82A01002084F8AC
:100D50002901002084F82B01002084F82C01206850
:100D600010F52670FFF78CF910F00F0184F81211BE
:100D70000100C1F3031184F813110100090A11F0F5
:100D80000F0184F814110100090B11F00F0184F810
:100D900015110100090C11F00F0184F81611010062
:100DA000090D11F00F0184F817110100090E11F05F
:100DB0000F0184F81811000F84F81901206810F54C
:100DC0002770FFF75DF90100090E84F82311010077
:100DD000090C84F824110100090A84F8251184F80B
:100DE0002601206810F52870FFF74AF910F00F016E
:100DF00084F81B110100C1F3031184F81C110100D8
:100E0000090A11F00F0184F81D110100090B11F0FE
:100E10000F0184F81E110100090C11F00F0184F874
:100E20001F110100090D11F00F0184F820110100BC
:100E3000090E11F00F0184F82111000F84F822012E
:100E4000206810F52970FFF71BF90100090C11F05B
:100E50000F0184F827110100090D11F00F0184F82A
:100E60002D11000E10F00F0084F82E01002032BD6D
:100E7000F8B504000D000020002C01D0002D01D198
:100E800016208FE0207810F0030F01D0162089E0A3
:100E9000266816F1FC00FFF7F3F8C0F30B400728B3
:100EA00007D040F20711884203D0082801D016204D
:100EB00078E02079002802D06079002801D101274C
:100EC00000E000272068FFF7A3F901002279C9B2EA
:100ED000914200D2207101006279C9B2914200D2E0
:100EE000607116F52570FFF7CBF8C0F3C05194F888
:100EF0004600002804D0002902D1002084F84600D2
:100F0000002000E0401C0100227989B292B2914297
:100F100009D2010089B204EB4101C98C40F2E932E7
:100F20009142EFDB01273800C0B2002812D1002027
:100F300000E0401C0100627989B292B2914209D26C
:100F4000010089B204EB4101C98840F2E9329142C3
:100F5000EFDB0127FFB2002F01D0162022E06A4606
:100F60000DF102012000FFF799F82000FFF7B3F818
:100F70000600310089B2BDF80200414369602000DB
:100F8000FFF7BFF8020092B2BDF800104A43AA6012
:100F900080B210FA86F0800010F5BB602860A020B7
:100FA000E8600020F2BD2DE9F84185B005000E0093
:100FB00014000027002006210022E846404607F0E2
:100FC000ABFA0B2100220DF10808404607F0A4FA05
:100FD000002D03D0002E01D0002C01D11620C2E13B
:100FE00028003100982207F0DBFA15F19800210063
:100FF000482207F0D5FAF16C2800FFF7ABFA04009D
:101000002800FFF774FD2800FFF7B0F9002C14D179
:1010100095F8E50085F83001307900280CD095F876
:1010200030013179884207D37079002804D095F8CF
:1010300030017179884200D20124002C0DD10020AA
:1010400000E0401C3179884207DA06EB4001C98C88
:1010500040F2E9329142F4DB0124002C0CD1B06D56
:10106000002808D0F06D002805D0306E002802D08E
:10107000706E002800D10124002C0DD1002000E06A
:10108000401C7179884207DA06EB4001C98840F2BA
:10109000E9329142F4DB0124002C08D196F8460095
:1010A000002804D095F81A01002800D10124002C52
:1010B0001FD196F87800022803DA96F87900042800
:1010C00001DB012400E00024E4B2002C11D1002156
:1010D0000CE0002408E0002C05D106EB010090F89C
:1010E00068000028F5D10124E4B2491C307981421E
:1010F000F1DB002C04D196F87A00042800DB0124EF
:10110000002C08D195F8F810012296F94A00824087
:10111000914200DA0124002C0CD196F84A000028F4
:1011200004D196F8644014F0030403E096F8644098
:1011300014F00704002C07D196F87E00072801DB85
:10114000012400E00024E4B2002C07D195F88300CC
:10115000042801DB012400E00024E4B2002C07D1C4
:1011600096F87D00082801DB012400E00024E4B2A9
:10117000002C0BD195F8F300002807D1D6F8940085
:10118000002801D1012400E00024E4B2002C0BD19E
:1011900095F82801002807D196F89000012801D180
:1011A000012400E00024E4B295F8300102282CDB91
:1011B00095F8FE00002828D095F80E0195F800114A
:1011C000884200D30127012395F90E1113FA01F18A
:1011D00095F83001814200D2012795F9122113FAC6
:1011E00002F295F83001022804DB95F9130113FA95
:1011F00000F0821895F83001032803DB95F91401FB
:1012000083409A18914200D2012796F87E00032865
:101210000BD096F87E00042807D096F87E000528AB
:1012200003D096F87E00062807D1286810F52070B4
:10123000FEF726FFC00700D50127FFB2002F01D01F
:101240005F2090E0002C01D016208CE0002085F873
:10125000B405002085F8B505002085F8B605012005
:1012600085F8B7052800FFF728F82800FFF744F8AD
:1012700005F2D65205F2D4513000FEF70FFF2800D8
:10128000FFF7E2FA2800FFF75FFA2800FEF74FFFAA
:10129000002801D0162066E02800FEF761FF002834
:1012A00001D016205FE02800FFF79DFA2800FFF725
:1012B0002BFB2800FFF759FA31002800FFF7B3FB9A
:1012C000012406E020000100C9B2280005F0FBFD62
:1012D000641C95F8F700A042F4DA002407E06A469F
:1012E00020000100C9B2280006F03CF9641C95F802
:1012F0002301401E8442F2DB002407E002AA200002
:101300000100C9B2280006F07FFA641C95F8240198
:10131000401E8442F2DB00220021280006F0B6F8CD
:10132000280002F053FC0021280002F069FE286822
:10133000001DFEF7A5FEC0F3C020002809D0002143
:10134000280002F06AF8012085F8B405002085F82D
:10135000B50540F2F711280003F062FD0F212800C7
:1013600004F017FC002006B0BDE8F08110B50400C1
:10137000002C08D0200003F0EFFC200004F037FA26
:101380002000FEF79AFF10BD10B50400002C0BD012
:10139000FF230122E16C200000F0B7FB200004F0E5
:1013A00018FA200003F0F2FC10BD38B50500002D3E
:1013B0001BD0280003F0C2FC42F2107400E0641E4F
:1013C000002C04D0280003F0D5FC0028F7D1280019
:1013D00003F0D0FC002802D0280003F0BDFC280058
:1013E00004F005FA2800FEF768FF31BD2DE9FF4142
:1013F00005000027002D01D1162083E395F8300168
:10140000461E31E0002005E00021D2B2002AF9D0CA
:101410005FF0807001432800D5F8BC209047300071
:10142000C0B2002807D1C4F3C060002803D0280050
:10143000D5F8D41088473000C0B2002807D1C4F3D3
:101440000070002803D02800D5F8D8108847300055
:10145000C0B2002807D1C4F3C030002803D0280050
:10146000D5F8DC108847761E3000C0B2102880F214
:1014700043833000C0B201281BD014D3032826D0E8
:101480001ED3052831D029D307283CD034D30928CE
:1014900047D03FD30B2852D04AD30D285DD055D327
:1014A0000F2868D060D328682430FEF7E9FD0400D7
:1014B00067E0286810F58060FEF7E2FD040060E058
:1014C000286800F20440FEF7DBFD040059E02868BC
:1014D00010F58160FEF7D4FD040052E0286800F2A8
:1014E0000C40FEF7CDFD04004BE0286810F582604B
:1014F000FEF7C6FD040044E0286800F21440FEF741
:10150000BFFD04003DE0286810F58360FEF7B8FDDC
:10151000040036E0286800F21C40FEF7B1FD04002C
:101520002FE0286810F58460FEF7AAFD040028E08B
:10153000286800F22440FEF7A3FD040021E028689B
:1015400010F58560FEF79CFD04001AE0286800F2A3
:101550002C40FEF795FD040013E0286810F5866026
:10156000FEF78EFD04000CE0286800F23440FEF720
:1015700087FD040005E0286810F58760FEF780FD10
:101580000400002C3FF46FAF012795F8F500002808
:1015900018D13000C0B2012807D002280CD0210099
:1015A00028682430FEF774FD0CE02100286810F54F
:1015B0008060FEF76DFD05E02100286800F2044020
:1015C000FEF766FD3000C0B2002813D1E00711D548
:1015D00028683430FEF754FD0200C2F3017002287F
:1015E00001D1012100E0002192B2C9B22800D5F852
:1015F00098309847002000203000C0B2002806D163
:101600002000C0F3C0002100C1F3C01203E000209D
:101610002100C1F3C0120100C9B2002903D1110099
:10162000C9B2002912D0C0B2002801D0022100E0C6
:101630000021D2B2002A01D0012000E000200143A5
:101640003200D2B22800D5F89C3098470020002103
:1016500000213100C9B2002909D12000C0F30010D7
:101660002100C1F340122100C1F3801305E02100E5
:10167000C1F340122100C1F3801352EA0001C9B244
:10168000002903D11900C9B2002919D0C0B200281D
:1016900001D0042100E00021D2B2002A01D00820AC
:1016A00000E000200143DBB2002B01D0102000E05D
:1016B000002001433200D2B22800D5F8A03098476C
:1016C0003000C0B2002803D1C4F34000002807D185
:1016D0003000C0B2002809D0C4F34000002805D073
:1016E0003100C9B22800D5F8A4209047002000207E
:1016F0003000C0B2002807D12000C0F380002200D3
:10170000920A12F0010206E02000C0F380002200DD
:10171000920A12F001020100C9B2002903D111009E
:10172000C9B2002912D0C0B2002801D0402100E087
:101730000021D2B2002A01D0802000E00020014325
:101740003200D2B22800D5F8A83098473000C0B295
:10175000002803D1C4F3C020002807D13000C0B254
:10176000002809D0C4F3C020002805D03100C9B238
:101770002800D5F8AC2090473000C0B2002831D105
:10178000C4F3404000282DD095F8B705002808D0B4
:10179000002085F8C00515F5B761280001F04FFF5E
:1017A00007E0012085F8C00515F5B761280002F0B3
:1017B00003F800208DF806000120ADF80400012098
:1017C0008DF8070000208DF8080001A9280001F01D
:1017D0009BFF15F5B7612800D5F8B0209047002091
:1017E00085F8B7053000C0B2002825D1C4F3004009
:1017F000002821D0012085F8B705002085F8B6051E
:1018000028680830FEF73CFC0100C1F3C00185F8F0
:10181000C31510F0010185F8C2150100C1F30011D4
:1018200085F8C515C0F3401085F8C40505F2C2510E
:101830002800D5F8B42090473000C0B200281AD153
:10184000C4F34020002816D095F8B605002804D02F
:101850006946280001F04DFE07E028680830FEF7D1
:101860000FFC10F001008DF800009DF8001028001A
:10187000D5F8B82090473000C0B200282FD1200002
:10188000800B10F001002200520B12F00102230025
:101890001B0B13F0010352EA0001C9B2002903D166
:1018A0001900C9B200291AD0C0B2002802D04FF4E2
:1018B000805100E00021D2B2002A02D04FF4005043
:1018C00000E000200143DBB2002B02D04FF4804047
:1018D00000E0002001432800D5F8C02090473000E8
:1018E000C0B2002837D12000000D10F00100210007
:1018F000490D11F001010200D2B2002A03D10A0001
:10190000D2B2002A27D0C0B2002802D04FF400483B
:1019100001E05FF00008C9B2002902D05FF4803016
:1019200000E0002050EA080815F5B961280001F030
:1019300004FB002808D00020A5F8C8050020C5F841
:10194000CC050020C5F8D00515F5B9624146280040
:10195000D5F8C43098473000C0B2002837D12000F5
:10196000000E10F001002100490E11F001010200EB
:10197000D2B2002A03D10A00D2B2002A27D0C0B2C4
:10198000002802D05FF4003801E05FF00008C9B21F
:10199000002902D05FF4802000E0002050EA08080F
:1019A00015F5B961280001F010FB002808D00020CF
:1019B000A5F8C8050020C5F8CC050020C5F8D0055D
:1019C00015F5B96241462800D5F8C830984730006F
:1019D000C0B2002837D12000800C10F00100210097
:1019E000C90C11F001010200D2B2002A03D10A0091
:1019F000D2B2002A27D0C0B2002802D05FF400285B
:101A000001E05FF00008C9B2002902D05FF4801045
:101A100000E0002050EA080815F5B961280001F03F
:101A2000B0FA002808D00020A5F8C8050020C5F8A5
:101A3000CC050020C5F8D00515F5B962414628004F
:101A4000D5F8CC3098473000C0B2002837D12000FC
:101A5000800D10F001002100C90D11F001010200FC
:101A6000D2B2002A03D10A00D2B2002A27D0C0B2D3
:101A7000002802D05FF4001801E05FF00008C9B24E
:101A8000002902D05FF4800000E0002050EA08083E
:101A900015F5B961280001F0BCFA002808D0002033
:101AA000A5F8C8050020C5F8CC050020C5F8D0056C
:101AB00015F5B96241462800D5F8D0309847300076
:101AC000C0B200287FF4ABAC2000800E10F0010003
:101AD0002200520F12F001020100C9B2002904D104
:101AE0001100C9B200293FF49AACC0B200283FF4FB
:101AF0008BAC5FF4000188E4FFB2002F01D000201E
:101B000000E07E2004B0BDE8F081F8B504000D00CF
:101B10001E00002C01D11620AAE1300094F83011EB
:101B2000C0B2884205D33000C0B2FF2801D01620D1
:101B30009EE11000C0B2022801DB162098E13000BF
:101B4000C0B2002803D03000C0B2FF2802D17FF01D
:101B5000604001E040F2791035EA0000002801D031
:101B6000162085E10020002D00F08181D2B2002AEC
:101B700000F0C48029002000FEF7ECFC002801D012
:101B8000162075E13000C0B2002803D03000C0B28A
:101B9000FF2878D10021A80101D551F00101A80644
:101BA00001D551F00201680601D551F00401A807E2
:101BB00001D551F00801680701D551F0100128073F
:101BC00001D551F02001280501D551F400716805B7
:101BD00001D551F48031A80501D551F40031280216
:101BE00001D551F08061E80101D551F00051E806BE
:101BF00001D551F04001E80701D551F080012806D8
:101C000001D551F48061E80501D551F40061680403
:101C100001D551F48051A80401D551F40051E804D4
:101C200001D551F48041E80001D551F40041280369
:101C300001D551F48021E80201D551F40021280496
:101C400001D551F48011E80301D551F40011A80227
:101C500001D551F48001680201D551F40001A803B7
:101C600001D551F08071680301D551F00071680110
:101C700001D551F00061280101D551F08051206853
:101C80002830FEF705FA3000C0B2002800F0EF80DF
:101C90000027A80601D557F00207680601D557F0BE
:101CA0000407280701D557F02007E80601D557F0AB
:101CB0004007E80701D557F08007E80501D557F43C
:101CC00000673000C0B2012803D03000C0B2FF2846
:101CD00005D13900206810F5C060FEF7D9F9300051
:101CE000C0B2022803D0F6B2FF2E40F0C080390007
:101CF000206800F20460FEF7CBF9B8E03000C0B213
:101D0000002803D03000C0B2FF2878D10021A801FC
:101D100001D551F00101A80601D551F00201680674
:101D200001D551F00401A80701D551F00801680759
:101D300001D551F01001280701D551F020012805E7
:101D400001D551F40071680501D551F48031A80521
:101D500001D551F40031280201D551F08061E8012C
:101D600001D551F00051E80601D551F04001E807D6
:101D700001D551F08001280601D551F48061E805B4
:101D800001D551F40061680401D551F48051A804D3
:101D900001D551F40051E80401D551F48041E80027
:101DA00001D551F40041280301D551F48021E80206
:101DB00001D551F40021280401D551F48011E80324
:101DC00001D551F40011A80201D551F48001680237
:101DD00001D551F40001A80301D551F080716803C9
:101DE00001D551F00071680101D551F00061280161
:101DF00001D551F0805120682C30FEF749F93000B0
:101E0000C0B2002833D00027A80601D557F002073A
:101E1000680601D557F00407280701D557F02007B9
:101E2000E80601D557F04007E80701D557F08007CD
:101E3000E80501D557F400673000C0B2012803D08F
:101E40003000C0B2FF2805D13900206810F5C46009
:101E5000FEF71EF93000C0B2022802D0F6B2FF2E03
:101E600005D13900206800F22460FEF711F9002046
:101E7000F2BD70B50B00140000250021002801D030
:101E8000002C01D11620FEE01A0090F83061D2B289
:101E9000B24201D31620F6E01A00D2B2002A40F076
:101EA000B58000683030FEF7EBF8C043002800F042
:101EB000E880C10701D555F00075C0F34001002945
:101EC00001D055F02005C0F38001002901D055F064
:101ED0004005C0F3C001002901D055F00205C0F350
:101EE0000011002901D055F00405C0F3401100296C
:101EF00001D055F00805C0F34021002901D055F468
:101F00000065C0F30041002901D055F48065C0F39D
:101F10004041002901D055F40075C0F380610029CB
:101F200001D055F40005C0F34071002901D055F0EF
:101F30008075C0F38011002901D055F01005C0F361
:101F4000C011002901D055F00105C0F380210029FE
:101F500001D055F08005C0F3C021002901D055F40F
:101F60008075C0F30031002901D055F48045C0F3DD
:101F70004031002901D055F40055C0F380310029CB
:101F800001D055F48055C0F3C031002901D055F07F
:101F90008055C0F38041002901D055F40025C0F3DD
:101FA000C041002901D055F48015C0F3005100292B
:101FB00001D055F40045C0F34051002901D055F43B
:101FC0008035C0F38051002901D055F40015C0F3CD
:101FD000C051002901D055F48005C0F300610029EB
:101FE00001D055F40035C0F34061002901D055F40B
:101FF0008025C0F3C061002901D055F08065C0F391
:10200000007000283DD055F000653AE0DBB2012BAE
:1020100002D0022B08D00EE0006810F5C860FEF771
:102020002FF80100C94306E0006800F24460FEF7A3
:1020300027F80100C943002923D0C1F3400000283C
:1020400001D055F02005C1F38000002801D055F0E3
:102050004005C1F34010002801D055F00805C1F338
:102060008010002801D055F01005C1F3C0100028E1
:1020700001D055F00105C1F3C020002801D055F46E
:1020800080752560002070BD70B504000D0016003D
:10209000002C01D116201BE094F82B01002809D157
:1020A0002800C0B2002803D13000C0B2002801D0FF
:1020B0005F200DE020685C30FDF7E2FF010065F372
:1020C000174166F3070120685C30FDF7E1FF00204F
:1020D00070BD38B50D001400002803D0002D01D0CC
:1020E000002C01D1162011E090F82B11002904D109
:1020F000002028700020207007E000685C30FDF7A9
:10210000BFFF0100090C29702070002032BD38B5D6
:1021100004000D00002C01D116201EE02068001DD7
:10212000FDF7AEFFEDB2002D03D0022D0BD005D38D
:102130000DE04008400030F4806008E050F00100FD
:1021400030F4806003E04008400050F480600100FB
:102150002068001DFDF79CFF002032BD10B50C006B
:10216000002801D0002C01D1162013E00068001DCA
:10217000FDF786FF0100C1F38020002802D0022075
:10218000207006E0C80702D50120207001E0002081
:102190002070002010BD38B504000D00002C14D0B4
:1021A0002800C0B2022810DA2068001DFDF768FF81
:1021B000EDB2002D02D050F0080001E030F0080030
:1021C00001002068001DFDF763FF31BD10B50C0054
:1021D000002801D0002C01D1162007E00068001D66
:1021E000FDF74EFFC0F3C0002070002010BD7CB58D
:1021F00004000D00002C01D1162027E0280080B239
:10220000B0F5804F01DB162020E069462000FFF783
:10221000DDFF20684830FDF733FF06009DF8000021
:10222000002803D000212000FFF7B5FF65F30D065D
:10223000310020684830FDF72BFF9DF80000002892
:1022400003D001212000FFF7A6FF002076BD10B5C6
:102250000C00002801D0002C01D1162007E00068F6
:102260004830FDF70DFF8004800C2080002010BD59
:1022700038B504000D00002C14D02800C0B202288C
:1022800010DA2068001DFDF7FBFEEDB2002D02D034
:1022900050F0004001E020F0004001002068001DE7
:1022A000FDF7F6FE31BD10B50C00002801D0002C62
:1022B00001D1162006E00068001DFDF7E1FEC00F09
:1022C0002070002010BD38B504000D00002C01D195
:1022D00016201DE02800C0B2022801DB162017E0FE
:1022E00094F8FE00002801D1162011E0206810307B
:1022F000FDF7C6FEEDB2002D02D050F4006001E003
:1023000030F40060010020681030FDF7C1FE0020AD
:1023100032BD10B50C00002801D0002C01D11620D0
:1023200008E000681030FDF7ABFEC00A10F00100B5
:102330002070002010BD38B504000D00002C01D124
:10234000162011E02068001DFDF79AFE2900C9B291
:10235000042901DB162007E065F38F3001002068B7
:10236000001DFDF795FE002032BD10B50C000028C1
:1023700001D0002C01D1162008E00068001DFDF7F7
:102380007FFE800B10F003002070002010BD38B5D8
:1023900004000D00002C14D02800C0B2022810DA6E
:1023A0002068001DFDF76CFEEDB2002D02D050F448
:1023B000807001E030F4807001002068001DFDF79E
:1023C00067FE31BD10B50C00002801D0002C01D1F2
:1023D000162008E00068001DFDF752FE000A10F00C
:1023E00001002070002010BD38B504000D00002C45
:1023F00014D02800C0B2022810DA2068001DFDF7B2
:102400003FFEEDB2002D02D050F0807001E030F0C0
:10241000807001002068001DFDF73AFE31BD10B547
:102420000C00002801D0002C01D1162008E0006823
:10243000001DFDF725FE000E10F0010020700020A9
:1024400010BD38B504000D00002C14D02800C0B217
:10245000022810DA2068001DFDF712FEEDB2002DF3
:1024600002D050F4003001E030F400300100206868
:10247000001DFDF70DFE31BD10B50C00002801D088
:10248000002C01D1162008E00068001DFDF7F8FDC2
:10249000400C10F001002070002010BD10B500238A
:1024A000002801D1162013E00C00E4B2102C03DA4E
:1024B0001400E4B2102C01DB162009E061F30303E1
:1024C00062F31F7319000068D030FDF7E1FD0020B2
:1024D00010BD38B50D001400002803D0002D01D028
:1024E000002C01D1162009E00068D030FDF7C8FDAE
:1024F00010F00F012970000F2070002032BD38B598
:1025000004000D00002C14D02800C0B2022810DAFC
:102510002068001DFDF7B4FDEDB2002D02D050F093
:10252000005001E030F0005001002068001DFDF770
:10253000AFFD31BD10B50C00002801D0002C01D139
:10254000162008E00068001DFDF79AFD400F10F00E
:1025500001002070002010BD38B504000D00002CD3
:1025600014D02800C0B2022810DA2068001DFDF740
:1025700087FDEDB2002D02D050F0020001E030F0F6
:10258000020001002068001DFDF782FD31BD10B57D
:102590000C00002801D0002C01D1162007E00068B3
:1025A000001DFDF76DFDC0F340002070002010BD40
:1025B00038B504000D00002C14D02800C0B2022849
:1025C00010DA2068001DFDF75BFDEDB2002D02D092
:1025D00050F0806001E030F0806001002068001D54
:1025E000FDF756FD31BD10B50C00002801D0002CC0
:1025F00001D1162008E00068001DFDF741FD800EA6
:1026000010F001002070002010BD38B504000D004E
:10261000002C14D02800C0B2022810DA2068001D57
:10262000FDF72EFDEDB2002D02D050F0007001E05C
:1026300030F0007001002068001DFDF729FD31BD5C
:1026400010B50C00002801D0002C01D1162008E0A4
:102650000068001DFDF714FD400E10F00100207011
:10266000002010BD002801D0002901D1162006E06D
:1026700000200860086850F00100086000207047E2
:1026800038B504000D00002C14D02800C0B2022878
:1026900010DA2068001DFDF7F3FCEDB2002D02D02A
:1026A00050F4005001E030F4005001002068001D9B
:1026B000FDF7EEFC31BD10B50C00002801D0002C58
:1026C00001D1162008E00068001DFDF7D9FC400B81
:1026D00010F001002070002010BD10B50400002C87
:1026E00008D02068FDF7CCFC50F4006001002068A1
:1026F000FDF7CEFC10BD10B50400002C08D02068FA
:10270000FDF7BEFC50F4805001002068FDF7C0FCCE
:1027100010BD10B50C00002801D0002C01D11620EE
:1027200005E000683830FDF7ABFC2080002010BDCC
:1027300038B504000D00002C01D1162088E01000EF
:10274000C0B2082801DB162082E094F82801002896
:1027500005D11000C0B2002801D05F2078E0D2B2CD
:10276000012A15D008D3032A2CD01DD3052A45D021
:1027700036D3072A5ED04FD320683C30FDF780FC6B
:1027800065F30F00010020683C30FDF781FC5EE03E
:1027900020683C30FDF774FC65F31F4001002068A1
:1027A0003C30FDF775FC52E0206810F51870FDF71D
:1027B00067FC65F30F000100206810F51870FDF745
:1027C00067FC44E0206810F51870FDF759FC65F3CC
:1027D0001F400100206810F51870FDF759FC36E025
:1027E000206810F51970FDF74BFC65F30F00010030
:1027F000206810F51970FDF74BFC28E0206810F5F3
:102800001970FDF73DFC65F31F400100206810F5CD
:102810001970FDF73DFC1AE0206810F51A70FDF7FD
:102820002FFC65F30F000100206810F51A70FDF70A
:102830002FFC0CE0206810F51A70FDF721FC65F301
:102840001F400100206810F51A70FDF721FC0020E0
:1028500032BD10B50C00002801D0002C01D116208B
:1028600056E090F82811002905D11100C9B20029BD
:1028700001D05F204CE01100C9B2082901DB16200D
:1028800046E0D2B2012A0FD008D3032A1AD012D3BD
:10289000052A26D01ED3072A32D02AD300683C301E
:1028A000FDF7EEFB208032E000683C30FDF7E8FBEE
:1028B000000C20802BE0006810F51870FDF7E0FB9D
:1028C000208024E0006810F51870FDF7D9FB000C9B
:1028D00020801CE0006810F51970FDF7D1FB208006
:1028E00015E0006810F51970FDF7CAFB000C208098
:1028F0000DE0006810F51A70FDF7C2FB208006E0BD
:10290000006810F51A70FDF7BBFB000C208000205A
:1029100010BD38B504000D00002C10D02068001D3B
:10292000FDF7AEFBEDB2002D02D050F4000001E047
:1029300030F4000001002068001DFDF7A9FB31BD47
:1029400010B50C00002801D0002C01D1162008E0A1
:102950000068001DFDF794FBC00D10F00100207011
:10296000002010BD38B504000D00002C12D0280046
:10297000C0B202280EDA2068FDF782FBEDB2002D0E
:1029800002D050F4803001E030F480300100206843
:10299000FDF77EFB31BD10B50C00002801D0002CE6
:1029A00001D1162007E00068FDF76AFB000C10F06B
:1029B00001002070002010BD1CB5040001208DF81E
:1029C0000000002C01D1162018E069462000FFF716
:1029D000DEFD9DF80000002804D0200002F0E4F99C
:1029E000002801D1162009E02068FDF749FB01000D
:1029F00051F400312068FDF74BFB002016BD80B577
:102A00000023002801D1162009E061F3070362F3D7
:102A10000F2319000068C430FDF73AFB002002BD07
:102A200038B50D0014000021002803D0002D01D07E
:102A3000002C01D1162007E00068C430FDF720FB10
:102A40002870000A2070002032BD38B504000D0047
:102A50000020002C01D116201AE02800C0B2022864
:102A600001DB162014E094F82801002805D1280085
:102A7000C0B2012801D15F200AE02068FDF700FB09
:102A80000100EDB265F359612068FDF701FB0020FC
:102A900032BD10B50C000021002801D0002C01D15E
:102AA000162007E00068FDF7EBFA400E10F0010079
:102AB0002070002010BDF8B504000D00002C01D1DD
:102AC000162051E02800C0B2032801DB16204BE09D
:102AD00094F8E600002803D02800C0B2022807D0EE
:102AE00094F8EB00002805D02800C0B2012801D1DD
:102AF0005F2039E02068001DFDF7C2FAC0F3C02056
:102B0000002805D02800C0B2012801D15F202BE0A9
:102B10002068FDF7B5FA0600206810F50070FDF793
:102B2000AFFA0700760876002800C0B2012804D169
:102B300056F0020637F480470BE0EDB2022D04D1C7
:102B400036F0020657F4804703E036F0020637F409
:102B5000804731002068FDF79BFA3900206810F5A6
:102B60000070FDF795FA0020F2BD70B505000C006D
:102B7000002D01D0002C01D1162019E02868FDF7A6
:102B80007FFA0600286810F50070FDF779FAC0F3A7
:102B90008030002802D00220207008E0C6F34000F8
:102BA000002802D00120207001E0002020700020C9
:102BB00070BD38B504000D00002C12D02800C0B242
:102BC00002280EDA2068FDF75BFAEDB2002D02D084
:102BD00050F4801001E030F4801001002068FDF70F
:102BE00057FA31BD10B50C00002801D0002C01D1DE
:102BF000162007E00068FDF743FA000D10F0010011
:102C00002070002010BD38B504000D000020002009
:102C100000208DF8000069462000FFF7E3FF002840
:102C20000BD19DF80000002801D05F2005E02900AD
:102C30002068D430FDF72CFA002032BD10B50C000E
:102C4000002801D0002C01D1162005E00068D43006
:102C5000FDF716FA2060002010BD38B504000D0005
:102C60000020002000208DF8000069462000FFF7BA
:102C7000B9FF00280BD19DF80000002801D05F208B
:102C800005E029002068D830FDF702FA002032BDA7
:102C900010B50C00002801D0002C01D1162005E051
:102CA0000068D830FDF7ECF92060002010BD38B581
:102CB00004000D00002C01D0002D01D116202AE0C7
:102CC00094F80401002801D15F2024E0A868B0F145
:102CD000804F01D316201EE0206810F5E070FDF74C
:102CE000CFF9298861F30F000100206810F5E0702A
:102CF000FDF7CEF900206968206810F5E870FDF74F
:102D0000C7F90021A86860F31D01206810F5EA707A
:102D1000FDF7BEF9002032BD70B504000D00002C97
:102D200001D0002D01D1162034E094F804010028D0
:102D300001D15F202EE0206810F5EA70FDF7A0F9C0
:102D4000060026F04046206810F5E870FDF798F977
:102D50006860206810F5E070FDF792F9288020681F
:102D600010F5EA70FDF78CF920F04041B1420FD226
:102D700020F04040A860206810F5E870FDF780F969
:102D80006860206810F5E070FDF77AF9288000E0AF
:102D9000AE60002070BD80B5002801D116201DE076
:102DA00090F80421002A01D15F2017E07FF0404213
:102DB00052187FF000439A4201D316200EE0002201
:102DC000002902D552F00042494261F31D02110070
:102DD000006810F5EC70FDF75BF9002002BD70B5DE
:102DE00004000D00002C01D0002D01D1162027E099
:102DF00094F80401002801D15F2021E000266888B2
:102E000060F30F062000FDF74CFE002802D0287961
:102E100060F31F663100206810F5DE70FDF738F9A9
:102E20000021287860F30701A87960F30F21687901
:102E300060F31741206810F5EE70FDF729F90020C6
:102E400070BD70B505000C00002D01D0002C01D123
:102E5000162022E095F80401002801D15F201CE033
:102E6000286810F5DE70FDF70BF906006680280073
:102E7000FDF717FE002802D0360E267101E0002073
:102E80002071286810F5EE70FDF7FAF82070010047
:102E9000090AA171000C6071002070BD38B50400F2
:102EA0000D00002C01D0002D01D1162022E094F855
:102EB0000401002801D15F201CE0A868B0F5800F54
:102EC00001D3162016E00021A86860F315012068E0
:102ED000DC30FDF7DDF8002069682068E030FDF7A0
:102EE000D7F80021288860F30F012068E430FDF74F
:102EF000CFF8002032BD38B505000C00002D01D000
:102F0000002C01D1162017E095F80401002801D10A
:102F10005F2011E02868DC30FDF7B2F88002800AFB
:102F2000A0602868E030FDF7ABF860602868E43006
:102F3000FDF7A6F82080002032BD38B505000C0052
:102F4000002D01D0002C01D1162019E095F80401C4
:102F5000002801D15F2013E0286810F5F270FDF71A
:102F60008FF820F04040A060286810F5F070FDF761
:102F700087F860602868E830FDF782F8208000203C
:102F800032BD38B505000C00002D01D0002C01D158
:102F9000162019E095F80401002801D15F2013E004
:102FA000286810F5F670FDF76BF820F04040A0603F
:102FB000286810F5F470FDF763F860602868EC305D
:102FC000FDF75EF82080002032BD38B505000C000A
:102FD000002D01D0002C01D1162019E095F8040134
:102FE000002801D15F2013E0286810F5FA70FDF782
:102FF00047F820F04040A060286810F5F870FDF711
:103000003FF860602868F030FDF73AF82080002033
:1030100032BD38B505000C00002D01D0002C01D1C7
:10302000162019E095F80401002801D15F2013E073
:10303000286810F5FE70FDF723F820F04040A060EE
:10304000286810F5FC70FDF71BF860602868F43004
:10305000FDF716F82080002032BD38B505000C00C1
:10306000002D01D0002C01D116201AE095F80401A2
:10307000002801D15F2014E0286810F5E670FCF705
:10308000FFFF20F04040A060286810F5E470FCF7D6
:10309000F7FF6060286810F5E270FCF7F1FF208010
:1030A000002032BD38B504000D00002C01D11620DF
:1030B0001BE02800C0B2022801DB162015E094F8BE
:1030C0000F01002801D15F200FE02068FCF7D8FF36
:1030D000EDB2002D02D050F4000001E030F4000009
:1030E00001002068FCF7D4FF002032BD10B50C00B1
:1030F000002801D0002C01D116200FE00021217002
:1031000090F80411002901D15F2007E00068FCF766
:10311000B7FFC00D10F001002070002010BD38B5C1
:1031200004000D00002C01D116201BE02800C0B2C5
:10313000022801DB162015E094F80401002801D1D3
:103140005F200FE02068FCF79BFFEDB2002D02D05E
:1031500050F0807001E030F0807001002068FCF7D2
:1031600097FF002032BD10B50C00002801D0002CC4
:1031700001D116200DE00021217090F804110029E2
:1031800006D00068FCF77CFF000E10F001002070F4
:10319000002010BD70B504000E0015002100002CA9
:1031A00001D1162036E03000C0B2042803DA28002E
:1031B000C0B2042801DB16202CE091F8470000285B
:1031C00003D13000C0B2002807D191F84800002890
:1031D00005D12800C0B2002801D016201AE02068CE
:1031E00000F2CC40FCF74CFF66F3051001002068AC
:1031F00000F2CC40FCF74CFF206810F59A60FCF719
:103200003FFF65F305100100206810F59A60FCF798
:103210003FFF002070BD70B505000E0014002900AE
:10322000002D03D0002E01D0002C01D116201AE071
:1032300091F84700002803D091F84800002801D1F8
:103240005F2010E0286800F2CC40FCF719FFC0F3C3
:1032500001103070286810F59A60FCF711FFC0F378
:1032600001102070002070BD38B504000D00002C46
:1032700001D116201BE02800C0B2022801DB162075
:1032800015E094F80401002801D15F200FE02068C8
:10329000FCF7F6FEEDB2002D02D050F4004001E044
:1032A00030F4004001002068FCF7F2FE002032BD3F
:1032B00010B50C00002801D0002C01D116200FE021
:1032C0000021217090F80411002901D15F2007E04E
:1032D0000068FCF7D5FEC00B10F001002070002044
:1032E00010BD10B50400002C01D1162019E094F88F
:1032F000E600002801D05F2013E0206810F5007080
:10330000FCF7BEFE010051F40041206810F500708A
:10331000FCF7BEFE012084F8B705002084F8B6054E
:10332000002010BD10B50C00002801D0002C01D1E8
:10333000162011E090F8E610002901D05F200BE084
:10334000006810F50070FCF79BFEC00B10F0010048
:1033500090F001002070002010BD38B504000D0071
:10336000002C01D0002D01D1162055E094F8E60084
:10337000002807D12068001DFCF782FEC0F3C06062
:10338000002801D05F2047E094F8B605002801D05E
:10339000102041E06A4600212000FEF76AFD002867
:1033A0003AD10098400501D4162035E0287802284B
:1033B0000BDA6878022808DA2879022805DAA87872
:1033C000042802DAE878042801DB162024E02068CB
:1033D00010F50070FCF754FE50F480500100206896
:1033E00010F50070FCF754FE2900200000F0C0F832
:1033F000012084F8B605012084F8B705206810F58F
:103400000070FCF73DFE50F400700100206810F5DC
:103410000070FCF73DFE002032BD38B504000D0001
:10342000002C01D1162034E02800C0B2022801DBB4
:1034300016202EE094F8E600002807D12068001D31
:10344000FCF71EFEC0F3C060002801D05F2020E022
:103450002800C0B2002805D094F8B605002801D095
:10346000102016E0206810F50070FCF709FEEDB2A0
:10347000002D02D050F4805004E030F48050002140
:1034800084F8B6150100206810F50070FCF700FE06
:10349000002032BD10B50C00002801D0002C01D155
:1034A00016200FE090F8E610002901D05F2009E017
:1034B000006810F50070FCF7E3FD000B10F0010050
:1034C0002070002010BD10B50400206810F50170B8
:1034D000FCF7D6FDC0F38001002902D1002184F859
:1034E000B415C0F30011002902D0012184F8B515EC
:1034F00010BD38B505000C00002D01D0002C01D105
:1035000016200AE02800FFF7DEFF95F8B4152170B9
:10351000C0F3800085F8B405002032BD38B5050041
:103520000C00002D01D0002C01D116200AE028004B
:10353000FFF7C9FF95F8B5152170C0F3001085F8A5
:10354000B505002032BD10B50C00002801D0002CBC
:1035500001D116200BE090F8E610002901D05F2081
:1035600005E0FFF7B0FFC0F340102070002010BD51
:1035700080B5002801D0002901D1162033E090F851
:10358000E620002A01D05F202DE00A78022A0BDA1B
:103590004A78022A08DA0A79022A05DA8A78042A9D
:1035A00002DACA78042A01DB16201CE000230A781C
:1035B000002A01D053F020034A78002A01D053F0AA
:1035C00040038A7862F3C813CA7862F30D3309792D
:1035D000002901D053F400431900006810F504706D
:1035E000FCF756FD002002BD10B50C00002801D0EC
:1035F000002C01D1162021E090F8E610002901D01E
:103600005F201BE0006810F50470FCF739FD010035
:10361000C1F3401121700100C1F3801161700100FC
:10362000C90911F00301A1700100090B11F0030198
:10363000E170C00B10F001002071002010BD70B5CA
:1036400005000C00002D01D0002C01D1162047E010
:1036500095F8E600002801D05F2041E0286810F5C9
:103660000570FCF70DFD06002868001DFCF708FD3D
:10367000C0F3C060002815D00120A0713000800A7E
:1036800010F0030020703000800B10F00100A070DB
:103690003000C00B10F00100E070360B16F003068E
:1036A00066701CE00020A0713000C0F34010207054
:1036B0003000C0F3801060703000C00910F00300CB
:1036C000A0703000800B10F0010020713000000B62
:1036D00010F00300E070F60B16F001066671002092
:1036E00070BD80B5002801D100200CE090F8E610F4
:1036F000002901D0002006E0006810F50670FCF7F4
:10370000BFFCC0F3400002BD80B5002801D00029F5
:1037100001D116202EE090F8E620002A01D05F208B
:1037200028E00A88B2F5006F08DA8A78022A05DAFA
:10373000CA78022A02DA0A79022A01DB162019E085
:1037400000230A8862F30A038A78002A01D053F41E
:103750008053CA78002A01D053F400530979002914
:1037600001D053F400431900006810F50770FCF70E
:103770008FFC002002BD10B50C00002801D0002CE9
:1037800001D1162017E0006810F50770FCF778FCEF
:1037900001004905490D21800100090B11F00101CB
:1037A000A1700100490B11F00101E170C00B10F094
:1037B00001002071002010BD10B50C00002801D0C0
:1037C000002C01D1162021E0006810F50870FCF7EC
:1037D00057FC01004905490D21800100C90A11F07B
:1037E0000101A1700100090B11F00101E17001005C
:1037F000490B11F0010121710100890B11F0010148
:103800006171C00B10F00100A071002010BD0028F4
:1038100001D0002901D1162000E05F20704738B5A3
:1038200004000D00002C12D02800C0B202280EDACD
:103830002068FCF725FCEDB2002D02D050F01000FE
:1038400001E030F0100001002068FCF721FC31BDE0
:1038500080B5002801D1002004E00068FCF710FCCE
:10386000C0F3001002BD38B50C0000281DD00021A7
:10387000BDF8105065F30F01022565F3114163F3A4
:10388000964162F3DB5114F00302032A02D131F0B6
:10389000405102E0012262F31D71E20701D451F0B0
:1038A000804100683430FCF7F3FB31BD38B50028A7
:1038B0001CD00024022565F3114463F3964462F39F
:1038C000DB54CA0707D54A0702D565F31D7404E027
:1038D00054F0405401E065F31D74C90701D454F05D
:1038E0008044210000683430FCF7D2FB31BD10B5B4
:1038F0000C00002801D0002C01D1162005E0006842
:103900003430FCF7BDFB2080002010BD80B50028BE
:1039100001D1002005E000680830FCF7B1FBC0F3DE
:10392000800002BD38B50400002C01D116204CE106
:10393000D4F8945094F8F300002801D05F2044E1BB
:10394000206810F58070FCF79BFB2860206810F55C
:103950008270FCF795FBA880206810F58470FCF756
:103960008FFBA860206810F58670FCF789FBE86083
:10397000206810F58870FCF783FB2861206810F53B
:103980008A70FCF77DFBA882206810F58C70FCF72C
:1039900077FBA861206810F58E70FCF771FBE86179
:1039A000206810F59070FCF76BFB2862206810F51A
:1039B0009270FCF765FB6862206810F59470FCF764
:1039C0005FFBA862206810F59670FCF759FBE8626F
:1039D000206810F59870FCF753FB2863206810F5F9
:1039E0009A70FCF74DFB8005800DA886206810F5C5
:1039F0009C70FCF745FBA863206810F59E70FCF7EF
:103A00003FFBE863206810F5A070FCF739FB8005E8
:103A1000800DA5F84000206810F5A270FCF730FB7F
:103A20008005800DA5F84200206810F5A670FCF70F
:103A300027FB8005800DA5F84800206810F5A470CC
:103A4000FCF71EFB6864206810F5CE70FCF718FBCD
:103A50008005800DA5F88C00206810F5A870FCF793
:103A60000FFBE864206810F5AA70FCF709FBA5F8C5
:103A70005000206810F5AC70FCF702FB6865206808
:103A800010F5AE70FCF7FCFAA865206810F5B07070
:103A9000FCF7F6FAE865206810F5B270FCF7F0FA6A
:103AA000A5F86000206810F5B470FCF7E9FA6866C4
:103AB000206810F5B670FCF7E3FAA866206810F5E8
:103AC000B870FCF7DDFAE866206810F5BA70FCF70C
:103AD000D7FA2867206810F5BC70FCF7D1FA686740
:103AE000206810F5BE70FCF7CBFAA867206810F5C7
:103AF000C070FCF7C5FAE867206810F5C270FCF7E3
:103B0000BFFA8005800DA5F88000206810F5C4700C
:103B1000FCF7B6FA8005800DA5F88200206810F544
:103B2000C670FCF7ADFA8005800DA5F8840020680A
:103B300010F5C870FCF7A4FA8005800DA5F8860082
:103B4000206810F5CA70FCF79BFA8005800DA5F877
:103B50008800206810F5CC70FCF792FA8005800D83
:103B6000A5F88A00206810F5D070FCF789FAC5F82E
:103B70009000206810F5D270FCF782FA8005800D65
:103B8000A5F89400206810F5D470FCF779FA00F0DD
:103B9000FF00A5F89600206810F5D670FCF770FAC3
:103BA00000F0FF00A5F89800206810F5D870FCF729
:103BB00067FA00F0FF00A5F89A00206810F5DA70A7
:103BC000FCF75EFAA5F89C00002032BD10B5040099
:103BD000002C01D116200FE094F8F300002801D04A
:103BE0005F2009E02068FCF74BFA50F0200001004C
:103BF0002068FCF74DFA002010BD10B50400002C21
:103C000001D1162013E094F8F400002803D194F8B1
:103C1000F300002801D05F2009E02068FCF730FAAB
:103C200050F4005001002068FCF732FA002010BD6B
:103C300038B504000D00002C01D116201FE028002B
:103C4000C0B2022801DB162019E094F8F400002825
:103C500003D194F8F300002801D05F200FE0206822
:103C6000FCF70EFAEDB2002D02D050F4804001E0D6
:103C700030F4804001002068FCF70AFA002032BDD1
:103C800010B50C00002801D0002C01D1162011E045
:103C900090F8F410002903D190F8F310002901D016
:103CA0005F2007E00068FCF7EBF9800B10F00100E3
:103CB0002070002010BD80B5002300280DD0002901
:103CC0000BD08A78022A08DACA78022A05DA0A7939
:103CD000022A02DA4A79022A01DB16201CE00A884D
:103CE00062F30F038A78002A01D053F48033CA7834
:103CF000002A01D053F400330A79002A01D053F48A
:103D000080234979002901D053F400231900006869
:103D1000B830FCF7BDF9002002BD10B50C00002141
:103D2000002801D0002C01D1162018E00068B8301E
:103D3000FCF7A6F920800100090C11F00101A17027
:103D40000100490C11F00101E1700100890C11F032
:103D500001012171C00C10F001006071002010BD44
:103D600038B504000D00002C01D1162015E0280004
:103D7000C0B2022801DB16200FE02068FCF780F9B2
:103D8000EDB2002D02D050F4002001E030F400200C
:103D900001002068FCF77CF9002032BD10B50C0052
:103DA000002801D0002C01D1162007E00068FCF7A4
:103DB00067F9C00C10F001002070002010BD38B56C
:103DC00005000C00002D01D0002C01D116201CE0B4
:103DD000286810F51C70FCF753F92080286810F54E
:103DE0001D70FCF74DF920F07F406060286810F5E9
:103DF0001E70FCF745F92081286810F51F70FCF74C
:103E00003FF920F07F40E060002032BD80B5020025
:103E10000800002A01D0002801D1162005E012F187
:103E2000E001502204F0ACFB002002BD38B50400D4
:103E30000D00002C01D116201BE02800C0B2022882
:103E400001DB162015E094F8F300002801D01620BD
:103E50000FE02068FCF714F9EDB2002D02D050F00D
:103E6000800001E030F0800001002068FCF710F9CC
:103E7000002032BD10B50C00002801D0002C01D16B
:103E800016200CE090F8F310002901D0162006E06F
:103E90000068FCF7F5F8C0F3C0102070002010BDDA
:103EA00010B50400002C01D116200FE094F8F300A7
:103EB000002801D0162009E02068FCF7E1F850F056
:103EC000400001002068FCF7E3F8002010BD38B581
:103ED00004000D00002C12D02800C0B202280EDA17
:103EE0002068FCF7CDF8EDB2002D02D050F48070C0
:103EF00001E030F4807001002068FCF7C9F831BDA2
:103F000010B50C00002801D0002C01D1162007E0CC
:103F10000068FCF7B5F8000A10F0010020700020DE
:103F200010BD38B504000D00002C01D116201FE093
:103F30002800C0B2022801DB162019E094F8E60040
:103F4000002801D05F2013E0206810F50070FCF716
:103F500097F8EDB2002D02D050F0800001E030F073
:103F600080000100206810F50070FCF791F8002037
:103F700032BD10B50C00002801D0002C01D1162054
:103F800010E090F8E610002901D1002C01D15F204B
:103F900008E0006810F50070FCF772F8C0F3C0107C
:103FA0002070002010BD38B504000D00002C14D086
:103FB0002800C0B2022810DA2068001DFCF760F863
:103FC000EDB2002D02D050F4805001E030F480506A
:103FD00001002068001DFCF75BF831BD10B50C0036
:103FE000002801D0002C01D1162008E00068001D37
:103FF000FCF746F8000B10F001002070002010BD07
:1040000080B5002801D116200EE090F8EF20002A9C
:1040100001D15F2008E0002261F30F021100006867
:104020000C30FCF735F8002002BD10B50C0000285C
:1040300001D0002C01D116200BE090F8EF100029E0
:1040400001D15F2005E000680C30FCF719F82080F2
:10405000002010BD70B504000D001600002C01D129
:10406000162027E094F8EF00002801D15F2021E01E
:10407000280094F8F010C0B2884201D3162019E04D
:1040800020680C30FBF7FCFF81B2F6B2002E04D0A2
:10409000012212FA05F50D4304E0012212FA05F59A
:1040A00031EA050565F30F00010020680C30FBF7CD
:1040B000EFFF002070BD10B50C00002801D0002CCF
:1040C00001D116200CE090F8EF10002901D15F20FB
:1040D00006E000680C30FBF7D3FF000C20800020C6
:1040E00010BD38B50D001400002801D0002C01D1FE
:1040F000162017E090F8EF10002901D15F2011E0A1
:10410000290090F8F120C9B2914201D3162009E0AC
:1041100000680C30FBF7B4FF000CE84010F0010021
:104120002070002032BD10B50C00002801D0002CFA
:1041300001D1162007E000680830FBF7A1FFC0F3AB
:1041400040002070002010BD10B51400002805D0DC
:10415000002C03D040F68402914201D3162006E0E1
:10416000006809180800FBF78BFF2060002010BDD5
:1041700080B50B001100002803D040F68402934262
:1041800001D3162005E000681B181800FBF780FF1C
:10419000002002BD00487047C40C022801BEFEE7A3
:1041A00080B5354A35490B6893423ED00A60344A9F
:1041B00012684A62334A8A6202684A6042688A60C8
:1041C0008268CA60C2680A6102694A6142698A619A
:1041D0008269CA61C2690A62F1EE102A12F0900F78
:1041E00023D0294A8A62026ACA62426A0A63826AE0
:1041F0004A63C26A8A63026BCA63426B0A64826B57
:104200004A64C26B8A64026CCA64426C0A65826C3E
:104210004A65C26C8A65026DCA65426D0A66826D26
:104220004A66C26D8A66006EC86604F0FCF901BD7C
:1042300001290EDB10F01F025118BFF34F8F134AF4
:104240001060203020390129F9DABFF34F8FBFF316
:104250006F8F704701290EDB10F01F025118BFF35A
:104260004F8F0B4A1060203020390129F9DABFF353
:104270004F8FBFF36F8F7047FAF9F8F7885603280E
:1042800028ED00E0A4A3A2A1ABAAA9A85CEF00E0DE
:1042900068EF00E0490005D5009801681160C06929
:1042A000186007E01168B0F8D405081810601868A5
:1042B000001D1860704730B40C681D68AC420ED108
:1042C0000C681D8A6D1EB0F8D40500FB05440C6017
:1042D0001068198A00EB8100001F106007E00B686E
:1042E000B0F8D4051B1A0B601068001F106030BCBA
:1042F0007047F8B58AB004000D0000208DF800006A
:10430000002C01D0002D01D11620B2E06A4601A98F
:10431000200000F0E8FD0100002801D00800A8E01E
:104320009DF80000002840F0938094F8FE000028DB
:1043300000F08E8094F82E71FFB27F08FFB27F1CD0
:1043400094F800013F187F1C94F80E013F1A94F86E
:104350001201ADF8080002AE94F81301708094F8D1
:104360001401B08094F81501ADF80E0094F8160110
:10437000308194F81701708194F81801ADF8140099
:1043800094F81901ADF8160094F81B01308294F8E6
:104390001C01ADF81A0094F81D01ADF81C0094F84A
:1043A0001E01F08294F81F01ADF8200094F820015E
:1043B000708394F82101ADF8240094F82201ADF83F
:1043C000260020681030FBF75BFE10F01F0080B263
:1043D000082802D010280AD013E094F82E014001DA
:1043E000082190FBF1F01A2110FB01F110E094F884
:1043F0002E014001082190FBF1F02E2110FB01F16C
:1044000006E094F82E014001082190FBF1F0010133
:10441000002203E0002045F8220017E0102A27D2EE
:1044200060798242F6D2012336F8120038188340B0
:10443000080080B21B1A45F8223055F822300920B6
:1044400043430A20B3FBF0F045F82200521CE5E795
:1044500000200BE0002145F8201006E06179884239
:10446000F8D243F6FF7145F82010401C1028F5D310
:1044700000200BB0F0BD2DE9FF470500884617006E
:104480001E00002D09D040466979C0B2884204D28E
:10449000002F02D07868002801D1162089E041461B
:1044A000C9B22420414305EB010010F59A79D9F8EF
:1044B00004000290D9F80C40002E02D0B6F5804FCF
:1044C00001D3162075E001AA4146C9B2280000F0C8
:1044D00082F9002801D016206BE0BDF80400002806
:1044E00001D1022065E0DDF830A00298001DFBF745
:1044F000C7FD10F080401AF001015246D2B25208B6
:1045000012F00102120452EAC132104306435FEA7C
:10451000CA7006D4002C04D156F000460298C9F89F
:104520000C003868D9F81410086079680298FBF715
:10453000AFFD31000298001DFBF7AAFD5FEACA70CB
:104540000DD5002C0BD0201DFBF79AFD20F000406C
:104550000100201DFBF79CFD0020C9F80C00B9F8F4
:104560001200401EA9F8120001AA4146C9B2280053
:1045700000F031F9002801D016201AE0CDF80090A3
:1045800019F1140302AA31002800FFF783FE0298F4
:10459000C9F804001AF0050ABAF1010F08D1286819
:1045A000FBF76EFD50F4007001002868FBF770FD0A
:1045B000002004B0BDE8F0872DE9FF4105000E00A2
:1045C000002D0AD030786979884206D270680028B8
:1045D00003D070684068002801D11620AAE0317825
:1045E0002420414305EB010010F59A77786801908B
:1045F000FC68B068002803D0B068B0F5804F01D3E4
:10460000162097E002AA3178280000F0E4F800288C
:1046100001D016208EE0BDF80800002801D102204C
:1046200088E0002C04D097F82100401C87F8210076
:104630000198001DFBF724FD804618F08048317B6F
:1046400011F00101C903307BC0F3400212F00102F6
:10465000120497F82100002804D0F089374B13EAA0
:10466000004300E00023114351EA0808B06850EA13
:10467000080853EA0808307BC0071ED4002C1CD160
:10468000307B00070DD5307C000610F04070317B88
:10469000C9B2490911F0010150EAC14050F480202B
:1046A00005E0307BC0F3001010F00100400450F032
:1046B000004050EA08080198F8607068006879695D
:1046C0000860706841680198FBF7E2FC4146019878
:1046D000001DFBF7DDFC307BC0070FD5002C0DD093
:1046E000201DFBF7CDFC20F000400100201DFBF752
:1046F000CFFC0020F860002087F82100788A401E57
:104700007882009717F1140301AA41462800FFF7A9
:10471000C1FD01987860307B10F00500012808D1B8
:104720002868FBF7ADFC50F4007001002868FBF727
:10473000AFFC002004B0BDE8F08100000000FF3FA6
:1047400038B50C00002808D0002C06D0616800297C
:1047500003D021784279914201D316203AE02278A1
:1047600024214A4300EB020111F59A756968009112
:10477000A9686A68914201D102202BE02B0015F153
:1047800014026946FFF797FD009868606869006841
:10479000616808600098FBF773FC616848600098E6
:1047A000001DFBF76DFC8104890CA16050F00040F6
:1047B00001000098001DFBF76BFC95F82100002814
:1047C00004D095F82100401E85F82100688A401C1D
:1047D0006882002032BD10B4002806D0002A04D020
:1047E0000B004479DBB2A34201D3162007E0C9B223
:1047F000242359430844B0F846011080002010BC1F
:1048000070472DE9FC4104001500002C01D0002D5B
:1048100001D11620A4E008006279C0B2904201D311
:1048200016209DE0C9B22420414304EB010010F59D
:104830009A76B0687168884203D1042028730220F8
:104840008EE0B068001DFBF71BFCA86096F8200006
:10485000002852D0A868002803D404202873002020
:104860007EE094F84700002839D0A868000236D5C9
:104870000120287494F84600002802D05FF0040854
:1048800001E05FF00208B0684146C9B200EB810068
:10489000FBF7F6FB0700B0685FFA88F800EB8800CA
:1048A000001DFBF7EDFB27F040416961800010F02F
:1048B0003C0050EA9770A861206810F5E870FBF79B
:1048C000DFFB297E890604D5810602D4A969403917
:1048D000A961A969800980014018A86101E0002050
:1048E0002874A868000402D50120287317E000206E
:1048F00086F820000020287311E0A96851F00041DB
:10490000B068001DFBF7C4FBA868000405D50320B0
:104910002873012086F8200001E002202873B06887
:10492000FBF7AEFB6860B06900682860009616F17E
:10493000180316F10802A9682000FFF7ABFC708A83
:10494000401C7082A868000409D4708A318A491E0C
:10495000884204D1012086F82000052000E00020D4
:10496000BDE8F681002801D0002A00D117E0080038
:10497000000D10F0070010700800800E10F001000C
:1049800050700800C00E10F0010090700800000F79
:1049900010F00100D070490F11F001011171704742
:1049A000002801D0002900D102E0B0F8D405086049
:1049B00070472DE9F04704000025002C04D00800C2
:1049C0006279C0B2904201D3162084E10A00D2B2CB
:1049D0002420424304EB020010F59A770800C0B28D
:1049E00004EB4000C0887882788A401C3882A26D2F
:1049F000E66D5FF000080800C0B2002814D0D4F8BB
:104A00005001F86110E03B8AB4F8D40500FB0322A2
:104A10003B8AB4F8D40500FB0366F8693B8A00EBD7
:104A20008300F86118F1010840460B00DBB280B248
:104A30009BB29842E7D33A603868B86038687860CB
:104A40000020F860F8697861F869B861012087F89A
:104A50002000002087F82100D7F800905FF0000ABE
:104A600019E000210BE000214846FBF711FB5046FE
:104A700080B2398A491E8842F3D15FF0804151F0FB
:104A8000004119F10400FBF703FBB4F8D40519EB5E
:104A900000091AF1010A5046398A80B28842E2D3ED
:104AA0001FFA88F8B8F1000F27D0B8F1020F40D0F4
:104AB00030D3B8F1040F5AD04AD3B8F1060F74D0EE
:104AC00064D3B8F1080F00F08E807DD3B8F10A0FDF
:104AD00000F0A780C0F09680B8F10C0F00F0BF8006
:104AE000C0F0AE80B8F10E0F00F0D780C0F0C680E5
:104AF000B8F10F0F00F0E080ECE020681C30FBF70D
:104B0000BFFAB60866F39F00010020681C30FBF76F
:104B1000BFFADFE0206810F58860FBF7B1FAB6084D
:104B200066F39F000100206810F58860FBF7B0FA7B
:104B3000D0E0206800F24440FBF7A2FAB60866F322
:104B40009F000100206800F24440FBF7A1FAC1E099
:104B5000206810F58960FBF793FAB60866F39F00AA
:104B60000100206810F58960FBF792FAB2E0206836
:104B700000F24C40FBF784FAB60866F39F00010090
:104B8000206800F24C40FBF783FAA3E0206810F5A0
:104B90008A60FBF775FAB60866F39F00010020688B
:104BA00010F58A60FBF774FA94E0206800F2544034
:104BB000FBF766FAB60866F39F000100206800F272
:104BC0005440FBF765FA85E0206810F58B60FBF731
:104BD00057FAB60866F39F000100206810F58B6055
:104BE000FBF756FA76E0206800F25C40FBF748FAE3
:104BF000B60866F39F000100206800F25C40FBF7F6
:104C000047FA67E0206810F58C60FBF739FAB608C0
:104C100066F39F000100206810F58C60FBF738FAFE
:104C200058E0206800F26440FBF72AFAB60866F301
:104C30009F000100206800F26440FBF729FA49E078
:104C4000206810F58D60FBF71BFAB60866F39F002D
:104C50000100206810F58D60FBF71AFA3AE0206831
:104C600000F26C40FBF70CFAB60866F39F000100F7
:104C7000206800F26C40FBF70BFA2BE0206810F57F
:104C80008E60FBF7FDF9B60866F39F00010020680F
:104C900010F58E60FBF7FCF91CE0206800F2744010
:104CA000FBF7EEF9B60866F39F000100206800F2FA
:104CB0007440FBF7EDF90DE0206810F58F60FBF70D
:104CC000DFF9B60866F39F000100206810F58F60D9
:104CD000FBF7DEF92800BDE8F08770B50400002579
:104CE000002C01D1162028E02600200000F05CF8FE
:104CF000002802D1200000F049F8002000E0401C0C
:104D0000717988420AD2242101FB00F1214411F576
:104D10009A714A6889688A42F1D00125EDB2002D66
:104D200001D17E2009E02068FBF7AAF9010051F4C7
:104D300000712068FBF7ACF9002070BD10B50400CD
:104D4000002C08D02068FBF79BF950F4806001002C
:104D50002068FBF79DF910BD10B50400002C08D0A9
:104D60002068FBF78DF930F0080001002068FBF7A0
:104D70008FF910BD80B5002801D1002005E0006842
:104D80001430FBF77DF9C0F3C00002BD10B504007C
:104D9000002C08D02068FBF773F950F008000100E0
:104DA0002068FBF775F910BD80B5002801D10020FF
:104DB00004E00068FBF764F9C0F3C00002BD10B561
:104DC0000C00002801D0002C01D1002027E0006851
:104DD0001430FBF755F90100C1F34011617110F077
:104DE000010121700100C1F3400161700100C1F3B4
:104DF0008001A1700100C1F3C011E1710100C1F394
:104E0000C001E1700100C1F3001121710100C1F383
:104E10008011A1710100090A11F00101217210BD78
:104E200080B50022002826D0CB0701D552F0010220
:104E30008B0701D552F002024B0701D552F0040254
:104E40000B0601D552F08002CB0601D552F01002BC
:104E50008B0601D552F020024B0601D552F04002DC
:104E6000C90501D552F48072002A04D011000068EF
:104E70001430FBF70DF901BD70B504000D001600EC
:104E8000002C01D116202DE094F8FE00002801D15D
:104E90005F2027E03000C0B2022801DB162021E0AD
:104EA0003000C0B2012809D1142D05D3012194F896
:104EB000000181408D4201D3162013E0206840306C
:104EC000FBF7DEF8F6B2002E04D065F30D0050F0CB
:104ED000004001E020F00040010020684030FBF776
:104EE000D7F8002070BD38B50D001400002803D09D
:104EF000002C01D0002D01D1162014E090F8FE10F6
:104F0000002901D15F200EE000684030FBF7B8F8BF
:104F100001000800C00F20702078002802D089040A
:104F2000890C2960002032BD7CB504000D001600FC
:104F3000002C01D1162043E094F8F600012801D19D
:104F40005F203DE094F83001012801D1162037E0C0
:104F500001AB6A462900C9B2200000F054F80028CD
:104F60002ED19DF80000002804D02900C9B22000ED
:104F700000F027F800202800C0B2002806D0310039
:104F8000206800F2C440FBF783F805E03100206898
:104F900010F59860FBF77CF8206800F2BC40FBF746
:104FA0006FF8EDB2002D02D050F0020001E050F099
:104FB00001000100206800F2BC40FBF769F8002006
:104FC00076BD38B504000D00002C07D02800C0B213
:104FD000022803DA94F8F600002800D012E02068D6
:104FE00000F2BC40FBF74CF8EDB2002D02D030F0DF
:104FF000020001E0400840000100206800F2BC40CF
:10500000FBF746F831BD2DE9F04107008846160050
:105010001C00002F03D0002E01D0002C01D116203F
:1050200031E097F8F600012801D15F202BE04046DF
:10503000C0B2022801DB162025E0386800F2BC402F
:10504000FBF71EF805005FFA88F8B8F1000F0CD0E6
:10505000C5F34005002D14D0002C12D0386800F2A2
:10506000C440FBF70DF820600BE015F00105002DA2
:1050700007D0002C05D0386810F59860FBF700F8D1
:10508000206035700020BDE8F081F8B504000F0005
:1050900015001E00002C01D116202BE03800C0B2F4
:1050A000022801DB162025E02068001DFAF7E8FF42
:1050B0000100FFB2002F16D051F080512068001D72
:1050C000FAF7E6FF2068BC30FAF7DAFF000C0004BC
:1050D000F6B2EDB255EA0625054329002068BC303A
:1050E000FAF7D6FF05E031F080512068001DFAF78D
:1050F000CFFF0020F2BDF8B507000E0014001D0020
:10510000002F05D0002E03D0002C01D0002D01D19E
:10511000162019E03868001DFAF7B2FFC0F30070DE
:1051200000280AD0012030703868BC30FAF7A8FF98
:1051300080B22070000A287005E000203070002046
:105140002070002028700020F2BDF0B402461068E4
:1051500095681318506803EB5004C00748BF4D44CE
:10516000A3422DD013F8016B16F0030004BF13F80F
:10517000010BC01C31090F2907D113F8011B0F3196
:1051800003E013F8017B05F8017B401EF9D10029EB
:10519000E6D013F8010BC6F38106032E08BF13F8FF
:1051A000016B00EB0620404228440026B71E8F42C8
:1051B0001EBF10F8017B05F8017B761CF6D1CFE706
:1051C000F0BC02F10C0070477CB505000C0000201B
:1051D0008DF80000002D01D0002C01D116204CE0EC
:1051E00069462800FCF7F2FF002801D0162044E0B1
:1051F0009DF8000000280BD00DF102012800FDF7FA
:1052000026F8002801D0162037E0BDF8026010E033
:1052100069462800FDF7D6F8002801D016202CE0BA
:105220009DF80000002802D04FF4C06601E040F273
:10523000EE566A4601A9280000F0B9FD002801D009
:1052400016201AE09DF80000002814D195F8FD0002
:10525000002810D095F82D01C0B24008C0B2401C03
:1052600095F8FF1001224018401C12FA00F0603837
:10527000B04200D206002660002076BD2DE9F04144
:1052800004001500002C01D116207FE008002279CF
:10529000C0B2904201D3162078E0002D05D02868D6
:1052A000002802D06868002801D116206EE00A00AC
:1052B000D2B22420424304EB020010F55D76708ADE
:1052C0000A00D2B204EB4202D28C904201D31620E3
:1052D0005CE094F84A00002803D0022805D002D3ED
:1052E00005E0042004E0082002E0102000E0042093
:1052F0006A68B2FBF0F700FB1720002801D01620E7
:1053000044E02868F2691060C9B204EB010090F82B
:1053100068805FEA0818DBB2002B0AD0002706E09D
:105320000021286800EB8700FAF7B2FE7F1C474592
:10533000F6D3696889088900F068FAF7A9FE94F83D
:105340004600002804D00021F0680830FAF7A0FEDB
:10535000DFF8F417F068001DFAF79AFEF068B4F869
:10536000D6154018F060F0687060F069001DF061BB
:10537000B069001DB0610020B1690860708A401CEE
:1053800070820321F068FAF783FE0020BDE8F08107
:1053900010B4002806D0002A04D00B000479DBB238
:1053A000A34201D3162007E0C9B22423594308447D
:1053B000B0F886031080002010BC70472DE9F04142
:1053C00004000025002C04D008002279C0B29042CD
:1053D00001D300201BE0C9B22420414304EB0100AB
:1053E00010F55D76B7685FF0000807E06D1C800778
:1053F0000FD4B4F8D6053F1818F10108708A80451B
:1054000004D23800FAF73CFEC107EFD42800BDE80B
:10541000F0813768F0E72DE9FC4705008A46994698
:10542000002D01D1162008E11400002C01D1162016
:1054300003E10A9E002E01D11620FEE05046297994
:10544000C0B2884201D31620F7E02068002802D0BD
:105450006068002801D11620EFE095F84A00002886
:1054600003D0022805D002D305E0042004E0082080
:1054700002E0102000E004206168B1FBF0F200FBC4
:105480001210002801D01620D7E05146C9B22420BE
:10549000414305EB010010F55D77B868FAF7F0FDC0
:1054A00080465FEAC87040F1C5805FEA98008000DE
:1054B0000190786900680090002079690860206890
:1054C000B96908605FFA8AFA05EB0A0090F868A0EB
:1054D0005FEA0A1A5FFA89F9B9F1000F0CD05FF0A0
:1054E000000907E00021206810EB8900FAF7D0FDE1
:1054F00019F10109D145F5D3B868001DFAF7C0FDCF
:10550000306095F84800002839D05FEA487036D5F9
:105510000120307295F84600002802D05FF004099F
:1055200001E05FF00209B8684946C9B200EB8100AA
:10553000FAF7A6FD8246B8685FFA89F900EB8900A0
:10554000001DFAF79DFD2AF04041F160800010F047
:105550003C0050EA9A703061286810F5E870FAF75C
:105560008FFD317C890604D5810602D431698039EA
:1055700031613169800980014018306101E000200B
:10558000307218F00208DFF8C015B868001DFAF78D
:105590007FFD4046C0B2002801D0022100E000217A
:1055A00051F00101B868FAF773FD7868FAF768FD01
:1055B00061688908890010F00200084301007868DA
:1055C000FAF766FD95F84600002804D000217868B7
:1055D0000830FAF75DFDB86878607869B8615FFAFD
:1055E00088F8B8F1000F04D03868B860386A78617C
:1055F00007E0B868B5F8D6154018B8607869001D9E
:10560000786101986060009820603068400408D597
:105610003068000402D5002030710DE001203071A7
:105620000AE03068000402D50320307104E0022053
:10563000307101E0042030710020BDE8F68770B5BC
:1056400004000E001500002C01D0002D00D1ABE0AD
:105650002068001DFAF714FD01003000C004C00CE2
:105660002880DFF8E8040840B0F1806F07D02A886E
:1056700016F4005002432A800020A87004E0300095
:10568000400B10F00100A8703000800B10F00100FA
:10569000E8703000C00B10F0010028712879002854
:1056A00004D1C6F3004010F0010000E00020687152
:1056B0002879002804D1C6F3404010F0010000E032
:1056C0000020A8713000400D10F00100A872F00316
:1056D00004D5A87A002801D0012000E00020E8715C
:1056E000A87A002805D03000400C10F0070028727E
:1056F00001E0002028723000000D10F001006872F7
:10570000C1F3006000280ED03000800D10F00300BF
:10571000A8733000000E10F0010068730020287399
:105720000020E8720DE00020A873002068733000AC
:10573000800D10F0030028733000000E10F00100FF
:10574000E8723000400E10F00300287494F8FD0059
:10575000002813D094F8F70005280FDB287C3100CF
:10576000C90E11F001018900081828743000000FDB
:1057700010F00100E8730020687409E03000C00EEA
:1057800010F00100E8733000000F10F001006874A1
:105790003000400F10F00100A8743000800F10F0AE
:1057A0000100E874F60F2E7570BD002801D00029A5
:1057B00000D102E0B0F8D6050860704780B5002837
:1057C00001D1002004E00068FAF75AFCC0F3800021
:1057D00002BD10B50400002C08D02068FAF750FC78
:1057E00050F0040001002068FAF752FC10BD10B51B
:1057F0000400002C08D02068FAF742FC30F00400C6
:1058000001002068FAF744FC10BD70B504001500D3
:10581000002C01D1162048E008002279C0B2904245
:1058200001D3162041E0002D01D116203DE0C9B280
:105830002420414304EB010010F55D76708A0028B6
:1058400001D1022031E0F068716888420BD1F06824
:105850003168884207D0F168B4F8D605091AF160BA
:10586000F069001FF061F068FAF70AFC8008800018
:105870006860F06900682860F0683168884210D07C
:10588000F168B4F8D605091AF160F069001FF061FB
:10589000F068FAF7F5FB50F002000100F068FAF743
:1058A000F7FB708A401E7082002070BDF0B4049D2A
:1058B0000026046E2C60446E1C600C00E4B2002CC8
:1058C00019D0D0F89443146215E02F68B2F810C0D4
:1058D000B0F8D64504FB0C772F601F68B2F810C0F3
:1058E000B0F8D64504FB0C771F60146A178A04EBE6
:1058F00087041462761C34000F00E4B2FFB2BC428D
:10590000E3D3F0BC70472DE9FE4304000D00160000
:10591000002C08D028002179C0B2884203D2300080
:10592000C0B2022801DB16200CE12000FFF75FFF68
:105930002900C9B22420414304EB010010F55D7732
:1059400001A8009002AB3A002900C9B22000FFF77D
:10595000ADFF3000C0B200280FD07868F9688842E7
:105960000FD0F868FAF78CFB01007868FAF790FB23
:10597000F8690068B969086003E001983860019827
:10598000F860019878600198B860386A7861386A80
:10599000B8613000C0B2002806D1386AF861002032
:1059A000B969086000207882D7F800805FF00009AC
:1059B00014E0032104E0484680B20028F9D0002119
:1059C0004046FAF765FB604918F10400FAF760FBFE
:1059D000B4F8D60518EB000819F101094846398AD0
:1059E00080B288422CD23000C0B20028E3D0786860
:1059F000F96888420CD103217868FAF749FB5249CB
:105A00007868001DFAF744FB0020B9690860E3E7F5
:105A10007868FAF735FB029002998908890078685E
:105A2000FAF736FB48497868001DFAF731FB7868C9
:105A3000B4F8D61540187860B869001DB861CBE796
:105A4000F6B2002E7DD100210298800860F39F01FC
:105A5000EDB2002D17D0022D20D019D3042D29D05E
:105A600022D3062D32D02BD3082D3BD034D30A2D90
:105A700044D03DD30C2D4DD046D30E2D56D04FD310
:105A80000F2D59D05DE020681830FAF701FB58E07F
:105A9000206810F59060FAF7FBFA52E0206800F2F7
:105AA0008440FAF7F5FA4CE0206810F59160FAF7B7
:105AB000EFFA46E0206800F28C40FAF7E9FA40E09D
:105AC000206810F59260FAF7E3FA3AE0206800F2F5
:105AD0009440FAF7DDFA34E0206810F59360FAF7A5
