:020000041000EA
:4000000000040000000000000000000001000000F000000000000000000000000000000010B500F025FB04001448016803220A430260200080F3108810BD10B500F018FB99
:4000400004000E4801680322914301220A43026001680322914302220A430260200080F3108810BD80B5FFF7E8FF05480168490049080160FFF7D4FF01BD000040C0264015
:4000800000C026400000000000000000000000000000000000000000000000000000000000000000000000000000000000000000000000000000000000000000000000001A
:4000C0000000000000000000000000000000000000000000000000000000000000000000000000000000000000000000000000000000000000000000000000000000000000
:4001000000800028CB010010F8B505000C001700069E009A2100280000F03AF83200D2B22100280000F006F83A002100280000F03EF8F1BDF1B50098614BC018C3091020BB
:400140005843604C0419042910D20D001F262768BC46EF003000B840674687431000C0B20640E80086403E43266010E00800051F1F266768BC46EF003000B840674687435E
:400180001000C0B20640E80086403E436660F1BD00B5002A03D101238B40436002E001238B40836000BD01228A40C260704770B40B009D000F26446C3100A9408C43164068
:4001C000AE402643466470BC7047F8B5002403203D490860FFF746FF3C4DAA27FF052F603B4E002000900123062203213000FFF78BFF3848286000F00DF8374800F030FA22
:4002000003213000FFF7CFFF200080B238432860641CF2E7F8B586B02C4C304820603048019030482060019800F048FA05002E482060002D01D0012D02D1F42000F045FA9C
:40024000286805900599280000F02FFA0390FE20400028180068000C02902448206003980299884202D0F32000F02FFA8220400028180068083000901D4820600099280061
:4002800000F00AFA002802D1F22000F01EFA802676053768F019049016482060009B049A3900300000F0ECF9002804D112482060F12000F00AFAAA20C005206007B0F0BD34
:4002C0000000CFBF0000304000E100E00C002240800E31400060065520BCBE00F0800066007C0017F1800066F2800066F3800066F4800066F5800066F680006600000000FB
:4003000000000000000000000000000000000000000000000000000000000000000000000000000000000000000000000000000000000000000000000000000000000000BD
:40034000000000000000000000000000000000000000000000000000000000000000000000000000000000000000000000000000000000000000000000000000000000007D
:40038000000000000000000000000000000000000000000000000000000000000000000000000000000000000000000000000000000000000000000000000000000000003D
:4003C00000000000000000000000000000000000000000000000000000000000000000000000000000000000000000000000000000000000000000000000000000000000FD
:40040000552CB842B7C0A221A50D16DBB1F4CC5682B093407F1E19AA650D5539828FFFFF26FCA0BD3B57754C078F54422814DFB3C1E4E75BC7E4FA91237AF8BE8844B95711
:40044000094CA498A83A30132E946273B99431864115C1AE39254FDD2E501E38CB44AC4264F6704740FD24D7CF116E47A32578D76F2FD06B91B2BC8C64FF55B058C8CC3D21
:400480002E10F83FC1F77862EDC72385D23036175100AF7B7C401D5CC45EE2FA94AC456DFFC3F6CDB0A3679689C4D3B491DC9C0167A4E6957969F9BCF3982A7914328F22F5
:4004C00065EA28831AFC4E8B10AB6B2FB7C79C0E216130D62B5C0F4F8A966C3973034360C9D14F9321B2659BA4D58819224FE82A15DAEB1C465927F055EE805276A2C2982C
:4005000000000000000000000000000000000000000000000000000000000000000000000000000000000000000000000000000000000000000000000000000000000000BB
:40054000000000000000000000000000000000000000000000000000000000000000000000000000000000000000000000000000000000000000000000000000000000007B
:40058000000000000000000000000000000000000000000000000000000000000000000000000000000000000000000000000000000000000000000000000000000000003B
:4005C00000000000000000000000000000000000000000000000000000000000000000000000000000000000000000000000000000000000000000000000000000000000FB
:4006000000000000000000000000000000000000000000000000000000000000000000000000000000000000000000000000000000000000000000000000000000000000BA
:400640000000000000000000000000000000000000000000000000000000000000000000801C800803D0401C801EFCD100BF7047EFF3108072B6704780F310887047000033
:40068000F1B50F0016001D00124804682B00320039000098A047F2BD70B506000C000E48056821003000A84770BD70B506000C000A48056821003000A84770BD38B504000D
:4006C000074805682000A84732BD00B505490860FEE700004020001744200017482000174C20001700F0010800000000000000000000000000000000000000000000000003
:4007000000000000000000000000000000000000000000000000000000000000000000000000000000000000000000000000000000000000000000000000000000000000B9
:400740000000000000000000000000000000000000000000000000000000000000000000000000000000000000000000000000000000000000000000000000000000000079
:400780000000000000000000000000000000000000000000000000000000000000000000000000000000000000000000000000000000000000000000000000000000000039
:4007C00000000000000000000000000000000000000000000000000000000000000000000000000000000000000000000000000000000000000000000000000000000000F9
:0200000490303A
:020000006F652A
:0200000490501A
:0C000000000000000000000000016F651F
:00000001FF