:020000041000EA
:100000000000022845460010E54B0010714A001020
:1000100000000000000000000000000000000000E0
:10002000000000000000000000000000E54A001091
:100030000000000000000000E94B0010ED4B001034
:10004000DD44001001450010254500104945001011
:100050006D45001091450010B5450010D9450010C0
:10006000F14B0010F54B0010F94B0010FD4B001048
:10007000014C0010054C0010094C00100D4C0010F4
:100080000100202008437047FDB5B2B03A980491B2
:1000900002A93B22885400200D9027A8401C3190D3
:1000A0000DE00498329A90470490002801D100F0A6
:1000B000B0FE0D98401C0D903398401C339033983F
:1000C0000178002910D02529EBD100200790089055
:1000D00009900A900B900C900021022401201490AA
:1000E00008201290339D05E00D9800F094FE080062
:1000F000149901436D1C28782028F8D023280BD0B0
:100100002B2804D02D2804D0302808D00AE0214321
:10011000F0E708000421ECE708000821E9E70800FF
:100120001021E6E72A280FD1349802681068121DC2
:10013000349B1A600F90002804D542420F920800A9
:10014000042101436D1C12E000200F90644A09E075
:100150000F9B934205DA9E00F3185B0018183038A5
:100160000F906D1C28780300303B0A2BF0D32878C1
:100170002E2803D00020C0430E9027E06D1C287865
:100180002A2808D1349800680268001D349B186042
:100190000E926D1C1AE02D2802D12D226D1C00E05C
:1001A000002200200E900CE0002A09D10E9B4C4E3C
:1001B000B34205DA9E00F3185B00181830380E9031
:1001C0006D1C28780300303B0A2BEDD302A8018771
:1001D0002E78310040487844FF30401E00F010FF78
:1001E000002801D06D1C00E0002602A83A214654E8
:1001F000405C682804D1287868280BD1622005E08B
:100200006C2807D128786C2804D1712002A93A22E1
:1002100088546D1C18A80690287869460870681CD8
:100220003390684605782800253833D01C3800D133
:10023000CCE1001F022800D8C8E1133801D100F03A
:1002400012FD093800D1C1E1801E01D100F0A8FDE6
:10025000401E01D100F055FD401E022800D8B5E136
:10026000001F01D100F04DFD401F00D108E1401EEC
:1002700001D100F0F8FC401E00D1F0E0C01E0ED00D
:10028000801E01D100F0EFFCC01E01D100F0EBFC9C
:1002900000F091FD14980790252018A97CE134986E
:1002A00000680468001D349908600594002C00D093
:1002B000C1E002A83B21405C002800D1B5E0002449
:1002C000E44306487844143000F0A8FE201A01D018
:1002D00000F09FFD00F07CFDD84300000C440000BE
:1002E000CBCCCC0C01236A4602A9280000F04EFEBC
:1002F000002801D000F08DFD641EF3D13295079DDA
:1003000018AC002D0FD0329E21780498B04704908D
:10031000002801D100F07DFD0D98401C0D90641C5B
:100320006D1EF1D132963020694608700A9C002C6F
:100330000DDD329D01236A4602A9280000F026FE49
:10034000002801D000F065FD641EF3D13295059CB4
:10035000089D002D0FD0329E21780498B04704905C
:10036000002801D100F055FD0D98401C0D90641C33
:100370006D1EF1D13296302769460F700B9C002C10
:100380000DDD329D01236A4602A9280000F0FEFD22
:10039000002801D000F03DFD641EF3D13295059890
:1003A00008994418099D002D0FD0329E2178049899
:1003B000B0470490002801D100F02BFD0D98401C9F
:1003C0000D90641C6D1EF1D13296684607700C9C2E
:1003D000002C0DDD329D01236A4602A9280000F0A1
:1003E000D5FD002801D000F014FD641EF3D1329534
:1003F00002A83821405C400700D460E6202069460E
:1004000008700198002800DC59E6019C329D012308
:100410006A4602A9280000F0B9FD002801D000F0CA
:10042000F8FC641EF3D1329549E61B4878446830E5
:10043000059000F0CDFC0E9D002D03D5200000F0AE
:1004400011FE09E02A000021200000F013FE002820
:1004500001D0001B00E02800089000F0B9FC34989F
:1004600000680268001D349908600020C043002124
:10047000104002AA03C218A80590782100F08CFC55
:1004800002A83B21415C002908D00024E4434B48EA
:100490007844FF30293017E76C4200003A21405C75
:1004A00062286AD0682819D06A2845D06C2806D0FE
:1004B00071284FD0742831D07A2821D06FE0349839
:1004C00000680168001D349A106000297AD1002468
:1004D000E4433B487844FF301738F5E63498006829
:1004E0000168001D349A1060002905D10024E443FE
:1004F00033487844CA30E7E60D98088000F068FC7D
:10050000349800680168001D349A1060002959D1A0
:100510000024E4432A487844A630D5E6349800689D
:100520000168001D349A106000294BD10024E44377
:10053000234878448A30C7E6349800680268001D72
:1005400034990860002A13D10024E4431C487844FD
:100550006E30B9E6349800680268001D349908606E
:10056000002A05D10024E443154878445230ABE614
:100570000D98C11703C200F02BFC34980068016885
:10058000001D349A1060002905D10024E4430C4872
:1005900078442C3098E60D98087000F019FC3498D7
:1005A00000680168001D349A106000290AD10024F7
:1005B000E44303487844083086E600BFFC4000006E
:1005C000104100000D98086000F002FC34980068AB
:1005D000C21D072082433498026003CA349B1A600C
:1005E00002AA03C22022C80F04D007982D2118AAFE
:1005F00011540DE002A8008F204204D007982B214F
:1006000018AA115404E0C00704D5079818A90A5481
:10061000401C079018A8079940181390059027AC24
:1006200002A803C816AA03C2684600782021014325
:1006300068464170612909D00E98002801D506202E
:1006400003E003D1672901D114980E9002A803C8D2
:100650000F0006187F417E15FF17BAA20CCA9F42F1
:1006600012D1964210D10903020D11430003002953
:1006700001D1002808D003200890613D1A2D19D31C
:10068000244979448E3110E002A803C808004100D3
:100690004915994212D1000310D103200890613D01
:1006A0001A2D21D31C4979446E310322139800F08E
:1006B00007FD8DE3194979446231F6E701AA02A8E2
:1006C00003C800F00AFD02AA03C268464078612808
:1006D00013D1059830210170811C05916946097874
:1006E000612905D1782104E00D4979443231DCE7F4
:1006F000582141700798801C079002A803C8C2A225
:100700000CCA02400B400DD1002A0BD10027002556
:100710005EE100BFF83F0000FC3F0000EC3F00003E
:10072000F03F000068464078612800D095E00E98C0
:10073000002801D5212000E0401C1390139F7F1C4E
:1007400016A803C80022002300F0DCFC02A830C871
:1007500002D28020000645400198001F019027A981
:100760000A7027A8461C002F31DD20002900002236
:1007700080235B0300F0DFFC29D81C2200F0F4FC8E
:1007800004000D0000F028FD1590FF1F002F09DD6B
:1007900000F05CFD02000B002000290000F0BDFD10
:1007A00004000D00F01D0721159A002A0ADD491EDC
:1007B00008D4401E13071B0F03701211F5E7401EEB
:1007C00000220270491EFAD5C61D002FCDDC27A9D4
:1007D0003198321A27A8441C1398824200DC10007A
:1007E000002833D4904205DA4A1C125C082A01DB47
:1007F0000F2200E00022030027ADED1801E0401EAB
:100800006D1E5B1E2E789642F9D00F2A04D14A1C29
:10081000D25C521C491CCA54002B04D527AC401C86
:100820000199091D0191421E10D4A3186946097847
:100830001D783035EEB23A2E01DB4D19C6351D70EC
:10084000521E5B1E002AF3D56A4611700E990029CC
:1008500000D4BBE0411E0E91B8E016A830C86D0070
:100860006D08019864494843644900F0E3FD019034
:1008700007200199401A002805DD02002000290008
:1008800000F05DFB0AE0424200205D4900F057FBAA
:1008900002000B002000290000F026FE6A46527874
:1008A000662A02D1019A0A3200E006220E9B9A18AB
:1008B000142A00DD142227AB30241C705C1C02E0DB
:1008C00016A803C8139A002A40DD16AB03C313927F
:1008D00016A803C800F092FC1590064608340425BB
:1008E00030000A2100F0A9FD0F0030000A2100F0BD
:1008F000A4FD06003037601E077030000A2100F0AA
:100900009CFD0F0030000A2100F097FD0600A41E98
:10091000303727706D1EE3D10834139808381390D0
:100920000028CDDD159800F081FC02000B0016A810
:1009300003C800F0F2FC0022324B00F036FE16AA8B
:1009400003C2C5E7FFFFFFFFFFFFFFFF3198211A3A
:1009500027A8441C04E0491E0198401E0190641C15
:1009600020783028F7D068464078662802D1019870
:10097000401C06E068464078652801D1149800E0E4
:1009800000200E9A1018814200DA481E00281DD45B
:10099000884204DA215C342901DD392200E030226A
:1009A0000300611ECD1801E0401E6D1E5B1E2E78F7
:1009B0009642F9D0392A02D1E25C521CE254002B53
:1009C00004D50C00401C0199491C0191019D0700B0
:1009D0001394684606780E9C38B2002804DC149FF5
:1009E000044878440E3013906846407866280FD14A
:1009F0006D1C27E0243D000097750000A0860100D3
:100A00000000F03F84D79741FFFFFFFFFFFFFF7F0C
:100A100068464078672845D128B20321C9438842F7
:100A200044DBA04242DA6D1C02A8008F1299C0B2CA
:100A3000084203D138B2A04200DC040028B2241AD4
:100A400000D500242EB2002E00DDA9E00898411C3C
:100A500008913021059A1154002C05DC02A8008F62
:100A60001299C0B2084205D00898411C08912E2165
:100A7000059A11547042844200DA65422DB26842F0
:100A80000B90641938B2844200DA27003FB209970C
:100A90003A0013990598089BC01800F011FBE01B61
:100AA0000C90C8E0612E14D1702615E038B2A04237
:100AB00006DA02A9098F129AC9B2114200D10400C4
:100AC000641E00D50024672E01D1652604E045266A
:100AD00002E0412E00D150260898411C089113993C
:100AE0000978059A11541398411C002C05DC02A8C2
:100AF000008F129AC0B2104218D00898421C089277
:100B00002E22059B1A54002C10DD7F1E38B2844221
:100B100000DA27003AB20598089BC01800F0D0FA16
:100B20003FB20898C0190890E01B0B9005980899EF
:100B30004018067029B2002903D42B214170871C6C
:100B400003E02D224270871C4D42002412A9280088
:100B50000D0005E00A2100F06DFC2970641C6D1C7D
:100B600000B20028F6DC012C06DC2020304365288A
:100B700002D1302038707F1C002C09D13020387011
:100B80007F1C07E0641E12A8005D303038707F1CA7
:100B9000002CF7DC059808994018381A09904AE0AB
:100BA00038B229B288421CDA3AB213990598089BE8
:100BB000C01800F085FA3FB20898C0190890F11BE0
:100BC0000B91002C05DC02A9098F129AC9B21142BF
:100BD00005D02E21059A11540998401C09900C94B7
:100BE00029E02AB213990598089BC01800F068FA0A
:100BF0000898801908907D1B002C05DC02A9098F3C
:100C0000129AC9B2114204D0411C08912E21059AB2
:100C1000115428B2844200DA25002AB213988119AF
:100C20000598089BC01800F04BFA2DB2089840199F
:100C30000890601B0B9002A83821405C14210140F1
:100C4000102900D0C4E00798089940180B99401863
:100C5000099940180C9940180F99884200DBB7E0B9
:100C6000081A0A90B4E002AA3A20105C622808D060
:100C700068280ED06A2814D06C281DD0712810D096
:100C80001AE0349801680868091D349B1960C0B2E5
:100C900018E0349801680868091D349B196080B217
:100CA00010E034980068C31D072083433498036024
:100CB00003CB349C236006E0349801680868091D62
:100CC000349B1960002102AB03C3108F1299C0B28C
:100CD00008425BD002A803C8002901D1002855D0E2
:100CE000684600782021014378294FD1079818A938
:100CF00030220A54401C421C07926A4612780A5459
:100D000044E002AA3A20105C622808D068280ED07D
:100D10006A2814D06C281DD0712810D01AE034989D
:100D200001680868091D349B196040B218E03498C6
:100D300001680868091D349B196000B210E03498FE
:100D40000068C31D072083433498036003CB349DA0
:100D50002B6006E0349801680868091D349B19600F
:100D6000C11702AB03C3002902DA07982D2109E05D
:100D7000108F204202D007982B2103E0C00705D531
:100D80000798202118AA1154401C079018A8079909
:100D9000401805906846017802A800F03EF817E078
:100DA00014980790349800680168001D349A106008
:100DB00018A801700CE014980790252018A9087055
:100DC00068460078002803D0079468460078487089
:100DD0000F980799401A0A99401A0899401A0B99D6
:100DE000401A0999401A0C99401A019002A838211A
:100DF000405C400701D5FFF782FA20206946087061
:100E00000198002801DCFFF77AFA019C329DFFF778
:100E100069FA0020C04335B0F0BDF2B586B00400D9
:100E200025696F2901D1082707E00846FFF728F94F
:100E3000782801D00A2700E010273C2603CC083C84
:100E400004AA03C26A46127E642A03D06A46127E4E
:100E5000692A09D1002907DA04A803C8002200235F
:100E6000121A8B4104A80CC004A803C800290DD194
:100E700000280BD1206B002808D1082F3DD1382045
:100E8000205C000739D53B26302035E002940095E0
:100E900004A830C8761E0196200029003A00FB17EE
:100EA00000F045FC3032D0B23A280DDA0098825575
:100EB000200029003A00FB1700F039FC04000D0067
:100EC00007D1002C05D10AE06846007E8218AF32B7
:100ED000ECE70298C068009989198842DAD3029C2D
:100EE000009D082F09D13820205C000705D5A85D9A
:100EF000302802D0761E3020A8553C20801BA061EF
:100F0000A919E160216B884206DA081A2062208F55
:100F10001C490140218710E000290ED53821615C71
:100F200014220A40102A08D1616B6269891A226A68
:100F3000891A081A002800DD206207B0F0BDF8B554
:100F40000026114F04000D00009214E0C00707D5E1
:100F500032003B002000290000F027FB04000D00B8
:100F60000098401000903000390032003B0000F043
:100F70001CFB06000F0000980028E7D12000290084
:100F8000F4BD0000EFFF000000002440F8B500248D
:100F9000002B11D007000E0014001D002178B0684E
:100FA000B847B060002809D0F06A401CF062002009
:100FB000641C6D1EF2D104002000F2BD0020C0436D
:100FC000F9E730B501684118446862088A188368F7
:100FD000E40704D54C461B1901E0641C09D1914279
:100FE00003D00C7864B2491C01E00C3030BD0D78A0
:100FF000491C1D705B1C002CEFD4641EF7D5EEE776
:10100000C9B202788A4203D0401C002AF9D10020DC
:1010100070470268531C03601170704780B5002848
:1010200001D100BF07A006490B68002B03D0222284
:101030000021984701E000F0B8FB222002BD00002B
:101040002C160028636F6E73747261696E74206869
:10105000616E646C65723A20626164206D657373C1
:1010600061676500431C0178401C0942FBD1C01A2E
:1010700070470000C9B2521E05D30378401C8B4252
:10108000F9D1401E704700207047000070B4103A3C
:1010900003D378C9103A78C0FBD2530701D318C9DB
:1010A00018C001D508C908C0D20704D30B88038033
:1010B000891C801C002A01D50B78037070BC704716
:1010C0008B0701D18307E1D0124205D00B78491C70
:1010D0000370401C521EF9D1704710B5144600F041
:1010E00002F8226010BD4A0053155B1C08D0520D57
:1010F00006D003231B02FE3AD21A1305C91A704701
:101100000022704730B4012464054D00EC420BD836
:101110005D00EC4208D80C001C43640004431443F7
:1011200004D2994200D1904230BC7047FCD08B422F
:10113000FAD18242F8E730B4012464054D00EC4254
:101140000BD85D00EC4208D80C001C43640004433B
:10115000144304D28B4200D1824230BC7047FCD091
:101160009942FAD19042F8E7124217D40023DB43A8
:101170005B0D9C464B005B0D06D0634504D09B186D
:10118000634502D21205891870476246090D114362
:101190000905002000B500BF00BF00BD52424B0052
:1011A0005B0DF1D05B1C5B05EED25B0D934102D968
:1011B0001205891A70470BD10B031B13C90FC907FE
:1011C000821C002043411343E4D912051143E1E797
:1011D000C90FC9070020DDE7F4464A1805D200F020
:1011E0000FF801D580174008604700F009F8012189
:1011F000C907884200D90800404260474A1812D205
:10120000400DC90208430121C9070843520D40217E
:101210000901521A521C06D452421F3201D4D04046
:101220007047C0177047002070470000010042223D
:101230001201D21E004207D002D4521E0018FCD563
:10124000C10A400512058918704700000100EED55B
:101250004042F446FFF7EBFF0122D20711436047FB
:101260008B4200D1824205D98446100062468C46EA
:1012700019006346DF184C18640D7F0D3AD0661CC8
:10128000760537D0E61B352E34DCDB022B43DB0A38
:101290000C0DC9022943C912202E0DDB1700203E78
:1012A00006D01F00F741F3405F400026012A774136
:1012B000C01871410DD217E01700F741F2405740B6
:1012C000F3415A40B340F3405A4000268018594138
:1012D0000AD3A21C52050FD0C207012F724117007A
:1012E0004008CB0718434908641C24054208AF4155
:1012F00070416141F0BC7047641C21050020F9E792
:101300006B4010E06B40ABE7F742F3D1E943F1E704
:101310002442EFD100200021ECE7F0B40125ED07D5
:101320000F005F40EED40C00871A9C4105D2C01B11
:10133000A141D219634169406B40AE0ADF184C18D5
:10134000F442E1D2640D7F0DE2D0E61B362ED1DCF3
:10135000DB022B43DB0AA4460C0DC9022943C90A50
:10136000012E28DC04D1D6075208DF073A435B0878
:10137000EF0A76429041994114D039423BD1B619D7
:1013800040414941761C394204D1761C001849413C
:101390003942FAD0B9436746B74208D9A41B24059D
:1013A0002143A7E70042EAD13642E8D1A2E7E40AA6
:1013B000E10700209EE7202E0BDD203E1F00F340BA
:1013C000F7415F40012A002257417E4298419141F6
:1013D0000BE01700F741F2405740F3415A40B34049
:1013E000F3405A407E42904199410A0303D2641E61
:1013F000B619404149410027641E24054208AE4108
:1014000078416141F0BC7047F446002804D4494259
:1014100000F013F8404260474042002905D45FD0F5
:1014200000F00BF8404249426047494200F005F89D
:101430004942604703460B43E6D40022030A8B422D
:101440000BD203098B4219D243088B422ED2411A88
:1014500000D20146524110467047FF2209023FD098
:1014600012068B4205D3121209028B4201D31212CB
:10147000090203098B4219D300E0090AC3098B4210
:1014800001D3CB01C01A524183098B4201D38B0196
:10149000C01A524143098B4201D34B01C01A524139
:1014A00003098B4201D30B01C01A5241C3088B427E
:1014B00001D3CB00C01A524183088B4201D38B0069
:1014C000C01A524143088B4201D34B00C01A52410B
:1014D000884200D3401A5241CFD20146104670478D
:1014E00008B500F067F908BDF0B40E005E400125B4
:1014F000ED072E40B446AE0ADF184C18F4423BD23A
:10150000F74241D2640D43D07F0D38D0E41BC902AD
:10151000DB0229432B43CF0ADB0A0600B61A9F41A0
:1015200004D2641EB6197F41B6185F416812800D5F
:1015300024180018844222DCE80C0021B6197F41EF
:10154000B61A9F4102D2B6185F413F1C4041494143
:10155000F4D3241C21DD2405B6197F41B61A9F411E
:1015600005D33743C60737430026012F7041614139
:1015700066463143F0BC7047FCD1F74205D20020EB
:10158000C14349054908F3E704D00020C143F1E70E
:101590007F0DFAD000206146ECE72442FAD1401CCE
:1015A00061410F03F6D30020E2E7F0B50E005E4084
:1015B0000125ED072E40B446AE0ADF184C18F44260
:1015C00008D2F7420ED2640D01D07F0D12D1002057
:1015D0006146F0BD05D1F74201D87F0D05D100204D
:1015E000C143F0BDFBD1640DF9D00020C1434905D2
:1015F00049088FE0E419C902DB0229432B43DB0AC7
:10160000460DC00231438E4630B487B295B27D4359
:101610002E0CADB2140C7C43A419260C24042543D3
:101620009CB27C43A419190C7943270CC919A4B2A4
:101630000F043C43090C000C97B247432E0CBE1913
:101640003543ADB2170C4743360CBF19A6B2BF19CC
:101650003E043543240C3E0C36199FB24743BF1954
:10166000BCB23E0C89191F0C47437F183E0434431B
:10167000390C704680B297B247432E0CBE193543E1
:10168000ADB2170C4743360CBF19A6B2BF193E04C2
:101690003543240C3E0C36199FB24743BF19BCB2E8
:1016A0003E0C89191F0C47437F183E043443390C04
:1016B00077463F0C90B278432E0C80190604ADB2E9
:1016C0002E43050CA0B22D18120C7A435019020CAF
:1016D00080B2240CA4189AB27A431219140420433D
:1016E000120C89181B0C7B43C91830BCEF0A394215
:1016F00003D1B61940414941641E6F12BF0DE41B6E
:101700000BDBFF19BC4211DA240500274208AE4169
:101710007841614166463143F0BD641C05D1401CEF
:101720006141CF0201D34908F4E750E75DE7124277
:101730002DD0994231D970B500251B4209D00C003B
:10174000002112E01100FFF778FE0A0000210023BB
:1017500070BD0942F6D00024012649186441944224
:1017600000D3A41A7641F8D33100012601E0764176
:1017700009D2001864416D41A41A9D41F7D2A41802
:101780005D41B619F5D3300022002B0070BD1B421D
:10179000CFD108B500F010F808BD01D19042CAD2EF
:1017A00002000B0000210020704780B5012000F0EE
:1017B00005F801BD704700007047000080B500BF0C
:1017C00000BF024A11001820ABBEFBE72600020052
:1017D000F0B587B000F00AFDE6490125086803224C
:1017E000904328430860E4480A6802400A60E349DD
:1017F0000A6803239A432A430A600A6802400A607F
:10180000DF490A6803239A432A430A600A680240B0
:101810000A60E9490A6803239A432A430A600A686E
:1018200010400860E54801680F2291432943016098
:10183000E3480168072291430160E24801680722FA
:10184000914303220A4302600168F022914370220F
:101850000A4302600168C02292000A4302600168E4
:10186000C02212010A4302600168D74A0A4080215F
:10187000C90111430160E8480168802212060A4349
:101880000260E648016829400029FAD00168490849
:1018900029400029FAD0E248016808220A43026080
:1018A000E0480068800828400028F9D0DE48016838
:1018B000DE4A0A400260DE480168DC4A0A408021B4
:1018C000490011430160DB480168D84A0A40802181
:1018D000490011430160D8480168D44A0A400260B7
:1018E000D64801680722914302220A430260D44885
:1018F0000168490049080160EB480168890A8902CA
:1019000029220A4302600168E84A0A40026001682D
:10191000802252040A4302600168EA4A0A400260D7
:101920000168802212060A430260E7480168E74A1C
:101930000A4080218900114301600168FF22914320
:1019400050220A4302600168E54A0A408021890268
:101950001143016080218904E24A036813400B436C
:101960000360E14B04681C4004600468802636066E
:1019700026430660DD4804680726B4430226264352
:101980000660DB480468240E2406E74E2643066002
:101990000468E64E264080246405344304600468ED
:1019A0008026360626430660E14804686400640821
:1019B0000460E04E8024E4003768C4483840204387
:1019C00030603068FF27B8434927074337603768DE
:1019D000C3483840C027BF02074337603068104013
:1019E00008433060306818403060306880273F0618
:1019F00007433760DD4806680727BE4302273743A1
:101A00000760DB480668760076080660DF4F3868B6
:101A1000860AB6022920304338603E68A348304029
:101A200038603E6880204004304338603E68A548F6
:101A30003040386038688026360606433E60D44E13
:101A40003768A248384080277F00074337603068F6
:101A5000FF27B8433227074337603768A04838402C
:101A60008027BF020743376030681040084330606A
:101A7000306818403060306880273F060743376081
:101A8000C44806680727BE43022737430760C24899
:101A90000668760076080660C04F3868860AB60287
:101AA0002920304338603E688048304038603E68C6
:101AB00080204004304338603E68824830403860BF
:101AC00038688026360606433E60B54F3E687F483C
:101AD000304004433C603868FF24A0437D24044325
:101AE0003C603C687E4820408024A40204433C6063
:101AF00038681040084338603868184038603868E3
:101B00008024240604433C60A64804680726B443A6
:101B1000022626430660A448046864006408046042
:101B2000A2480468A40AA402292626430660046881
:101B30005E4E2640066004688026760426430660D2
:101B40000468604E264006600468802636062643F8
:101B50000660D04806685D4C34408026B6002643B7
:101B600006600468FF26B4433726264306600668ED
:101B70005B4C07E0C4132040FFFCFFFF0013204034
:101B80008013204034408026B60226430660046855
:101B900014402143016001681940016001688024FC
:101BA00024060C430460D54801680724A14302249D
:101BB0000C430460D24C09E0A013204000002440F4
:101BC0000015264044152640FF8FFFFF282021687E
:101BD0007F26B1430143216026683C49314080267D
:101BE000B6000E43266026683D4931408026B60285
:101BF0000E432660216811402160C24926680E40CC
:101C0000266026681E402660266880273F063743E8
:101C10002760BD4C16E000BF1C1526402415264049
:101C2000000027401000274010102040FF00FFFF59
:101C3000081020400C1020402003204004122640B1
:101C40000419264026680727BE430227374327602A
:101C5000AE4F3C687F26B443204338603C681B4845
:101C600020408024A40004433C603C681C48204081
:101C70008024E40204433C603868104038603868CF
:101C80000840386038681840386038688024240676
:101C900004433C609E4804680726B443022626435A
:101CA00006609C4804E000BF08192640FFFFF8FFCB
:101CB00004687F26B4433226264306600668034C38
:101CC00006E000BFFFFFFFEF00192640FFE0FFFF27
:101CD00034408026B600264306600668004C09E0C2
:101CE000FFFFE0FFFFFFFFF9FFFFFFCF08122640D5
:101CF0001419264034408026B60226430660046844
:101D00002240026002681140016001680B400360DC
:101D10000168802212060A4302607F48006828405A
:101D20000028FAD0A34807E0355EBA00FFFFFF8F16
:101D30001819264010192640006828400028F1D0C4
:101D40009D48006828400028FAD09C480068284038
:101D50000028FAD09A48006828400028FAD099480C
:101D6000006828400028FAD0974803E00C1226406B
:101D700024192640006828400028F5D0A7480068AC
:101D800028400028FAD0A64812E000BF28192640B3
:101D900020192640101226403419264038192640B2
:101DA000301926401412264044192640481926406E
:101DB000016807229143016068469A491C22FFF797
:101DC00065F9002622E03220002100F01FFA3000E1
:101DD00040B280003818016830229143220052B28C
:101DE0001201302313400B430360641E200040B2F5
:101DF0006946320052B25200895C00B209B2884290
:101E0000E1DA3220002100F001FA761C300040B205
:101E10000E2841D2300040B208280DD1EFF31084D3
:101E2000002080F3108880239B00002201211020D5
:101E300000F048FB84F31088A44F300040B28000CB
:101E4000381801680F2291436A4633005BB25B0089
:101E5000D21852781207120F0A430260300040B2C3
:101E600080003818016830220A430260300040B216
:101E7000800038180168802252000A430260300056
:101E800040B2800038180168802212060A430260BE
:101E90000224ABE7401926408D488E4A0168114064
:101EA0000160F821C94303680B4003608A48036856
:101EB0001A40026002681140016000F084F987480E
:101EC00080242406016821430160016829430160E0
:101ED00000F06EF98248016803220A4302608148DB
:101EE0000068000928400028F9D07F4801680C43A9
:101EF000046000F013F807B0F0BD00BF18122640D0
:101F000000162640FFFFFFF71C122640041626404D
:101F100020122640081626400C19264038B586B0F7
:101F2000684672491822FFF7B1F8684600F07CFC59
:101F3000C0B200280ED06E4C18226E49200000F06E
:101F4000F1FE0020E075892080006B4908600020C8
:101F500000F048FF694D280000F0DFFEC0B2002805
:101F60000DD0634C18226349200000F0DBFE0020F6
:101F7000E075634860490860002000F033FF614C61
:101F8000286820602068604940186049FFF755FACA
:101F900077490860774D206877494018FA21890011
:101FA000FFF74BFA28602868C0037449086007B03F
:101FB00030BD00001C1926402C1926403C19264033
:101FC0004C1926404016264044162640F8B5040019
:101FD000002637002000C0B202280DDB444D182235
:101FE0004449280000F09EFEEE758F208000424993
:101FF0000860002000F0F6FE2000C0B2002804D1E6
:102000005F4800688707BF0F06E0E4B2012C03D1E8
:102010005C4800688707BF0F3800F2BD48162640AD
:1020200024122640C84A0010F8B504000E00200013
:10203000C0B202280EDB2E4D18222E49280000F0D7
:1020400071FE0020E875982080002B490860002070
:1020500000F0C8FE00F0EAFE05002000C0B2FFF765
:10206000B5FF032803D12000C0B200F051F8464864
:102070000168802212060A4302602000C0B20028D4
:102080000FD142480660009881B2414808430321BD
:1020900001433B4801603F480168102291430160C1
:1020A00010E0E4B2012C0DD13B480660B9B23848CB
:1020B0000843032101433348016038480168102276
:1020C00091430160280000F0B5FEF1BD40122640AA
:1020D00008002040FF00FFFF0804204008152640AC
:1020E0000000B0401000B0400000A0404C4B001079
:1020F000BC1500281C4700101416002818160028CC
:10210000260200001C1600283F420F0040420F002C
:10211000F8B504002000C0B202280DDB204D1822C3
:102120002049280000F0FEFD0020E8751E481F49E8
:102130000860002000F056FE2000C0B2002809D13F
:10214000B9B21348084303218843012101430C48D5
:1021500001600BE0E4B2012C08D1B1B20C48084395
:10216000032188430121014306480160F1BD0000BD
:102170002416002820160028E7030000281600284F
:10218000001220401012204044122640000220403D
:102190000000FA050C002040000620400C042040FE
:1021A000BC1500281C470010F1020000141600287E
:1021B00080B500F04DFE13490A68032313430B60FA
:1021C00000F04AFE01BD80B500F042FE0D490A68EC
:1021D00003239A43012313430B600A6803239A43A2
:1021E000022313430B6000F037FE01BD80B5FFF7FB
:1021F000EAFF05480168490049080160FFF7D8FF78
:1022000001BD000040C0264000C02640F8B50400D3
:102210000D00224F387800280ED01C4E18221C4981
:10222000300000F07FFD0020F075CF2040001949FC
:102230000860002000F0D6FD2000290001223A703D
:1022400080225204002399420AD301D8904207D336
:10225000134A04000D0013A003C80019694102E0ED
:102260000200002000210C4B00241C600F4D2A604E
:102270000F4A146005221A601A68D203FCD51C604C
:102280000029DDD10028DBD13C70F1BDBC15002850
:10229000104800101416002810E000E03116002845
:1022A000FFFFFF00010000FFFFFFFFFF14E000E061
:1022B00018E000E0F3B595B0170000210D0008000C
:1022C000684601801C00A4B2A408200080B28021CE
:1022D0008900884203D30125684604807E4C1C9EF9
:1022E00000F0C9FD002800D099E06846877016A864
:1022F000077801A8102100F0E7FD0198022188432A
:102300003100C9B2490002221140014301910198F4
:1023100004218843FFB2B900042211400143019116
:1023200001980821884369468978C900082211402C
:1023300001430191019810218843019001982021C7
:1023400088430190019840218843019001988021A1
:1023500001430191614F0198384015A9097809029C
:10236000F82252010A400243019201985C4901405F
:10237000019101980002000AA82149050143019139
:1023800011A8102100F0A0FD1198800A8002A4B2CB
:10239000A105890D0143119152480068002806D11A
:1023A00001980740802040013843019007E0002851
:1023B00005D0019807408020400138430190002259
:1023C00011A901A800F0F5FDEDB2002D03D068467B
:1023D000008800F045FD09A8102100F075FD09985E
:1023E00002218843F6B27100022211400143099193
:1023F00009983D490140099109983C4901408020D4
:1024000040020843099009980002000A8821490502
:1024100001430991002109A800F074FD50E000F08B
:1024200035FD0128FBD000F02BFD0128F7D10DA8C8
:10243000102100F049FD0DA80078FD2101400DA8F4
:1024400001700DA800780C2101430DA801700D98B2
:102450000002000AB021490501430D9100210DA899
:1024600000F050FD00F00CFD002829D1EDB2002D48
:1024700003D06846008800F0F3FC05A8102100F0A6
:1024800023FD059802218843F6B271000222114013
:102490000143059105981449014005910598134998
:1024A0000140802040020843059005980002000A80
:1024B0008821490501430591002105A800F022FD6E
:1024C00017B0F0BD1CB5012400949BB2D2B2C9B2C2
:1024D000C0B2FFF7EFFE13BDFF010000FFE0FFFFFA
:1024E000FF1FFFFF30070017FF00FFFFFFFF00FF88
:1024F00000B5012027490A6852080240002A01D08D
:10250000022001E00968084000BD27480168080072
:10251000C007C00F704700B5821F032A01D30120F6
:1025200002E0801F0860002000BD1CB5FF24694642
:10253000FFF7F1FFC0B2002802D02000C0B207E0D0
:102540003C480099890041580800C007C00FC0B23C
:1025500016BD00B5002801D0062801D3012002E0F5
:10256000401E0860002000BD1CB5FF246946FFF72F
:10257000F0FFC0B2002802D02000C0B208E031480D
:10258000009909014018C1680800C007C00FC0B217
:1025900016BD0000241526402B480068810808005D
:1025A000C007C00F704700004015264038B5040032
:1025B0002000C0B20E280DD3244D18222449280033
:1025C00000F0B0FB0020E875224823490860002095
:1025D00000F008FC21482100C9B2890041580A00D6
:1025E000D205D20F002A05D0E4B2A100405800075E
:1025F000000F00E0FF2032BD38B505002800C0B252
:102600000E280ED3114C18221149200000F08AFB2D
:102610000020E075892000010F490860002000F0CB
:10262000E1FB0E48EDB2A900405800098007800F79
:1026300032BD0000401626400C480068000AC0B2B7
:10264000704700000019264010002740BC150028E4
:10265000784700105B08000014160028401226403E
:1026600003480068000AC0B2704700001010204004
:102670000810204038B504000B2C0ED3124D182240
:102680001249280000F04EFB0020E875CE204000E3
:102690000F490860002000F0A5FB0A48A10040583F
:1026A0004007400F010009B2042907D10448A100E6
:1026B0004058C106C90E80204000084300B232BD18
:1026C0000001264000122640BC150028C447001017
:1026D000141600281E4909688A03920B0260090E2D
:1026E0000A00D207D20FC271174909680A00D20442
:1026F000D20C82800A00120CD2B20281090CC9B23B
:102700004181264909680F220B00134003730B090E
:102710001A4042730A0AD204D20CC281090F8907F7
:10272000890F0174094909680A0A5207520F827118
:102730000A00120CD205D20D4282890F0A00D2077C
:10274000D20F027570470000341526403C15264014
:10275000301526401CB50C006946FFF7DCFE010071
:10276000C9B2002901D0C0B217E00D480099890014
:1027700040584106490E21601F21020A0A4062604A
:10278000020C1140A160010F8907890F6173C00E0F
:102790000100C907C90F2173002016BD3815264056
:1027A000001626401CB50C006946FFF7D2FE01005A
:1027B000C9B2002901D0C0B233E01A48009909011A
:1027C0004158CAB222601F220B0A134063600B0CEF
:1027D0001A40A260090F8907890F21730099090126
:1027E00041184A68D10F61730721130F0B40002B6A
:1027F00001D0012300E00023A3731202120A226118
:10280000009A120180188068C20F2275020E130010
:10281000DB07DB0F63750200A275000C0140E17558
:10282000002016BD0019264080B5010086481822F8
:10283000FEF72CFC012085490870002002BD000035
:1028400000B583490968C90F002907D07F49097875
:10285000002907D100210160032000BD0021016093
:102860000320FAE77849096801600020F5E70000D5
:1028700010B50400FFF73CFE002803D100202060C3
:1028800003200BE071480078002804D06E4880686F
:102890002060002002E000202060032010BD00B571
:1028A0006A490978002904D0674949680160002015
:1028B00002E000210160032000BD000000B5654971
:1028C0000968C90F002907D060490978002907D194
:1028D00000210160032000BD002101600320FAE710
:1028E0005949C96801600020F5E7000000B55A4960
:1028F0000968C90F002907D054490978002907D170
:1029000000210160032000BD002101600320FAE7DF
:102910004D49096901600020F5E7000010B5040089
:10292000FFF73AFE002803D10020206003200BE0CF
:1029300046480078002804D04348406920600020C1
:1029400002E000202060032010BD000010B50C0044
:10295000C0B2FFF78FFE00280CD0401E0ED0401EE4
:1029600010D087214900401A10D0401E12D0C01E3E
:1029700014D017E02000FFF763FF16E02000FFF7F8
:102980008EFF12E02000FFF773FF0EE02000FFF73C
:1029900095FF0AE02000FFF7C1FF06E02000FFF7E7
:1029A000A5FF02E000202060032010BD80B50100DB
:1029B0000020FFF7CBFF02BD80B50722D2B28242D2
:1029C00003D200200860012003E0401CC0B2FFF7E2
:1029D000BDFF02BD30B587B004006846FFF7E6FFD3
:1029E0000100C9B2002903D000212160C0B228E053
:1029F00001A8FFF76FFE01AD287C022803D10098E3
:102A0000206000201DE07B480068C00F002808D02F
:102A1000FFF77BFDC0B2002807D100202060032013
:102A20000FE00098206000200BE0009801994843D7
:102A3000A988FEF702FDE979491CFEF7FEFC20603B
:102A4000002007B030BD0000A41500283016002873
:102A500018152640081526400C152640F0B58BB0F9
:102A600004000D0069462000C0B2FFF7A5FF010079
:102A7000C9B2002903D000212960C0B2B7E020000C
:102A8000C0B2052848D307A92000C0B2401CFFF7F8
:102A900061FEC0B200280DD0824E1822824930005B
:102AA00000F040F90020F07580488149086000205E
:102AB00000F098F97F482100C9B289004018143805
:102AC0000068C00F002807D007A8407B022807D164
:102AD0000098286000208AE000982860002086E0A6
:102AE000E4B2641C2000FFF720FD0100C9B20029F8
:102AF00002D0C0B2FF2803D100202860032076E076
:102B00000098079948430899FEF797FC0999FEF742
:102B100094FC286000206AE001A92000C0B2401C9B
:102B2000FFF740FEC0B200280DD05E4E18225E496D
:102B3000300000F0F7F80020F0755F485C4908604D
:102B4000002000F04FF95D482100C9B2090140584A
:102B5000C00F002807D001AE307B022807D10098B3
:102B60002860002043E00098286000203FE0E4B2A5
:102B7000641C2000FFF7F8FC0100C9B2002902D054
:102B8000C0B2FF2803D10020286003202FE0707B13
:102B9000012821D100980021019E00273F06320A1A
:102BA00017433606059A002392197B4100F094FAE8
:102BB00006000F0002980021039A002300F08CFA0F
:102BC00002000B0030003900FEF7B1FD000E0A02D2
:102BD0001043090E286009E00098019948430299C2
:102BE000FEF72BFC0399FEF728FC286000200BB0B1
:102BF000F0BD00003015264010B50723421E04002A
:102C0000E4B2002C03D10800FFF7E4FE0CE014004E
:102C1000DBB2E4B2A34204D31000C0B2FFF71EFF40
:102C200002E0C0B2FFF792FE10BD38B504000D00FF
:102C30002000C0B2FFF7BAFC0100C9B2FF2904D1DD
:102C40002800FFF7FDFDC0B21BE06946C0B2FFF7E8
:102C5000D3FF0100C9B2002903D000212960C0B20E
:102C60000FE02000C0B2FFF7C7FCC0B2002805D0BB
:102C700002280BD006D303280CD00FE00098286060
:102C8000002032BD009840082860F9E700988008CD
:102C90002860F5E70098C0082860F1E70020286068
:102CA0000320EEE7BC150028C447001063090000AC
:102CB00014160028001626407F090000001926403F
:102CC0001CB5040069460020FFF7AFFF0100C9B240
:102CD000002903D000212160C0B208E0FFF7ACFC5E
:102CE00001000098491CFEF7A8FB2060002016BDDB
:102CF0001CB504006846FFF7E3FF0100C9B20029D4
:102D000001D0C0B208E0FFF7ABFC01000098491CFD
:102D1000FEF793FB2060002016BD80B5FFF7E8FFAB
:102D200002BD000071B58B0709D0521E28D30B7865
:102D30000370401C1B421FD0491C8B07F5D1121F8A
:102D40003ED3274CE50140C9331BB3432B4209D185
:102D5000830716D140C0121F32D340C9331BB3437F
:102D60002B42F7D0121DFF231E4205D00670401CD7
:102D7000360A521E1E42F9D11100002200F09AF8C4
:102D800071BDDB4216D0401E4670360A4680360CB6
:102D90000671001D121F06D340C9331BB3432B42DB
:102DA000F2D0401CDEE7401C0AE040C9331BB343AD
:102DB0002B42D7D10680360C4680001D121FF4D25C
:102DC000121D0BD00B780370521E07D0401C491CFB
:102DD0001B42F7D10370401C521EFBD171BD000095
:102DE0000101010100B501BEFEE780B50C4A0D49A5
:102DF0000B68934210D00A6002684A6042688A6099
:102E00008268CA60C2680A6102694A6142698A616D
:102E10008269CA61C069086200F077F901BD0000EB
:102E2000F3F2F1F08015002870477047EFF310803F
:102E300072B6704780F310887047000000000000F1
:102E4000801C800803D0401C801EFCD100BF70474E
:102E5000EFF3108072B6704780F31088704700005F
:102E60000D490A680D4B134080B200050C4A024020
:102E70001A430A60704708480068C00FC0B2704724
:102E8000084801680800C007C00F7047054800687F
:102E9000C00FC0B270470000C0102640FFFF0FC037
:102EA0000000F03FC41026401206130A1A43130C08
:102EB0001A4300BF094205D0830707D00270401CA7
:102EC000491EF9D1704700000022FFE713001039B6
:102ED00006D330B41400150010393CC0FCD230BC0D
:102EE000490700D30CC000D504C0890002D302807A
:102EF000801C002900D5027070470000C069C00F17
:102F0000C0B27047F8B502000E00002A01D10520BA
:102F10004EE00F2069490B681B0A0340002B01D1CA
:102F2000002007E00968090A08400E2801D10120A5
:102F300000E00220624940010F18624C624D2800F7
:102F400011001022FEF7BCF8286801218843286090
:102F500010212800FFF769FF5C4B2A00012138008F
:102F600000F0EBF8002804D0012021E0641E002CC2
:102F700015D03800FFF7C2FF0028F7D1002E08D087
:102F800010212800FFF750FF300029001022FEF723
:102F900097F800F079F8012803D1032008E0022017
:102FA00006E000F071F8002801D1002000E00420C4
:102FB000F2BDFEB503001600002B03D0019101986D
:102FC000002801D105205DE00F203C490A68120A63
:102FD0000240002A01D1002007E00968090A0840E0
:102FE0000E2801D1012000E00220354940010818D7
:102FF0000090374C344D280019001022FEF760F87D
:10300000344F380001991022FEF75AF82868012140
:1030100088432860386801218843386010212800DF
:10302000FFF703FF10213800FFF7FFFE3B002A00E7
:103030000121009800F081F8002804D0012021E04F
:10304000641E002C15D00098FFF758FF0028F7D118
:10305000002E08D010212800FFF7E6FE30002900DE
:103060001022FEF72DF800F00FF8012803D10320FD
:1030700008E0022006E000F007F8002801D1002057
:1030800000E00420FEBD000010B50F4C1021200010
:10309000FFF7CAFE2068000F0007A021090688423A
:1030A00001D1002009E02068000F0007F021090687
:1030B000884201D1012000E0022010BD0000204024
:1030C00000002240FFFFFF0FE01500281016002827
:1030D000FFFFFF000016002830B4434351435D1842
:1030E000010C0C00130C5C432D1980B2434392B2C7
:1030F00051430024C918644124040B04090C091924
:103100005043C018694130BC704700B5FEE700006D
:10311000174A1268120C120489B211438160704779
:10312000C16070470161704700B50068C00F00289A
:1031300001D1104800E0002000BDF8B507000C00E8
:1031400015001E003800FFF7EFFF00280DD1290001
:103150003800FFF7E5FF31003800FFF7E3FF2100FB
:103160003800FFF7D5FF002000E00248F2BD000064
:10317000B44B001001008A00D021890040587047EC
:10318000C122920080180268FF239A43C9B21143FA
:1031900001607047C22189004058C005C00D7047CA
:1031A0009022920081507047822189004058C005CA
:1031B000C00D7047E0210901405870470B4A81500B
:1031C00070470B4940587047FC2212018150FC2186
:1031D000090140587047074A8150704705494058D7
:1031E000704705494058704700000000C80F0000B4
:1031F000CC0F0000880F00008C0F0000F822120195
:103200008150F82109014058704700B50068800BD3
:103210008007800F002801D1802000E0402000BD01
:1032200000B5C02189004058C006C00E082801D250
:10323000012000E00020C0B200BD00B5802189005F
:103240004058C006C00E082801D2012000E000202E
:10325000C0B200BD80B500F0C6FB02BD80B500F075
:10326000F3FB02BDF4B588B0C14AC24B1B68C24C27
:103270002468C24D2D68C24E36680696C14E366827
:103280000596C14E36680496C04E36680396C04E09
:1032900036680296BF4E36680196BF4E3668009675
:1032A000002800D161E1002900D15EE10A68022A0C
:1032B00005D126228A5C002A01D1002201E04A6859
:1032C000521E24268E5D002E01D0012600E000262D
:1032D000B24F1F4033048026760233403B43B04E4A
:1032E0001E4007960F26079B0F27BB4332401A4309
:1032F000AC4B1A408027BF04174307600A78920737
:10330000920F23401406C022920422401A43026402
:1033100025228A5C002A01D0012200E000224023FD
:103320009D43920140231A402A43CB7E002B01D0BB
:10333000012300E00023B04C14409A028023DB00FC
:103340001A4022434B7E002B01D0012300E00023D2
:10335000AA4C14401D0280225200154025438A7E4B
:10336000002A01D0012400E0002480229200A44B16
:103370001D40640214402C438D6B6D1E2E40A14DE8
:1033800025403604F024240334402C430D696D1E7F
:103390006D076D0F0726B443254301244E6926406F
:1033A0001027BD43360110273E402E434D696D085E
:1033B00025402027BE436D0120273D4035438564CD
:1033C0000D7B002D01D0260000E000268B4D069FCE
:1033D0002F40BC463702802676003740664637438A
:1033E0000E7E002E01D0260000E000263B40760233
:1033F00032401A431F238E68761E1E401F27BA4391
:103400001643C022920086500A7FD7B2059AFF2643
:10341000B243174320228A5CD6B27B4A3A40370433
:10342000FF2636043E401643C422920086502722CF
:103430008A5C002A01D0260000E00026049A2A4077
:10344000360280277F003E4016430A69521E52070B
:10345000520F0727BE4332434E6926401027BA4316
:10346000360110273E4016434A6952082240202761
:10347000BE43520120273A40324342640A7B002A6D
:1034800001D0220000E00022039E35401602802277
:10349000520016402E438D686D1E1A002A401F23CD
:1034A0009E4332430B68012B01D1260000E0002629
:1034B00080235B02394D2A4036041E401643802289
:1034C000920086503C228A5CD2B2029EFF27BE4305
:1034D0003243C126B600825128228A5C002A01D0DC
:1034E000260000E00026019F484A3A4077068026E1
:1034F000B60437401743CA6A012A01D1260000E00A
:103500000026434A3A40360680277F043E40164351
:103510004A6B012A00D00024089A35402404234035
:103520002B4330240C5DE4B2FF25AB431C43046500
:103530004423CB5CDBB2009CFF25AC4323438124B6
:10354000A40003518B6C334C0351096C324BC150B6
:10355000002A09D00020506010609060D060106296
:10356000D06210632D4850630022100009B0F0BDF6
:103570000160AA00B84B0010BC4B0010C04B0010FB
:10358000C44B0010C84B0010CC4B0010D04B0010A7
:10359000D44B0010D84B0010DC4B0010FFFFFEFF97
:1035A000FF3FFFFFFFFFFFFC1D490160C0218903B2
:1035B000016400218164FF220832C0239B00C250B5
:1035C000C1239B00C150C4239B00C1504164802390
:1035D0009B00C2508122920081500165114A8150A6
:1035E000114A81500C4A81500A4A81500F4A815039
:1035F000164A815070470000FFFBFFFFFFFEFFFFF0
:10360000FFFDFFFFFFFFF0FFFFFF00FFFFFFFFFDDC
:10361000FFFFFFFE880F0000C80F0000EFCDAB00DA
:103620000F000003C80E0000880E0000080F000005
:1036300000B508694A69904202D34969401A03E01B
:10364000CA6880184969401A00BD0000480F000090
:1036500070B504000D002000FFF7ACFD00073AD55F
:103660002000FFF7AEFDC8218900014000290BD0E2
:103670006868084368602000FFF7A6FD286B0028F3
:1036800002D01020296B8847802636012000FFF7E2
:1036900098FD3040002806D06868304368603100EB
:1036A0002000FFF791FD2000FFF78BFDC00712D52A
:1036B000E869002804D02900200000F048F806E05E
:1036C000A868002803D02900200000F08CF8012110
:1036D0002000FFF779FD2000FFF76CFD400735D58E
:1036E0002000FFF77EFDA021C900014000290BD07A
:1036F0002868084328602000FFF780FD286B002819
:1037000002D02020296B88472000FFF76AFDC00700
:1037100007D52900200000F0B4F801212000FFF7B0
:103720006DFD2000FFF75DFD80050FD50021200015
:10373000FFF751FD28680121884328600020E862D6
:10374000286B002802D00220296B884770BDF8B58D
:1037500007000C003800FFF758FD4508E269A16931
:103760003800FFF777FD0600206A80192062E069C3
:10377000801BE061E069002821D1A06800280FD0FB
:10378000E068A84202D36D1E290001E0E168491EED
:103790003800FFF7F5FC01213800FFF70FFD03E0CB
:1037A00000213800FFF70AFD60680121884360604E
:1037B000206B002816D00420216B884712E0A069F6
:1037C00000903800FFF72CFD002800D1760000980B
:1037D0008019A061E069A84204D2E169491E38005D
:1037E000FFF7CEFCF1BDF1B582B00F000298FFF7F4
:1037F0000CFD400800900298FFF7CCFC05003C69E6
:103800000FE0B868610046520AE00298FFF7B4FC86
:1038100006000298FFF704FD0028F2D0B8680655AC
:103820006D1E002D1AD0641CF868844200D100245B
:1038300078698442E9D1386B002802D00820396BBE
:10384000884778698442E0D100210298FFF7B6FCEE
:10385000002C01D0641E01E0FC68641E3C61FC6821
:1038600039000298FFF7E4FE211A0098814207D23E
:10387000002901D0491E00E000210298FFF780FCDA
:10388000F7BDF8B507000C003800FFF7BEFC0600D6
:103890003800FFF7D2FC0500A06A022814D3606A42
:1038A0000090A06AE062A26A521E616A3800FFF7C7
:1038B000D5FCA16A091AA1622900C9B2002900D168
:1038C00040000099081860623800FFF76DFC8642DE
:1038D00030D0A06A01282DD10020A062EDB2002DC9
:1038E00002D0606A057801E0606A0588FFF7B0FAE7
:1038F000060029003800FFF753FC8025AD002900A1
:103900003800FFF77BFC3000FFF7A6FA3800FFF71E
:1039100065FC01218843054329003800FFF75BFC63
:103920002068022101432160206B002802D0012081
:10393000216B8847F1BDD021890040587047C221D2
:1039400089004058C005C00D7047902292008150F8
:103950007047822189004058C005C00D704700B5EE
:103960000068800B8007800F002801D1802000E0D4
:10397000402000BD00B5C02189004058C006C00EDF
:10398000082801D2012000E00020C0B200BD00B52F
:10399000802189004058C006C00E082801D20120AD
:1039A00000E00020C0B200BDF8B504000D00160014
:1039B0002000FFF7DFFF002809D02F000025B542C7
:1039C00010D22000FFF7B7FF78556D1CF7E72F00E6
:1039D000002505E02000FFF7AEFF690078526D1C5E
:1039E000B542F7D3F1BDF8B507000D001600380059
:1039F000FFF7A5FF0400A64200D2340029002200F0
:103A00003800FFF7D1FF2000F2BDF8B504000D002B
:103A100016002000FFF7BBFF002809D02F0000256B
:103A2000B54210D2795D2000FFF78FFF6D1CF7E7DC
:103A30002F00002505E06800395A2000FFF785FFB8
:103A40006D1CB542F7D3F1BDF8B507000D001600A7
:103A50003800FFF784FF04003800FFF77AFF241ACC
:103A6000A64200D23400290022003800FFF7CDFF23
:103A70002000F2BD00B5010009B2002905D40121E2
:103A8000C006C00E8140AE48016000BD82218900A1
:103A90004058C005C00D7047822189004158080078
:103AA0000004C00F704738B504002000FFF7EEFF98
:103AB00005002000FFF7F0FF2818002801D10120A1
:103AC00000E00020C0B232BDC94A81507047016891
:103AD000802212060A430260704780B5FFF7B4FFE8
:103AE00002BD80B5FFF7DFFF02BD1163704700B56F
:103AF0000100C9B20E2901D3012009E0CA49C0B2B0
:103B0000800008180168802212060A430260002023
:103B100000BD00B5022801D301200FE00B00DBB28D
:103B2000042B01DB012009E0C04B80001818C9B24A
:103B3000405C824201D3012000E0002000BDF8B5C6
:103B400004001F00022C01D3012036E015000E00F6
:103B50002A003100C9B22000FFF7DBFF012801D1A4
:103B600001202AE006983100C9B2022928D180211B
:103B700049028F4222D2202820D2BA4962038A18F1
:103B8000AB00D218C0235B01D2181668B64B334085
:103B90003E02B64F37401F43176062038918AA00E0
:103BA0008918C022520189180A68F8239A43C00074
:103BB000F823034013430B600020F2BD0120FCE713
:103BC000F6B2032E24D1802149048F421ED2202830
:103BD0001CD2A44962038A18AB00D218E0235B010F
:103BE000D2181368DBB23E021E43166062038918C6
:103BF000AA008918E022520189180A68F8239A431A
:103C0000C000F823034013430B60D5E70120D4E73D
:103C10000120D2E700B20012C0B27047F8B505002B
:103C20000F001600280000B2FFF7F4FF0400200088
:103C3000C0B2022801D301202CE032003900C9B201
:103C40002000C0B2FFF765FF012801D1012021E06B
:103C500084482100C9B2490341182A00D2B2920017
:103C60008918C02212018A5896491140FFB23B02BE
:103C7000C02292001A400A43FF218A43F1B2114345
:103C8000E4B262038018EDB2AA008018C0221201CB
:103C900081500020F2BD70B50400022C01D3012038
:103CA00028E015000E002A003100C9B22000FFF7FD
:103CB00030FF012801D101201CE06A48610341580E
:103CC000802212060A43C02189041143FF221204F4
:103CD0000A437C4B1340F6B23202C02189001140E6
:103CE0001943FF229143EAB20A4361034250610340
:103CF0004058002070BD38B5FDF76AFD62B67249C4
:103D00000020FEF791F971490120FEF78DF900F0CE
:103D100019F8A84C2000FFF747FCA74D2A00A74937
:103D20002000FFF79FFA2A00A5492000FFF7DDFEDB
:103D30002000FFF7CCFE00F0CBF8002032BD0000E1
:103D400080E200E0F8B590B03421002203AC2000FE
:103D5000FFF7AAF8082604961A2503AC280020725B
:103D6000984F03AA0021380000F0DDF906200490E6
:103D7000257203AA0121380000F0D5F90220FFF7CF
:103D8000B6FEFF241034002203212000FFF746FF77
:103D90002000FFF73FFF1A21009155230022032145
:103DA000C0B2FFF7CCFE854846602000FFF732FF27
:103DB00000220321C0B2FFF76EFF01AC8D202080EE
:103DC000022060800120207101A800F0EBF97E49FB
:103DD0000020205E00F005FA11B0F0BD80B57649F4
:103DE0007448FFF735FC0220FFF744FE01BD0000D8
:103DF000C80F000080B501280AD0022809D0042885
:103E000008D008280CD010280BD020280AD00AE0AF
:103E100009E008E06948016C6648FFF755FE02E0DA
:103E200001E000E0FFE701BD40122640844B001096
:103E30000EB430B5010003AA644D280000F0E4F987
:103E40005C4C2000FFF74DFE0128F9D12800FDF75A
:103E500009F9020029002000FFF73FFE029830BC5C
:103E600004B0004700000440FF0000FF00FFFF0017
:103E700018B599B0002411E037316A462300DBB24F
:103E8000D154641C09E00107090F0A29F4D230312A
:103E90006A462300DBB2D154641C00090028F2D129
:103EA0002000C0B200280BD0641E68462100C9B2B1
:103EB000415C47A0FFF7BCFF2000C0B20028EFD153
:103EC0001AB010BDFFFCFFFF000008100000281012
:103ED000F0B585B03F48FFF7ABFF3F48FFF7A8FFBD
:103EE0003E4803683E4801681A0F0F201C0E04402C
:103EF0001B0CDBB20493022A02D30A0E02928EB28A
:103F0000384909688FB2B82149050A68120C039232
:103F10000A68120B030013406A4653710968090AC4
:103F20000840694608713048056830480068400715
:103F3000400F012803D12E48FFF77AFF0AE002283C
:103F400003D12C48FFF774FF04E0032802D12A486C
:103F5000FFF76EFF0096029B049A21002748FFF7A7
:103F600067FF2748FFF764FF3800FFF781FF25A4AC
:103F70002000FFF75DFF2448FFF75AFF0398FFF783
:103F800077FF2000FFF754FF6846027968464179C1
:103F90001E48FFF74DFF1E48FFF74AFF2800FFF7B6
:103FA00067FF2000FFF744FF1A48FFF741FF05B005
:103FB000F0BD000000006740481500287C14002870
:103FC000F53D001080043140DD3D0010C81400288C
:103FD000256300005C480010504A001004200017C0
:103FE000182000170C000017F87D0017C42020408F
:103FF0006C490010E84900100C4A0010F448001009
:10400000644B00100A0D00001C4B00109849001072
:10401000344B0010A848001070B55F4BC018C009A1
:1040200000015E4BC31804290CD21F251C68CE006A
:104030002800B0408443D2B21540C80085402543D3
:104040001D600CE0FC311F255C68CE002800B040EC
:104050008443D2B21540C800854025435D6070BDE1
:1040600000B5002A03D101228A40426002E0012209
:104070008A40826000BD30B403008C000F25596C6B
:104080002800A04081431540A5400D435D6430BC2D
:10409000704730B4030001259C6C2800884084439D
:1040A00015408D4025439D6430BC704730B40300FB
:1040B0000125DC6C28008840844315408D40254351
:1040C000DD6430BC704730B403004C00103403256D
:1040D000D96C2800A04081431540A5400D43DD6404
:1040E00030BC7047426901228A4042614069704792
:1040F00030B4030001259C692800884084431540A2
:104100008D4025439D6130BC704730B403004C00A6
:104110000325196C2800A04081431540A5400D439C
:104120001D6430BC7047F8B504000025002C30D069
:104130001600002E2DD00F00326839002000FFF746
:104140008FFF327A39002000FFF766FF726939006D
:104150002000FFF79EFFB26939002000FFF7A6FF9D
:10416000F26939002000FFF7AEFF726839002000C5
:10417000FFF781FFF26839002000FFF7C6FF390022
:104180002000FFF7AFFF326939002000FFF7B0FFD2
:1041900000E0034D2800F2BD0000CFBF000030401A
:1041A00001005A0030B5010000221000134B1B68BB
:1041B000002914D08C786407640F0725AB431C4397
:1041C0000B79002B01D00122FFE763005B08D207C7
:1041D0001A430B4B0024095F89005A5000E006483F
:1041E00030BD00B5074A1368002B03D0126800B237
:1041F0008000115000BD000001005600E04B00108F
:10420000008020407814002816B582B00400019484
:104210000020009003AB0A0001A907487844183039
:10422000FBF732FF0021019A1170002801D4019898
:10423000001B04B010BD00BFDBCDFFFF00B50100C7
:1042400009B2002905D40121C006C00E81408F4863
:10425000016000BDF0B5020012B2002A18D4182285
:104260008B4B040024B2A408A4001C59FF250600AF
:10427000F6001640B540AC438901C9B20500ED0017
:104280002A409140214300B28008800019501CE070
:104290000F22804C182503001BB21340083B9B08DB
:1042A0009B00060036B23240083A92089200A258AB
:1042B000FF260700FF002F40BE40B2438901C9B26C
:1042C000C0000540A9401143E150F0BD80B500F0A9
:1042D00012F87148714902680A4002607048026829
:1042E0000A4002606F4802681140016000F092F8D5
:1042F00000F0A9F801BDFEB568466B490CC90CC0B9
:1043000008390838002630000AE06A460300DBB2AC
:10431000DB00D2185268521C114000290ED1401CFB
:104320000100C9B200290AD107216A460300DBB2A5
:10433000DB00D2580A40002AE7D0FEE7FEE75B4CDC
:10434000072021680140002900D0FEE7584F396856
:10435000491C0840002800D0FEE7350024E06846EC
:104360002900C9B2C9004018416868462A00D2B283
:10437000D200805800F044F815E030000028EED05C
:104380002168491E68462A00D2B2D200805800F047
:1043900037F868462900C9B2C90040184168386832
:1043A000401C00F02DF86D1C2800C0B2002826D15A
:1043B00068462900C9B2C9004058002814D02068B6
:1043C00069462A00D2B2D200895888420AD3684688
:1043D0002900C9B2C900401840682168884201D349
:1043E0000120CBE73000C9E768462900C9B2C900FF
:1043F0004018406821688842BFD30120BEE7F7BD5E
:1044000080B50022002302E00CC008380830884242
:10441000FAD301BD30B5274880082749274A002331
:1044200008E01C00E4B2A40014591D00EDB2AD0078
:104430004C515B1C1C000500E4B2EDB2AC42F0D361
:104440001F48016030BD10B5102311211A48002209
:104450001C00E4B2A4001459DBB29B00C4500B0052
:10446000DBB29B00D258C9B2890042500121002022
:10447000FFF7F0FE00210120FFF7ECFE0020FFF720
:10448000DDFE0120FFF7DAFE10BD000000E100E0D4
:1044900000E400E01CED00E000132040FFFFF7FF08
:1044A00080132040A01320408C4B0010A846001021
:1044B000AC4600108000000000170028000000102B
:1044C00008ED00E000B5010009B2002905D4012182
:1044D000C006C00E81404948016000BD80B5484813
:1044E000006848480068C10F002905D0464980058A
:1044F000800D8000085880470020FFF7E3FF01BDD2
:1045000080B54248006842480068C10F002905D0C4
:104510003D498005800D8000085880470120FFF745
:10452000D1FF01BD80B53B4800683B480068C10F22
:10453000002905D034498005800D80000858804747
:104540000220FFF7BFFF01BD80B534480068344842
:104550000068C10F002905D02B498005800D80001F
:10456000085880470320FFF7ADFF01BD80B52D48F7
:1045700000682D480068C10F002905D02249800538
:10458000800D8000085880470420FFF79BFF01BD85
:1045900080B52648006826480068C10F002905D06C
:1045A00019498005800D8000085880470520FFF7D5
:1045B00089FF01BD80B51F4800681F480068C10F12
:1045C000002905D010498005800D800008588047DB
:1045D0000620FFF777FF01BD80B51848006818482E
:1045E0000068C10F002905D007498005800D8000B3
:1045F000085880470720FFF765FF01BD80E200E013
:10460000944B00100011204000080028984B001027
:10461000041120409C4B001008112040A04B0010BA
:104620000C112040A44B001010112040A84B00108A
:1046300014112040AC4B001018112040B04B00105A
:104640001C11204072B6104810490860BFF34F8F0C
:104650000120C0040E490A6802430A600D490A6835
:1046600002430A600C490A6802430A6000200021E4
:104670000D4A03C26A45FCD1084FB847084FB847F6
:10468000084FB847FEE700000000001008ED00E00A
:104690000013204080132040A0132040CD42001082
:1046A000C1490010014B001000FF0128FFFF012845
:1046B000686A6C747A4C00007072696E74665F731D
:1046C0003A20256E20646973616C6C6F77656400B5
:1046D0007072696E74663A2062616420256E206192
:1046E0007267756D656E74007072696E74665F7363
:1046F0003A2062616420257320617267756D656E72
:1047000074000000000000006E616E004E414E001B
:10471000696E6600494E460030000000433A5C5422
:1047200032475F53616D706C655F44726976657284
:104730005F4C6962726172795F382E312E305C7421
:10474000766969633264366D5C7372635C73797326
:1047500074656D5C7265765F635C73797374656DA7
:104760005F74766969633264366D5F636D30706C57
:1047700075732E6300000000433A5C5432475F5368
:10478000616D706C655F4472697665725F4C6962D9
:10479000726172795F382E312E305C74766969638C
:1047A0003264366D5C7372635C64726976657273D1
:1047B0005C737973636C6B5C63795F737973636C3F
:1047C0006B2E6800433A5C5432475F53616D706CE6
:1047D000655F4472697665725F4C69627261727975
:1047E0005F382E312E305C74766969633264366DC1
:1047F0005C7372635C647269766572735C737973FF
:10480000636C6B5C63795F737973636C6B2E6300AD
:10481000433A5C5432475F53616D706C655F44721C
:10482000697665725F4C6962726172795F382E31A8
:104830002E305C636F6D6D6F6E5C7372635C64725F
:1048400069766572735C7379737469636B5C6379A1
:104850005F7379737469636B2E6300006C6F673AE2
:104860000A0A2D2D2D2D2D2D2D2D2D2D2D2D2D2DBE
:104870002D2D2D2D2D2D2D2D2D204B49545F5432B6
:10488000475F432D32442D364D5F4C495445202D12
:104890002D2D2D2D2D2D2D2D2D2D2D2D2D2D2D2D48
:1048A0002D2D2D2D0A0A0D006C6F673A2D2D2D2D03
:1048B0002D2D2D2D2D2D2D2D2D2D2D2D2D2D2D2D28
:1048C0002D2D2D2D2D2D2D2D2D2D2D2D2D2D2D2D18
:1048D0002D2D2D2D2D2D2D2D2D2D2D2D2D2D2D2D08
:1048E0002D2D2D2D2D2D2D2D2D2D2D2D2D2D0A0A3E
:1048F0000A0A0D006C6F673A2046425F4D414A4FED
:10490000522E46425F4D494E4F522E46425F504115
:104910005443482E46425F4255494C44203D202591
:10492000642E25642E25642E25640A0D00000000E7
:1049300070B40123002413E00168001D194202D065
:104940004D466918491E0C60091D121F042AFAD22F
:104950000D00960701D50C80AD1C1A4000D02C70BC
:104960000268001D002AE7D170BC70476C6F673A7F
:104970002053494C49434F4E20495320494E20561D
:10498000495247494E20535441544520534F5254A5
:10499000204D4F44450A0D006C6F673A2053494C37
:1049A00049434F4E204D414A4F522E4D494E4F5292
:1049B00020526576203D2025642E25640A0D0000D6
:1049C00010B5074979441831064C7C44163404E08C
:1049D000081D0A68891888470100A142F8D110BD56
:1049E000500000006C0000006C6F673A2053494C87
:1049F00049434F4E20495320494E204E4F524D417E
:104A00004C2053544154450A0D0000006C6F673A26
:104A10002053494C49434F4E20495320494E20537F
:104A200045435552452053544154450A0D0000005A
:104A300001FFFFFF6C010000C81400280000000007
:104A400083C5FFFFCA010000A20000000008002883
:104A50006C6F673A2D2D2D2D2D204D43552044454B
:104A60005441494C53202D2D2D2D2D0A0D000000B1
:104A700004207146084202D0EFF3098001E0EFF311
:104A8000088000B50149884700BD0000EB2D0010EB
:104A900000F00EF8002801D0FFF792FF00BF00BF22
:104AA000002000BF00BFFFF726F900F003F8000068
:104AB0000020704780B500F001F801BD0746384678
:104AC000FCF77CFEFBE70000000600010007010682
:104AD00002060302000200020003000300040005B6
:104AE0000008000904207146084201D0EFF3098054
:104AF000EFF3088000B50149884700BD794B0010ED
:104B00000548014603B4684680F3098800BF00BF2A
:104B100000BF00BFFFF7BCFFA5EDF5FE6C6F673A65
:104B20002053494C49434F4E5F4944203D20307843
:104B3000000000006C6F673A20544F43325F464CD0
:104B4000414753203D2030780000000000127A00D9
:104B5000000000000024F40000800000008000003D
:104B6000008000006C6F673A2046414D494C595F08
:104B70004944203D203078008169891E0978C9B2F6
:104B800001607047091007030304000700080028AC
:104B9000FFFF0128000000000000000000000000EE
:104BA0000000000000000000000000000000000005
:104BB00000000000000000000000000000000000F5
:104BC00000000000000000000000000000000000E5
:104BD00000000000000000000000000000000000D5
:104BE00000000000FEE70000FEE70000FEE7000016
:104BF000FEE70000FEE70000FEE70000FEE7000021
:104C0000FEE70000FEE70000FEE70000FEE781FF90
:104C100081FF81FF81FF81FF81FF81FF81FF81FF94
:104C200081FF81FF81FF81FF81FF81FF81FF81FF84
:104C300081FF81FF81FF81FF81FF81FF81FF81FF74
:104C4000EFFF0300080028FC000001FD000008F948
:0F4C5000000002D10001610BFA000321020000F5
:0400000510004B019B
:00000001FF
