:020000041000EA
:4000000000040000000000000000000001000000F000000000000000000000000000000010B500F025FB04001448016803220A430260200080F3108810BD10B500F018FB99
:4000400004000E4801680322914301220A43026001680322914302220A430260200080F3108810BD80B5FFF7E8FF05480168490049080160FFF7D4FF01BD000040C0264015
:4000800000C026400000000000000000000000000000000000000000000000000000000000000000000000000000000000000000000000000000000000000000000000001A
:4000C0000000000000000000000000000000000000000000000000000000000000000000000000000000000000000000000000000000000000000000000000000000000000
:4001000000800008CB010010F8B505000C001700069E009A2100280000F03AF83200D2B22100280000F006F83A002100280000F03EF8F1BDF1B50098614BC018C3091020DB
:400140005843604C0419042910D20D001F262768BC46EF003000B840674687431000C0B20640E80086403E43266010E00800051F1F266768BC46EF003000B840674687435E
:400180001000C0B20640E80086403E436660F1BD00B5002A03D101238B40436002E001238B40836000BD01228A40C260704770B40B009D000F26446C3100A9408C43164068
:4001C000AE402643466470BC7047F8B5002403203D490860FFF746FF3C4DAA27FF052F603B4E002000900123062202213000FFF78BFF3848286000F00DF8374800F030FA23
:4002000002213000FFF7CFFF200080B238432860641CF2E7F8B586B02C4C304820603048019030482060019800F048FA05002E482060002D01D0012D02D1F42000F045FA9D
:40024000286805900599280000F02FFA0390FE20400028180068000C02902448206003980299884202D0F32000F02FFA8220400028180068083000901D4820600099280061
:4002800000F00AFA002802D1F22000F01EFA802676053768F019049016482060009B049A3900300000F0ECF9002804D112482060F12000F00AFAAA20C005206007B0F0BD34
:4002C0000000CFBF0000304000E100E00C002240000431400060065520BCBE00F0800066007C0017F1800066F2800066F3800066F4800066F5800066F68000660000000085
:4003000000000000000000000000000000000000000000000000000000000000000000000000000000000000000000000000000000000000000000000000000000000000BD
:40034000000000000000000000000000000000000000000000000000000000000000000000000000000000000000000000000000000000000000000000000000000000007D
:40038000000000000000000000000000000000000000000000000000000000000000000000000000000000000000000000000000000000000000000000000000000000003D
:4003C00000000000000000000000000000000000000000000000000000000000000000000000000000000000000000000000000000000000000000000000000000000000FD
:40040000B05868D316EE97B1740CE66F34FFC3EDF69434F777B25B45CF37AEC96F2D03833DB30DC93CFFB2052A35EF5E78542BF6FC3FA9DF7BE3C1D472922DC08AA11264BF
:40044000455FAF52C31B70CF062606AEEA2DBDEE6F09DD9DDC925CA333EDE7D2002DCF82CF0804BDAB59CA128CC4A9F9CB7291ECEFC7BA1187E337A78B3D51D369BC1995B6
:40048000FE109AC878F294FC20A32F88D84EB5FEB91530DADE767C3BEC61CE4338CB4AAE7B21321830DE8A38BFEF588F37DE33D01C69B8B356F1D96FAB463CD7E8C63DC0B2
:4004C000058ACD8C01DF72FC24683538FD0A49415EB98A9B5773771EB284C97CAD19364A9E610440986251FB4E47C640751A31B05368CFAD6D8B098EDEC3C51CE41727F3EF
:40050000016DDBBA4A4C8AE34E06E9C08BD31C3DEB524001711E72455069997A72FB11B640D3546F6EEBF55942FEBF3D246A7F115FD4C102D1F04033080A2772EA48A88631
:4005400081CAFBAEF990D119E04896997A5774842F3D19FF614A0D2EB86F2485240363FD2CC9AC36B5878EB8809F331274C8F3F99F3CAD24763E13DECCB570BB8D3BDCF1BC
:400580009DCFD1FB7DC71C0AD87E77D1150B811E61432CF96F85851CC4B3A29071B0F9E9CA6FF67C80E2CCCC293CF800CBA985827B75A15212D8EDBFC6E86985FD656AAF25
:4005C000683A56331B244BBEDDC1FB87D844006DA40AEA4B8AD03554CAD2F9CDA9628AA06D697553701EF055017A357A44AE2BF9D38E98074F0D552965A6E4582C041CE282
:4006000000000000000000000000000000000000000000000000000000000000000000000000000000000000000000000000000000000000000000000000000000000000BA
:400640000000000000000000000000000000000000000000000000000000000000000000801C800803D0401C801EFCD100BF7047EFF3108072B6704780F310887047000033
:40068000F1B50F0016001D00124804682B00320039000098A047F2BD70B506000C000E48056821003000A84770BD70B506000C000A48056821003000A84770BD38B504000D
:4006C000074805682000A84732BD00B505490860FEE700004020001744200017482000174C20001700F0010800000000000000000000000000000000000000000000000003
:4007000000000000000000000000000000000000000000000000000000000000000000000000000000000000000000000000000000000000000000000000000000000000B9
:400740000000000000000000000000000000000000000000000000000000000000000000000000000000000000000000000000000000000000000000000000000000000079
:400780000000000000000000000000000000000000000000000000000000000000000000000000000000000000000000000000000000000000000000000000000000000039
:4007C00000000000000000000000000000000000000000000000000000000000000000000000000000000000000000000000000000000000000000000000000000000000F9
:0200000490303A
:02000000F4CE3C
:0200000490501A
:0C00000000000000000000000001F4CE31
:00000001FF