:020000041008E2
:1000000000000628E5140810CD180810AD170810D8
:10001000D1180810D5180810D918081000000000D1
:100020000000000000000000000000003918081067
:10003000DD18081000000000E1180810E51808108D
:100040007D120810A3120810C9120810EF12081030
:10005000151308103B1308106113081087130810BC
:10006000E9180810ED180810F1180810F518081014
:10007000F9180810FD1808100119081005190810C2
:10008000DFF8B0110868C0F34000002801D002205A
:1000900002E0086810F001007047DFF89C0100687A
:1000A00010F0010070470000821F032A01D30120D5
:1000B00002E0801F0860002070471CB5FF246946DD
:1000C000FFF7F2FFC0B2002802D02000C0B207E064
:1000D000DFF8E801009950F8210010F00100C0B2EB
:1000E00016BD0000002801D0062801D3012002E03F
:1000F000401E0860002070471CB5FF246946FFF7CA
:10010000F1FFC0B2002802D02000C0B208E0DFF842
:10011000B001009909010844C06810F00100C0B2A4
:1001200016BD0000DFF8A8010068800810F001008B
:10013000704738B504002000C0B20E2811D3DFF894
:1001400084511822DFF88011280000F0CDFB002038
:10015000E87540F65B00DFF874110860002000F0DD
:10016000FBFBDFF8B8112000C0B251F82000C0F34B
:100170000020002805D0E4B251F8240010F00F0050
:1001800000E0FF2032BD38B504002000C0B20E28C8
:1001900011D3DFF830511822DFF82C11280000F0BD
:1001A000A3FB0020E8754FF40960DFF82011086018
:1001B000002000F0D1FBDFF86401E4B250F8240025
:1001C000C0F30110C0B232BDDFF854211368C3F38D
:1001D000072303601068C0F3C4000860704738B597
:1001E00004000B2C11D3DFF8DC501822DFF8C0110B
:1001F000280000F079FB0020E8754FF4CE70DFF89E
:10020000CC100860002000F0A7FBDFF8A00150F838
:10021000240010F00700010009B2042907D1DFF81B
:10022000880150F8240010F01F0050F4807000B2D4
:1002300032BD00002415264040152640DFF8AC12E0
:1002400009688A03920B0260090E11F00101C17165
:10025000DFF89C1209680A00D204D20C82800A00DE
:10026000120C02F0FF020281090C01F0FF01418132
:10027000DFF84011096811F00F0202730A00C2F39F
:10028000031242730A00120AD204D20CC281090F6F
:1002900011F003010174DFF8601309680A00120A03
:1002A00012F0070282710A00120CD205D20D4282AE
:1002B000890F11F0010101757047000040162640BA
:1002C00000192640340D0228EC1508104C0D0228A8
:1002D000100027401CB50C006946FFF7E5FE010041
:1002E000C9B2002901D0C0B217E0DFF8B00400990C
:1002F00050F8210010F07F012160C0F304216160FB
:10030000C0F30441A1600100090F11F00301617302
:10031000C00E10F001002073002016BD40122640D0
:10032000080020401CB50C006946FFF7DBFE010009
:10033000C9B2002901D0C0B235E0DFF8101500982D
:100340000001085800F0FF022260C0F3042262603E
:10035000C0F30442A260000F10F003002073009865
:100360000001084442681000C00F6073C2F30270BD
:10037000002801D0012000E00020A07322F07F427D
:10038000226100980001084480680100C90F2175AE
:100390000100090E11F001016175A075000C10F04B
:1003A0000700E075002016BD00012640001226401F
:1003B000381608103815264080B50100DFF8000512
:1003C000182200F01DFB0120DFF8F814087000204F
:1003D00002BDDFF8F4140968C90F002908D0DFF85E
:1003E000E4140978002907D1002101600320704737
:1003F000002101600320FAE7DFF8C41409680160F6
:100400000020F4E710B50400FFF73AFE002803D1FE
:100410000020206003200DE0DFF8A8040078002809
:1004200005D0DFF89C0480682060002002E00020F6
:100430002060032010BD0000DFF88814097800292F
:1004400005D0DFF87C1449680160002002E000213B
:10045000016003207047DFF874140968C90F002990
:1004600008D0DFF860140978002907D10021016065
:1004700003207047002101600320FAE7DFF84014F1
:10048000C96801600020F4E7DFF844140968C90F67
:10049000002908D0DFF82C140978002907D10021A1
:1004A000016003207047002101600320FAE7DFF8B4
:1004B0001014096901600020F4E710B50400FFF78B
:1004C00031FE002803D10020206003200DE0DFF87A
:1004D000F4030078002805D0DFF8E40340692060C9
:1004E000002002E000202060032010BD30152640CF
:1004F0003415264010B50C00C0B2FFF770FE00287E
:100500000ED0012810D0022812D0B0F5887F13D069
:1005100040F21111884213D0B0F58A7F14D017E051
:100520002000FFF756FF16E02000FFF785FF12E0DE
:100530002000FFF767FF0EE02000FFF78CFF0AE0C6
:100540002000FFF7BAFF06E02000FFF79DFF02E062
:1005500000202060032010BD80B501000020FFF7BF
:10056000C9FF02BD80B50722D2B2824203D2002069
:100570000860012003E0401CC0B2FFF7BBFF02BDD2
:1005800018B587B004006846FFF7E6FF0100C9B25E
:10059000002903D000212160C0B22BE001A8FFF7A1
:1005A0004DFE9DF81400022803D100982060002021
:1005B00020E0DFF820030068C00F002808D0FFF714
:1005C0006CFDC0B2002807D100202060032011E09C
:1005D0000098206000200DE0009901984143BDF88B
:1005E0000800B1FBF0F09DF80B10491CB0FBF1F0D6
:1005F0002060002008B010BD3C152640F0B58BB03F
:1006000005000C0069462800C0B2FFF7ABFF0100EF
:10061000C9B2002903D000212160C0B2BCE028008B
:10062000C0B205284CD307A92800C0B2401CFFF770
:1006300051FEC0B2002811D0DFF89C621822DFF80A
:100640009C12300000F050F90020F07540F6631065
:10065000DFF88C120860002000F07EF94F48290076
:10066000C9B200EB810050F8140CC00F002807D06D
:100670009DF82900022807D10098206000208BE017
:1006800000982060002087E0EDB26D1C2800FFF785
:1006900014FD0100C9B2002902D0C0B2FF2803D165
:1006A00000202060032077E00099079841430898D4
:1006B000B1FBF0F00999B0FBF1F0206000206BE095
:1006C00001A92800C0B2401CFFF72CFEC0B20028D0
:1006D00011D0DFF804621822DFF80012300000F0B9
:1006E00003F90020F07540F67F10DFF8F411086080
:1006F000002000F031F955482900C9B209014058DD
:10070000C00F002807D09DF81000022807D10098DC
:100710002060002040E00098206000203CE0EDB226
:100720006D1C2800FFF7E8FC0100C9B2002902D0C7
:10073000C0B2FF2803D10020206003202CE09DF8E8
:10074000110001281DD1009A0023019E00273F06B9
:1007500047EA162736060598002136184F41A6FBB2
:10076000020106FB031107FB0211029A039BA3FB84
:10077000022300F0A5F9000E40EA0120090E2060D6
:1007800009E00099019841430298B1FBF0F0039908
:10079000B0FBF1F0206000200BB0F0BD0016264049
:1007A00010B50723421E0400E4B2002C03D1080058
:1007B000FFF7E6FE0CE01400DBB2E4B2A34204D380
:1007C0001000C0B2FFF71AFF02E0C0B2FFF792FEBE
:1007D00010BD38B505000C002800C0B2FFF7A9FC19
:1007E0000100C9B2FF2904D12000FFF7F2FDC0B219
:1007F0001BE06946C0B2FFF7D3FF0100C9B2002970
:1008000003D000212160C0B20FE02800C0B2FFF782
:10081000BAFCC0B2002805D002280BD006D30328AA
:100820000CD00FE000982060002032BD00984008F6
:100830002060F9E7009880082060F5E70098C0087C
:100840002060F1E7002020600320EEE70019264039
:100850001FB5040002A90120FFF7BBFF0100C9B2C8
:10086000002903D000212160C0B21AE0694601A826
:10087000FFF7AAFC01980021421C71F1FF335B01D4
:1008800043EAD26352010098002112184B410298AA
:100890000021490141EAD061400100F011F92060D6
:1008A000002004B010BD80B5DFF838100968C1F32E
:1008B00003210E2901D0012001E0FFF7C9FF02BD8D
:1008C0001C0D0228640D0228181526400815264024
:1008D0000C15264030152640340D02283816081015
:1008E0004C0D02280000204001B58B071AD1830768
:1008F00024D1121F21D351F8043BA3F1013C2CEA6F
:10090000030C1CF0803C04BF40F8043BF1E79CFA68
:100910008CFCBCFA8CF1C1F118018B40CB4040F843
:10092000043B13E0042A09D311F8013B521E00F8DE
:10093000013B5BB18B07F7D1D9E7121D5AB111F812
:10094000013B521E00F8013B03B1F8D111001CBF5E
:10095000002200F0CDF901BD01BEFEE780B5234ABB
:1009600023490B6893423ED00A60224A12684A62C9
:10097000214A8A6202684A6042688A608268CA6064
:10098000C2680A6102694A6142698A618269CA6110
:10099000C2690A62F1EE102A12F0900F23D0174AB2
:1009A0008A62026ACA62426A0A63826A4A63C26AE5
:1009B0008A63026BCA63426B0A64826B4A64C26BCD
:1009C0008A64026CCA64426C0A65826C4A65C26CB5
:1009D0008A65026DCA65426D0A66826D4A66C26D9D
:1009E0008A66006EC86600F0B2F901BDFAF9F8F740
:1009F000AC0C022828ED00E0A4A3A2A1ABAAA9A8F0
:100A0000103A07D330B4B1E83810103AA0E83810E3
:100A1000F9D230BC530724BFB1E80810A0E8081091
:100A200044BF51F8043B40F8043BD20724BF31F8DF
:100A3000022B20F8022B44BF0B7803707047121F63
:100A400017D35B0009D151F8043B20F8023B1B0C83
:100A5000121F20F8023BF6D20BE051F8043B00F8DD
:100A6000013B1B0A20F8023B1B0C121F00F8013B44
:100A7000F3D238BF121D521E24BF11F8013B00F8FB
:100A8000013BF8D8704730B5016884684218416866
:100A900002EB5103C90703D54C4401E0491C08D1BE
:100AA0009A4218BF12F9011B01D10C3030BD12F867
:100AB000015B002904F8015BF0D4491EF7D5EFE78C
:100AC000BBBBE1B1B2F5803F80F07E80022A1ED927
:100AD0008C46B1FBF2F102FB11C31B0443EA104345
:100AE000B3FBF2FC02FB1C3380B240EA0343B3FBCE
:100AF000F2F002FB103240EA0C4000237047022A59
:100B000005D98446B0FBF2F002FB10C270474AB12F
:100B100005D100F0010249085FEA30007047002269
:100B20000023704700F014B90B00020000210020E0
:100B30007047904271EB030CF6D3B3F5803F2FD290
:100B4000F0B5B3FA83F7B1FA81F4A7F10F0E3D1BAC
:100B50005340CEF1200602FA0EF2F3415340B5F1B4
:100B60000F0746D80F3C2C444140C4F12006A0405A
:100B7000F1414140B1FBF3F603FB1611A2FB064520
:100B8000001BA94102D2761E8018594180EA010259
:100B900021FA0EF362FA0EF200215A403046F0BDFF
:100BA00030B4B1FBF3FC03FB1C11A2FB0C45001B92
:100BB000A94103D2ACF1010C8018594130BC024666
:100BC0000B46604600217047B2F1807F65D3F0B5D7
:100BD000B2FA82F7B1FA81F4C7F10F063D1B22FA8F
:100BE00006F307F1110EF24120355A40B5F10F0717
:100BF000B8D94140C4F12006A040F1414140B1FBC9
:100C0000F3FC03FB1C11A2FB0C45001BA94103D202
:100C1000BCF1010C801859410F2F12D30F3FC903AB
:100C200041EA5041B1FBF3F603FB1611A2FB064566
:100C3000D4EBC030A94102D2761E8018594146EA51
:100C4000CC3C07B34140C7F12006B840F1414140D8
:100C5000B1FBF3F603FB1611A2FB0645001BA941ED
:100C600002D2761E8018594180EA010221FA0EF361
:100C7000C7F1200462FA0EF20CFA07F05A402CFA7F
:100C800004F13043F0BD80EA010221FA0EF30021A5
:100C900062FA0EF260465A40F0BD8C46B1FBF2F1AA
:100CA00002FB11C31B0243EA1063B3FBF2FC02FB1D
:100CB0001C331B024CEA002043EA1063B3FBF2FC36
:100CC00002FB1C331B024CEA002043EA1063B3FB17
:100CD000F2FC02FB1C331B024CEA002043EA1063C7
:100CE000B3FBF2FC02FB1C324CEA002000237047ED
:100CF000401810F0030308D0C91A1FD3DB0748BF00
:100D000000F8012D28BF20F8022D130030B414463E
:100D10001546103928BF20E93C00FAD8490728BFFA
:100D200020E90C0048BF40F8042D890028BF20F8B6
:100D3000022D48BF00F8012D30BC7047C91818BFFC
:100D400000F8012DCB0728BF00F8012D7047FEE702
:100D50007047000038B500F077F900F042F800F075
:100D6000C9F871490868800312D4BFF34F8FBFF3ED
:100D70006F8F00206D4A1060BFF34F8FBFF36F8FEE
:100D8000086850F400300860BFF34F8FBFF36F8FD7
:100D90000868C00324D40020654A1060BFF34F8F59
:100DA00064480268C2F34E33C2F3C90443F6E070EC
:100DB00010EA431050EA84705F4D28602000441E02
:100DC0000028F3D11800431E0028EDD1BFF34F8F48
:100DD000086850F480300860BFF34F8FBFF36F8F07
:100DE00031BD70B586B0684654491822FFF708FE39
:100DF00000200AE069460200D2B201EBC201496854
:100E0000491C11F0070F0DD1401C0100C9B2032984
:100E100009D269460200D2B211F8321011F0070F60
:100E2000E8D0FEE7FEE7464C207810F0070F00D030
:100E3000FEE7444D2868401C10F0070F00D0FEE785
:100E4000002622E068463100C9B200EBC1004168CB
:100E50003000C0B252F8300000F043F814E0002037
:100E60000028EFD02168491E3000C0B252F830008F
:100E700000F037F868463100C9B200EBC1004168A4
:100E80002868401C00F02DF8761C3000C0B2032802
:100E900025D26A463000C0B252F83000002813D084
:100EA00020683100C9B252F8311088420AD368462E
:100EB0003100C9B200EBC10040682168884201D30B
:100EC0000120CDE70020CBE768463100C9B200EB36
:100ED000C100406821688842C1D30120C0E706B044
:100EE00070BD0022002302E0C0E9002308308842E0
:100EF000FAD3704730B4144880081449144A0023C8
:100F000008E01C00E4B252F824401D00EDB241F8A4
:100F100025405B1C1C000500E4B2EDB2AC42F0D3EE
:100F20000C48016030BC704714ED00E050EF00E069
:100F300084ED00E080ED00E060EF00E07018081044
:100F40008C1508109015081080000000800D0228F4
:100F50000000081008ED00E010B5002042490860CC
:100F6000BFF34F8F41480168C1F34E32C1F3C9034B
:100F700043F6E07010EA421050EA83703C4C206067
:100F80001800431E0028F3D11000421E0028EDD1A6
:100F9000BFF34F8FBFF36F8FBFF34F8FBFF36F8FD1
:100FA000002034490860BFF34F8FBFF36F8F00F00C
:100FB00001F810BD38B586B068462F491822FFF7F2
:100FC0001FFD6846FFF7F8F9C0B200280DD02B4C82
:100FD00018222B492000FFF787FC0020E0754E20E7
:100FE000284908600020FFF7B7FC274D2800FFF7CD
:100FF0005AFCC0B200280DD0204C182220492000F5
:10100000FFF772FC0020E07550201E4908600020A8
:10101000FFF7A2FC1D49286808600A681C4882186E
:101020001C48B2FBF0F01C4A10601C48096801F231
:10103000E7314FF47A72B1FBF2F101600068C0034E
:101040001749086007B030BD80B500F02DF815498C
:101050000A6852F470020A60BFF34F8FBFF36F8FBC
:1010600000F026F801BD000084ED00E080ED00E016
:1010700074EF00E050EF00E088180810340D0228EB
:10108000941508104C0D0228500D0228540D02280A
:101090003F420F0040420F005C0D0228580D02280D
:1010A000600D022888ED00E0EFF3108072B6704703
:1010B00080F310887047000030B4664B1818C009E0
:1010C000654B13EB001304290FD21C681F25C800C1
:1010D00015FA00F034EA0000D2B212F01F02C90083
:1010E00012FA01F1014319600EE0081F5C681F2528
:1010F000C10015FA01F134EA0101D2B212F01F0267
:10110000C00082400A435A6030BC7047002A04D1B4
:10111000012212FA01F1416003E0012212FA01F109
:101120008160704710B48900446C0F238B4034EA0F
:10113000030312F00F0212FA01F11943416410BCCB
:10114000704710B4846C01238B4034EA030312F01F
:10115000010212FA01F11943816410BC704710B406
:10116000C46C01238B4034EA030312F0010212FA2B
:1011700001F11943C16410BC704710B4490010312B
:10118000C46C03238B4034EA030312F0030212FA07
:1011900001F11943C16410BC70474269012212FA7F
:1011A00001F141614069704710B4846901238B40AB
:1011B00034EA030312F0010212FA01F119438161CA
:1011C00010BC704710B44900046C03238B4034EA10
:1011D000030312F0030212FA01F11943016410BC77
:1011E0007047F8B505000E0014000027002D2ED022
:1011F000002C2CD0226831002800FFF787FF227ACC
:1012000031002800FFF758FF626931002800FFF71E
:1012100098FFA26931002800FFF7A1FFE2693100C1
:101220002800FFF7AAFF626831002800FFF77AFF65
:10123000E26831002800FFF7C5FF31002800FFF702
:10124000ACFF226931002800FFF7AEFF00E0034F3A
:101250003800F2BD0000CFBF0000304001005A004E
:10126000010009B2002908D4012210F01F018A40B0
:101270004F4900B2400941F82020704780B54D48E1
:1012800000684D4801680800C00F002805D04B4891
:101290008905890D50F8210080470020FFF7E0FF05
:1012A00001BD80B546480068464801680800C00F87
:1012B000002805D041488905890D50F82100804754
:1012C0000120FFF7CDFF01BD80B53F4800683F48D2
:1012D00001680800C00F002805D038488905890D2D
:1012E00050F8210080470220FFF7BAFF01BD80B50A
:1012F00037480068374801680800C00F002805D04B
:101300002E488905890D50F8210080470320FFF7FA
:10131000A7FF01BD80B5304800683048016808006B
:10132000C00F002805D025488905890D50F82100F7
:1013300080470420FFF794FF01BD80B5284800686E
:10134000284801680800C00F002805D01B488905FF
:10135000890D50F8210080470520FFF781FF01BD6E
:1013600080B521480068214801680800C00F0028A6
:1013700005D012488905890D50F8210080470620C4
:10138000FFF76EFF01BD80B5194800681948016874
:101390000800C00F002805D008488905890D50F8BD
:1013A000210080470720FFF75BFF01BD0000000020
:1013B00080E200E0AC180810000120400000022884
:1013C000B018081004012040B4180810080120408B
:1013D000B81808100C012040BC180810100120405B
:1013E000C018081014012040C4180810180120402B
:1013F000C81808101C012040F8B504000D00354E37
:10140000307800280ED0304F182230493800FFF7CE
:101410006BFA0020F8754FF4CF702D49086000205A
:10142000FFF79AFA20002900012232705FF08072E3
:10143000002399420AD301D8904207D37FF07F421C
:10144000254C5FF0FF350019694102E002000020E1
:1014500000211A4B00241C60194C22600022194CF8
:10146000226005221A601A68D203FCD500221A6095
:101470000029DBD10028D9D100203070F1BD70B532
:101480000400164D286800280ED10F4E18220F496F
:101490003000FFF729FA0020F0754FF4E5700C4991
:1014A00008600020FFF758FA28680D49B0FBF1F0FA
:1014B000A4FB0001FFF7A0FF70BD000010E000E0FA
:1014C00014E000E018E000E0340D02288416081053
:1014D0004C0D0228650D0228010000FF500D022866
:1014E00040420F0072B61D4908684FEA102000F014
:1014F0000F000E2808BF1A490D2808BF19490728F0
:1015000008BF1949082808BF1849086820F00B00CF
:1015100008600868BFF34F8F154816490860BFF38D
:101520004F8F1549086840F00700086013490868A4
:1015300040F007000860BFF34F8FBFF36F8F0020AC
:101540000021124AE2E802016A45FBD10C4FB8477C
:101550000C4FB8470C4FB847FEE700000000204092
:101560000C0020400C0420400C0820400C0C2040B3
:101570000000081008ED00E090EF00E094EF00E0BC
:10158000550D0810411708105518081000FF0528C0
:10159000FFFF0528433A5C5432475F53616D706C1E
:1015A000655F4472697665725F4C696272617279D7
:1015B0005F382E312E305C74766969633264346D25
:1015C0005C7372635C73797374656D5C7265765F6E
:1015D000635C73797374656D5F7476696963326493
:1015E000346D5F636D372E6300000000433A5C5436
:1015F00032475F53616D706C655F447269766572E6
:101600005F4C6962726172795F382E312E305C7482
:10161000766969633264346D5C7372635C647269A9
:10162000766572735C737973636C6B5C63795F73FB
:101630007973636C6B2E6800433A5C5432475F5396
:10164000616D706C655F4472697665725F4C69624A
:10165000726172795F382E312E305C7476696963FD
:101660003264346D5C7372635C6472697665727344
:101670005C737973636C6B5C63795F737973636CB0
:101680006B2E6300433A5C5432475F53616D706C5C
:10169000655F4472697665725F4C696272617279E6
:1016A0005F382E312E305C636F6D6D6F6E5C7372C0
:1016B000635C647269766572735C73797374696371
:1016C0006B5C63795F7379737469636B2E6300007D
:1016D000012212FA01F1C160704710B562B6FFF73E
:1016E0003BFC074C074A02212000FFF77AFD4CF231
:1016F0005030FFF7C4FE02212000FFF7E9FFF6E7B4
:1017000080033140780C022830B4002512E050F8F4
:10171000042BD30744BF4A44521E091F042942F830
:10172000045BFAD213468C0744BF15809B1CC90783
:1017300048BF1D7050F8041B0029E8D130BC704729
:1017400010B5074979441831064C7C44163404E03E
:101750000A68081D114488470146A142F8D110BD0E
:101760002C000000480000004EF68851CEF2000127
:10177000086840F470000860BFF34F8FBFF36F8FAD
:101780004FF00170E1EE100A704700007DFFFFFF8F
:10179000BC000000AC0C022800000000EBF2FFFFD0
:1017A0006801000074000000000002280420714657
:1017B000084202D0EFF3098001E0EFF3088000B5A2
:1017C0000149884700BD00005D09081000000000C5
:1017D000801C800803D0401C801EFCD100BF7047D5
:1017E000EFF3108072B6704780F3108870470000E6
:1017F00000F00EF8002801D0FFF7A2FFAFF3008041
:101800000020AFF30080FFF768FF00F003F800004E
:101810000020704700F000B80746384600F002F894
:10182000FBE7000080B5AFF30080024A11001820EA
:10183000ABBEFBE72600020004207146084201D03F
:10184000EFF30980EFF3088000B50149884700BD38
:10185000A11808100548014603B4684680F30988BA
:10186000AFF30080FFF780FFFFF7C2FFA5EDF5FEA5
:1018700000000228FFFF052800000020FFFF0020D5
:1018800000000000FFFF000000127A0000000000CE
:101890000024F400008000000080000000800000B0
:1018A000816911F8021CC9B2016070470000000094
:1018B0000000000000000000000000000000000028
:1018C000000000000000000000000000FFF7FEBF65
:1018D000FFF76CBFFFF76ABFFFF768BFFFF7FEBFF8
:1018E000FFF7FEBFFFF7FEBFFFF7FEBFFFF7FEBF2C
:1018F000FFF7FEBFFFF7FEBFFFF7FEBFFFF7FEBF1C
:10190000FFF7FEBFFFF7FEBF81FF81FF81FF81FF71
:1019100081FF81FF81FF81FF81FF81FF81FF81FFC7
:1019200081FF81FF81FF81FF81FF81FF81FF81FFB7
:1019300081FF81FF81FF81FF81FFEFFFFC00000637
:02194000D100D4
:040000051008185572
:00000001FF
