:020000041000EA
:4000000000040000000000000000000001000000F000000000000000000000000000000010B500F00DF904001448016803220A430260200080F3108810BD10B500F000F9CD
:4000400004000E4801680322914301220A43026001680322914302220A430260200080F3108810BD80B5FFF7E8FF05480168490049080160FFF7D4FF01BD000040C0264015
:4000800000C026400000000000000000000000000000000000000000000000000000000000000000000000000000000000000000000000000000000000000000000000001A
:4000C0000000000000000000000000000000000000000000000000000000000000000000000000000000000000000000000000000000000000000000000000000000000000
:4001000000800008CB010010F8B505000C001700069E009A2100280000F03AF83200D2B22100280000F006F83A002100280000F03EF8F1BDF1B50098354BC018C309102007
:400140005843344C0419042910D20D001F262768BC46EF003000B840674687431000C0B20640E80086403E43266010E00800051F1F266768BC46EF003000B840674687438A
:400180001000C0B20640E80086403E436660F1BD00B5002A03D101238B40436002E001238B40836000BD01228A40C260704770B40B009D000F26446C3100A9408C43164068
:4001C000AE402643466470BC7047F8B50024032011490860FFF746FF104DAA27FF052F600F4E002000900123062202213000FFF78BFF0C4828600C4800F01AF802213000B8
:40020000FFF7D1FF200080B238432860641CF2E70000CFBF0000304000E100E00C002240000431400060065520BCBE0000000000801C800803D0401C801EFCD100BF70471F
:40024000EFF3108072B6704780F31088704700000000000000000000000000000000000000000000000000000000000000000000000000000000000000000000000000006B
:40028000000000000000000000000000000000000000000000000000000000000000000000000000000000000000000000000000000000000000000000000000000000003E
:4002C00000000000000000000000000000000000000000000000000000000000000000000000000000000000000000000000000000000000000000000000000000000000FE
:4003000000000000000000000000000000000000000000000000000000000000000000000000000000000000000000000000000000000000000000000000000000000000BD
:40034000000000000000000000000000000000000000000000000000000000000000000000000000000000000000000000000000000000000000000000000000000000007D
:40038000000000000000000000000000000000000000000000000000000000000000000000000000000000000000000000000000000000000000000000000000000000003D
:4003C00000000000000000000000000000000000000000000000000000000000000000000000000000000000000000000000000000000000000000000000000000000000FD
:400400000862DFE0AADECE2B942C215CE459D12014ADF92695D1E64DED2B6B22E248B6A48B12AEEAA64D7EF5E11EA81B3D43F7B640CC0621C04BCA7306DB8FF24A25FF7CB4
:400440006D1F466C074A08E8819F55C03E81494F61996D53253D676D648CB00B30FA1AAE6FA97FAA5D6D980A3FDA4B89874C58EAF8D2AA5CA0827678E3338BA3783839B078
:40048000B2EEAE65700D00AAF1041553D3B93FF1F95DE0B636F5934E1DEF53EC9C3F0D1CE2B23E4F3103082B75CEF2D2E6E001D038EDCAEECAD82B96C9EA2EF16940037F9F
:4004C0003751BE6325E9C31793EC1B878F2EA740B3AEC63E584667CC81B2B9A9BB0E31424BD5CE9284FCFE00EC5ABA59CBDC2B6AE4A5F2D22FFF8E9EB7E9473E6C3FA110E4
:40050000EBABA1CCA64384B705B049C796808A6F4929CA21F912FCB4A736DAFE3A25A9F4F48E8459D8EC089F306CF827288C844B66E8950E46BD48CFE71260A7184A3BBE89
:40054000F9EADDB5E3230FAE1D07A32534D3716D96C7B5C93A5E28598FDAE1B51C93D6F13F6035F31045F3ACCEB59487B2F5538DC1096EDEDE5321117D9DA695F25BF342D9
:40058000E727D5F68E3552B3C2856B3BF095B8AA788F219B33B283F6E8A171679226B2A2C862E462363106567E7767C7F88ADD590A23955A52D8F9E71F884A218EB3572931
:4005C000C6688E704B1DF4FA313BE6F1222118BD885F51B128DC125EC23EAA3B3CD6F618458FCDB41F9E732D37DE5C3E53698D69C3A3FCE27520688F32048A02730700BDE0
:4006000000000000000000000000000000000000000000000000000000000000000000000000000000000000000000000000000000000000000000000000000000000000BA
:40064000000000000000000000000000000000000000000000000000000000000000000000000000000000000000000000000000000000000000000000000000000000007A
:40068000000000000000000000000000000000000000000000000000000000000000000000000000000000000000000000000000000000000000000000000000000000003A
:4006C00000000000000000000000000000000000000000000000000000000000000000000000000000000000000000000000000000000000000000000000000000000000FA
:4007000000000000000000000000000000000000000000000000000000000000000000000000000000000000000000000000000000000000000000000000000000000000B9
:400740000000000000000000000000000000000000000000000000000000000000000000000000000000000000000000000000000000000000000000000000000000000079
:400780000000000000000000000000000000000000000000000000000000000000000000000000000000000000000000000000000000000000000000000000000000000039
:4007C00000000000000000000000000000000000000000000000000000000000000000000000000000000000000000000000000000000000000000000000000000000000F9
:0200000490303A
:0200000091BBB2
:0200000490501A
:0C0000000000000000000000000191BBA7
:00000001FF