:020000041700E3
:40200000003e000001800123000000000100000010000000000000C61102000011000B0100000000595B0017002200BF094202D0491E4254FCD17047FF07A189000000003C
:40204000B3420017133400176F42001713350017113900170000000000BF00BF00BF00BF7047000040BA7047C0BA704789004018A62149014058C000C00C7047F8B5816876
:402080000091C76806690568012028703E2E25D3300036383978002920D1797801291DD1B91C095C002919D1002404E0BA1C525CFF2A13D1491C8142F8DB13223818C11CB2
:4020C00007A000F0FFFC002805D12022B9192039009800F0F7FC002800D12C700020F2BD3031300D06096086480165030402010500042000F8B5070089483C180F252068FB
:4021000028400728FBD2802040056060206828400728FBD2E020000208436060206828400728FBD29020000210436060206828400728FBD25B1E7B481843606020682840B9
:402140000728FBD2784818436060206828400728FBD2764818436060206828400728FBD273486060206828400728FBD271486060206828400728FBD26F48606020682840A4
:402180000728FBD25803A821090601436160206828400728FBD269486060206828400728FBD267486060674E0AE0206828400728FBD265486060206828400728FBD2666089
:4021C000380000F08FFC206828400728FBD25F486060380000F08BFC400728D4206828400728FBD25A486060206828400728FBD258486060380000F07AFC8007D5D42068F7
:4022000028400728FBD254486060206828400728FBD252486060206828400728FBD26660206828400728FBD24D486060C8E7206828400728FBD24B48606020682840072898
:40224000FBD2882040056060F1BDF0B5344C00190F2405682540072DFBD290256D051D43456005682540072DFBD23F4D1D43456005682540072DFBD23C4D1D434560056894
:402280002540072DFBD25D038C2636062E43466005682540072DFBD2D026B605466005682540072DFBD2324D456005682540072DFBD2304D456005682540072DFBD20D035A
:4022C0002E43466023E006682640072EFBD22A4E1643466006682640072EFBD2274E466006682640072EFBD20E012E43244F3743476006682640072EFBD28426B6054660BB
:4023000006682640072EFBD21E4E46605B1E002BD9D5016821400729FBD260494160F0BD4410000000000B1200000C1200000D1200D0003500E0003400B000340AB0002818
:4023400009C00030E0E00024D0D000240B00003FB0B000240D00003FDCD00036D0D000250AE000280038001300000112000002120300002800200030001000370100300381
:402380000200303A20200024F1B5454C00190F2405682540072DFBD2079D6E00761E414F3743476007682740072FFBD23E4F3743476006682640072EFBD26E0380273F06E6
:4023C0003743476006682640072EFBD212011343364E1E43466003682340072BFBD2344B436003682340072BFBD2069B314E1E434660009EA6277F01F659F600F60C06D007
:4024000006682640072EFBD2814E1643466002682240072AFBD26D1C902252052A43426002682240072AFBD27A4A426002682240072AFBD2784A426002682240072AFBD265
:40244000764A2A43426002682240072AFBD2744A1A43426002682240072AFBD2714A426002682240072AFBD26F4A1A43426002682240072AFBD209036C4A0A434260026878
:402480002240072AFBD26A4A0A434260016821400729FBD267494160F1BD000007000013441000000000021200000312002000332030002330200033F1B50F005E494418BB
:4024C0000F25206828400728FBD20899534808436060206828400728FBD24800401E574E0643666026682E40072EFBD2544E06436660206828400728FBD2802000064903A2
:402500000143616026682E40072EFBD2120113434C4A1A43626022682A40072AFBD2069A494B1343636022682A40072AFBD2474A626022682A40072AFBD2454A6260226829
:402540002A40072AFBD2079E424A3243626022682A40072AFBD2404A626022682A40072AFBD23E4A626022682A40072AFBD23C4A626022682A40072AFBD23A4A6260226815
:402580002A40072AFBD26060206828400728FBD235486060206828400728FBD261600098A62149014058C000C00C05D0206828400728FBD2A2486060206828400728FBD2F9
:4025C000A0486060009800F08DFA206828400728FBD29D486060206828400728FBD29B4830436060206828400728FBD298486060206828400728FBD23803964901436160FA
:40260000206828400728FBD293486060F1BD000000300020320000370C0000130000011200100037100040031000003701004030000030300300001344100000000002124A
:402640000000031200300033301000331010002110100024102000332320003600400005202000230010003400100028FEB506007A4834180F25206828400628FBD880205E
:4026800040056060206828400628FBD8C020C00110436060206828400628FBD8A020C00108436060206828400628FBD8E020C00118436060206828400628FBD808988021F4
:4026C000090201436160206828400628FBD80A98A021090201436160206828400628FBD80998C021090201436160206828400628FBD80B985A490143616020682840062889
:40270000FBD80C98401E574901436160216829400629FBD8544901436160216829400629FBD85249014361600C980190082000900C2306220D213000FFF726FE300000F019
:40274000D1F9206828400628FBD849486060206828400628FBD847486060206828400628FBD845486060300000F0BCF90E213000FFF77CFC41497118414A0B6817001F40A6
:402780007F1C3F1A23682B40062BFBD84003B8231B0603436360C868000C024005D0206828400628FBD8BA486060BFB226E00C980290082001900A20009005230522052148
:4027C0003000FFF779FE300000F08CF9206828400628FBD8AF486060300000F088F9C0070BD50C980290082001900A2000900D23052205213000FFF75FFE7F1E012FD6DA81
:40280000206828400628FBD8A34860600C980290082001900A2000900923052205213000FFF74AFE206828400628FBD89B486060206828400628FBD8882040056060F7BD86
:4028400010100020040000042120303A2030003723003003020000300E00001344100000005000300000091200000D1200000B1207B0003000900034B9E00026EC140000A0
:40288000FF1F0000F8B58CB00500086882680B92C268059202680A9247684A6809928A680892C96807910169049141690391806902908021890188002818FFF7B5FB7848EC
:4028C0002C180F26206830400728FBD2781E754901436160216831400729FBD2724901436160216831400729FBD2704901436160216831400729FBD26D490143616021686B
:4029000031400729FBD26B4939436160216831400729FBD2684901436160216831400729FBD2664901436160F80806900720074202D00699491C0691791CCA080192014032
:4029400001D0511C01910599C90800910599084002D00098401C009008212800FFF786FB8021090269180591069A0A99059B8000181800F0E3F807212800FFF777FB009A10
:402980000B99059B8000181800F0D8F806212800FFF76CFB089A0999059B8000181800F0CDF80498002809D13B0008220A212800FFF74BFC280000F095F80AE00A212800F9
:4029C000FFF754FB019A0499059B8000181800F0B5F80298002812D1206830400728FBD22D4860600197082000900A2309220B212800FFF7C9FC280000F074F80AE00B214E
:402A00002800FFF733FB069A0299059B8000181800F094F80398002809D13B00082209212800FFF767FB280000F05CF80AE009212800FFF71BFB069A0399059B8000181857
:402A400000F07CF804970B200390092002900A200190082000900723062205212800FFF705FE280000F03EF805212800FFF7FEFA069A059980000918079800F05FF82068FB
:402A800030400728FBD20E48606000200DB0F0BDBEB00020B0B0002100900035002A0013441000000000051200000612000007120000081200000A120000091200000B12EF
:402AC000E00F0013A446521E08D303780C78401C491CA342F7D0181B64467047002064467047000006494158C90FFBD1704704494158C90FFBD10349405880B27047000084
:402B0000041000009014000070B4103A03D378C9103A78C0FBD2530701D318C918C001D508C908C0D20704D30B880380891C801C002A01D50B78037070BC70478B0701D16F
:402B40008307E1D0124205D00B78491C0370401C521EF9D170470000002816D0002914D080225201144B984205D0144B98420AD0134B984204D1002008804A6000207047E2
:402B8000104B984201D10A80F7E70F4870470F494A68904202D1080008307047002070470B49884201D3022100E000210004400E0818C0B270470000000052400002524044
:402BC0000000544000025440010062004808002801025240F8B592B00500D14800681190D04800681090D04800680F90CF480668CF4800680E90CF4800680D90CE480068AA
:402C00000C90CE4800680B90CD4800680390CD4800680A90CC4800680990CC4800680890CB4800680790CB4800680690CA4800680590CA4800680490DD48006800902DD035
:402C40000C002BD02820205C002802D0E06A002824D03020205C002802D0606B00281DD0D44845602800FFF792FF002816D02168016061684160A1688160E168C1602169D3
:402C800001610120A861A869C007FCD50320A86101A92800FFF760FF002801D0C648DEE12F0084371199C54808402821615C09040143684680888008800008433860FE21C6
:402CC000C9031098BE4A02403020205C0004084010433A6892082823E35CD2189300E14A1A4002437A600F98400F4007A26BD200D2080243FA60069ADB4810404022A25CBC
:402D00001302E022D2001A4002434120205C03017020184010434222A25C5207520F0243BA63D24AD24B1E404420205CC0073043104084464520205C060608023040664693
:402D400030434626A65D36040E400643B446786886083020205C400030188600C148304066463043F861C3480E9E33404826A65DF6071E4332404923E35C1E060B023340B3
:402D800013434A22A25C120411401943FA6992084623E35C4226A65D865DB61C7343D2189200B04B13400B43FB624721615C002900D00121009A01239A4311434B22A25C06
:402DC000002A00D00222022399430A43C02149006A50A4490D9AA84B13400093FA6A920894464A22A35C4122A25C825C921C53436246D21892000A40009B1A43BA62059A2F
:402E000007239A434323E35C5B075B0F13437B640C9BC04A1A400092BA6A920894464C22A35C4022A25C805C801C43436046C01880000840009A1043F8660B9AB648104061
:402E40004D22A25C1304FC2292031A400243F86E80081430800001401143F96302988008290C09040091002809D0810000986A4692888018802252028018FFF7D5F803987C
:402E8000A649014003200843217D012902D18022920000E00022A24B03401A43012902D18020400000E000209E4B1340184303900398A8617F220A989B4B0340E08A000491
:402EC00018439A4B0340207E00021843637E13400343A07E40061843E861012953D1099993480840A18B0B04F821490319400143A07F0302F820400118400843E17F0B01F6
:402F0000F021194001432020205C0007000F08432221615C012923D18021090421E000BF2C5C0017305C0017345C0017385C00173C5C0017405C0017445C0017485C0017D2
:402F40004C5C0017505C0017545C0017585C00175C5C0017605C0017645C0017685C00170021B64B03401943E9600899B44808402321615C0B021102194001432420205C7C
:402F800002400A43AA6407983C218843615C0A013021114001433D20205C80000C2202400A433E20205C01280CD102200BE000BF6C5C00174808002801006200030000FF81
:402FC000030080FF002002218A4310433F21615C012900D000210126F6433040014380202950009839680904890C89004018802149024018002104E08A00E36A9B588350E5
:40300000491C2822A25C9142F6D3009879680904890C89004018802149024218002306E0DF00606BC01903C8D71903C75B1C3020205C8342F4D300246C65AC65049803215F
:403040008843E8652800FFF7ABFD40007D490C5203980640AE61A869C007FCD4002013B0F0BD0000FCFF000088F8FFFF03008080FFFFFF7FB03200170300FFFF7CB50500BE
:4030800015D0FFF784FD002811D0002404604460C46004610120A861A9690140FCD00326AE6169462800FFF757FD002801D0664876BD28008430046044606449C1608463E1
:4030C000C461C462F1016C5084624464C466C463019880080AD08100280C00046A4612888018802252028018FEF79EFFAE615848E8615848E860AC6480202C506C65AC6554
:40310000EC652800FFF74CFD40004E490C52002076BD00000300C0C00300C080FFBFFFFFFFFDFFFF0BFEFFFFFFFF00FE8000FF0100E0E0FFF8B504002AD0150028D068462B
:4031400001700E46202E23DA2000FFF720FD00281ED00121A06908401AD12200C032D0686B461B78D840084012D11068230C1B040C041B190004800C800018184CA3946890
:403180006407640F1B5D9B1C5E43B300C01801D12D48F2BD0368304C1C40046000232C7A012C01D18C0700E0002406682B4F37403C4304606C680668B60F0E4000D1A404CA
:4031C0000668760F7607E400E4083443046044681A4E2640466044682402240A44604C242E5D47681E4C3C403604F0273F033740274347602C78012C01D14C0500E000244D
:403200004668184F37403C4344602C78012C01D10C0500E000244668134F37403C4344609C002E19F6680419A6605B1C012BF7DD68460078814011610020F2BDFFFF7FFFFE
:403240008080FFFF4808002801006200FFFFFF1F030A0006330A0000FFFFFFDFFFFFFFBFFFFFF0FFFFFFDFFFFFFFEFFF10B5020001D0202901DB002010BD0020CC320123D0
:403280001468CC401C4007D09068C840184001D1012010BD032010BDD468CC401C4001D0022010BD1269CA40134000D0042010BD02000000A1480168E023DB001A000A40B8
:4032C000802080029A4208D0110A01D19C487047C8408021C902401811E070220A40702A07D0110901D1974870470200CA40101805E04907490F01D193487047C8409349DB
:4033000040187047002000F024F8EFF30888FFF7D1FF80F308888E4800688047FEE780B5810701D0002002BD00F0BCFB02BD70B514008900451800262670854207D32800B6
:40334000FFF7EDFF002802D02E6801202070300070BD804909688907890F022911D17E490122002801D10A6000E04A607B4802681F239A430260086C0F22904306220243F3
:403380000A6470477CB50400B44D00290CD001291DD16A4600211030FFF7C9FF2418103468460078002812D0AC4211D06A4601212000FFF7BCFF060068460078002806D07A
:4033C000300000F06FFB002801D0F00700D42C00200076BD0020FFF7BCFF0020A0490860A048A14908600020C046002804D19F489F49086030BFFDE7FEE7884207D39042FC
:4034000005D28007800F401E8041C00F704700207047FEB50F0080256D004E490968282228230B40082B01D1803503E00A40202A00D16D006A464121FFF779FF06006846C4
:403440000078002862D03000243002906A4600213000FFF76CFF69460978002956D002990918019100242438A64988424CD20198001FFFF754FF6946087068460078002868
:4034800044D0301D006800283ED10836B7423BD101200870F868002836D080214900884232D87868E90081422ED341072CD180218900884228D3019A02993868FFF79DFFBB
:4034C000002821D0019A0299B868FFF796FF00281AD03869002805D0019A0299FFF78DFF002811D07869002805D0019A0299FFF784FF002808D0B869002807D0019A02997E
:40350000FFF77BFF002801D16846047068460078FEBD011D096802680023DB439A4203D1994201D100207047B44B994204D1083AFF21FA318A4200D301207047C0202040BD
:4035400000F8052800F8032800F8012800F8FF27080D0000FC0100170403314060003040FEB582235B00C3181F68083701236C46237000240194002A01D10C2500E0142597
:4035800045192E68002A01D1102200E018220D00801800682860002802D0012833D057E06E60AC60EC602C61B3480068032800D1002368460370007800284BD06868FFF706
:4035C000AEFE6946087068460078002842D0286800283FD000F050FA0600A868FFF79FFE0700A868E9684018001FFFF798FE00281BD0E86880218900884216D38642B64184
:40360000F643F60F12E06E60AE606A4600213000FFF78DFEE8607968C908019169460978002917D030182861C8E700262869FFF776FE010005D0286901994018001FFFF721
:403640006EFE002F04D0002E02D0040000D001246846047068460078FEBD00000000FFFF08ED00E0000100A14C0022400000FA050010204038B50400012C01D1072234E020
:403680000020C046050021006846944A1268904703200099014003D16A1E9241D20F00E000220221009B9B08034000D10A43009B1B09184002D110000422024300980140D2
:4036C00001D1002D03D010008022520202430098000703D510008022920202430098800603D510008022D20202439048026031BD8E480068010CCA4302405007400F00D0B2
:4037000001207047DD0B000082B05B490C6888490860884888490860012C32D000F00EFB05000426002D01D0042700E00827022C02D10220009000E000960020FFF709FE68
:40374000002D00D004244C4804607C4CA06880473800216B8847206880473800FFF78AFF606A8047E068804700F0F3FA0400009800F0B6F8FFF7BCFF002802D0200000F08A
:40378000C7F8FFF7BFFD00BF80B5002801D0012801D16B4A03E0FC225200801802689007800F01D1082008E0012801D1192004E0022801D1322000E0642000291CD0D206E7
:4037C000520F01D15F4A11E0012A01D15E4A0DE0022A02D1FA22920008E0032A01D1002204E0042A01D1594A00E001220A60012A02D15748FFF788FF02BD00002012210193
:4038000038B56946FFF7C0FF04000098450903E0600100F0B5FA6D1E002D09D04D480068800F8007F4D04C4841490860FFF76AFD31BDF8B504000F00012F1BD000F089FAE3
:403840000500464E306880473800FFF713FF70688047022000F044F8FFF74AFF002809D0280000F055F83E480068000602D12000FFF7C6FFF1BD0000C420204039483A49E6
:4038800008603A488021890201600021816038480160016101620164364801603648016041607F2181600020C04334490860704710B5022901D1324A00E000228300314CA5
:4038C0001B191C6822431A602F4A8002101802680B040B431343036010BD0000380D000038B5040029480068012810D0012521002800FFF7DDFF6D1C102DF8D3244800214A
:4039000001604165816521000020FFF7D1FF31BD10B504001F4909688847002C04D01E4801681E4A0A43026010BD0000141420404C0022400000FFFF20112040040D0000AB
:4039400042020000204E000010270000A0860100050100F100112640010100A10C0D0000081026400200010000001040401010400014104080111040801410400001104022
:403980000000FEFF0000234000402340C420204000002140240D0000C40931400088080002E0121F0160001D002AFAD1704700006949086069486A490860FFF7A3FC00BFE9
:4039C000F8B5684F0122684907203B6898476748674908600122674905203B689847664D664E2E60664C6C602E626C620122654906203B6898472E646C642E666C66012270
:403A000061490A203B689847604804604460046244625F480168890A890203220A430260802149055B4802688A420ED14268002A0BD50223D400E40EA34019430162510633
:403A4000490E8F2212060A43426253480068000C000410D05148E90C0022C36B0B4003D0C36C1943C1640260A5490B68002B02D001230B600260F1BD80B5A248006880042C
:403A8000800F03D0022807D003D307E08220C00302BDC420800302BD8420FBE79A48FFF733FE00BF70B50400FFF704FC012597498C4201D384424CD30026FFF7DDFF2A0779
:403AC00093490B681B0B2B400FD1944202D3801884423ED38B4800688003800F16D0022801D010D31FE02A0411E04008944202D3821894422DD3902252059442EAD3801826
:403B00008442E7D225E0C022520200E06A04A02040050968490B294008D1844213D31018844210D215E07848FFF7EEFD5108844202D3081884420CD3A8204005844202D3FE
:403B40000818844205D3E92000062018E903884200D20126300070BD4C0022400000FFFF20112040440D00001C3226401F1F1515D001024014302640500102401F151F1FC8
:403B80001F1F1F1F2032264020002C409002024040002C40807E2340001826400C00214086B007008020400501685A4A1668002F09D0FC225200BA181268C023DB001340F7
:403BC000C20C934239D1544C012E01D0022E21D1406881421ED10020C04381421AD100F0FDF84E48006880474D4D4E48056031003800FFF71EFE00213800FFF7C5FD4A49CD
:403C0000484300F0BDF849480068C106C90F0ED100F032FA002F10D1002180204005FFF7B1FB06003E48864246D120003AE0404804603C480560FFF765FB0024FC204000B9
:403C400038180090220001A93800FFF789FC002824D001990298FFF795FB0600304886421CD00198002821D000980068C0214900014080291AD08220400038180568083551
:403C800029003800FFF7C5FB00280DD02B00059A0499039800F00DFB002807D1641C012CD0D92448FFF730FD2348FBE70098007860210140402901D1012400E00024174827
:403CC0000068804717480660002C10D000F036F8002801D0032106E00E480068012801D1012100E002213800FFF7A3FD02E00220FFF7F6FDFFF7C2FDFFF76CFB00BF000039
:403D0000C0002140C0202040090100F10008002800002440C4202040070100F1040D00000000FFFF2011204040420F00001026404C002240000100F1020100F138B50A4CD8
:403D4000206880470948056860688047E905C80F32BD38B5044C206880470548056860688047E802C00F32BD0C0D000000082C4014082C4000000000000000000000000061
:403D8000801C800803D0401C801EFCD100BF7047EFF3108072B6704780F310887047000080B5FFF7F5FF15490A68032313430B6080F3108801BD10B5FFF7EAFF0321C94349
:403DC0000E4A13680B4001241C4314601368194002230B43136080F3108810BD80B5FFF7EAFF0748016849004908016001E00A430260FFF7D5FF01BD0000000040C02640D6
:403E000000C02640F0B501248C40002B01D1446000E08460059D924BC318DB091B01914C1B191F242540042907D2CE001F68B440A743B5403D431D6007E00E1FF6005F6852
:403E4000B440A743B5403D435D608B000F24456C0F2199408D4314409C402C434464F0BDFEB505000C0016001F0001AA6946386900F00CFD009885420DD3220001994018B6
:403E8000001DA918884206D30024FF20801C824203D3754C0DE0754C0BE038682900F30702D4FEF74BFE04E0FEF70CFE002800D06F4C2000FEBD7CB505000C001E0001AA5B
:403EC0006946306900F0E2FC009885420DD3220001994018001DA918884206D30024FF20801C824203D3604C05E0604C03E031682800FEF723FE200076BD80B50020FFF7CA
:403F000028FAB8484078022802D000F0FDFC01BD00F07CFE01BD80B5B2484078022802D000F02CFD01BD00F0C4FE01BD80B5AD484078022802D000F026FD01BD00F0C9FE4C
:403F400001BD4C480068012800D170471CB5022815D0FFF7E0FFA44C002000900123082201212000FFF74EFF002000900123082200212000FFF746FF9C48FFF719FD13BD74
:403F8000F8B507000C0015001E00FFF7DAFF95484078022806D0210033002A00380000F0F6FCF2BD32002900380000F098FEF2BDF8B504000F0015001E00FFF7C2FF894820
:403FC0004078022806D033002A003900200000F03FFDF2BD33002A003900200000F002FFF2BD70B506000C001500182200218048FFF7D6FC002028602100300000F0F8F911
:40400000FFF794FF0320206170BDF8B5070000247848C462784D286828687849014080208005084328600326286828684020FFF7A7FE761EF8D128684000400828606D4893
:404040000460002F01D06E4800E06E482860286880210906014329606B486C490860F1BD0000CFBF0000304003001A000A001A0002001A00C4202040CCB000200290002789
:40408000002662B6FFF7C1FF614C206880210903014321608022920000215E48FFF780FC20685D49014021604E4D5C4828625C486862322028705B48A8624B4C00960123E9
:4040C0000E2201212000FFF79DFE009600230E2200212000FFF796FE6E70AE7028001430E8620220286103A8E8600BA8686002AA291D01A8FFF775FF4B49012000F018FF7D
:4041000000F029FF06E0FFF706FFFFF71AFF686900F07EF9444C00F024FF201AC40800F044FF0298001902903F19361900240198002815D141A069788900405886420FD31F
:404140000026FFF7E8FE6878401C032100F03AFF6970FFF7D2FE00BF3BA06978405C28613248874204D30198002801D1FFF7CAF8291D01A800F038FA019902290BD168698D
:404180000228C7D8291D00F039FF0028BBD028498842BFD11BE00129BCD1002810D1029468780228B6D1A8780028B3D16869012801D00228AED10120A870FFF79EFEA9E7CD
:4041C0001C49884209D102981B498842A2D302AA291D01A8FFF705FF9CE7286900F026FFF5E700001808002800013140440100F1000800281C12264004162640FFFFFFCFDF
:40420000570207003201080007010080481226400013204000080028FFFFF7FF80F0FA0250C300000000A861FFFFFF0000A3E11102001A0040001A0080841E00102700001B
:4042400010270000F0490200020A500000BF70470A46EFF30881914205D0121F001F136803609142F9D180F308887047704710B58AB001900291684603905448049054482B
:40428000059000200690079008900990514C200000F0F2FE01A9200001F054F801A9200001F071F8200000F087FF0098000C0AB010BDF7B507000C001D0047480068000788
:4042C000000F0090F026360501280BD1434800683040B021090501434048016040494148FFF7B6FF2B00029A2100380000F011F80400009801280AD13A493948FFF7A8FF43
:40430000364908680640A0200005304308602000FEBDF0B5344CA54415000B900C9111A80D9001260BA90E7300240F94109401935868C708274800F09FFE0BA9254801F024
:40434000F4F8002328003D0019AA05E0C11809786F1EFF1AD1555B1CAB42F7D319A80290039599A8049001A91A48FEF78BFA681E059099AA08E010190178059B1B1BD318DE
:404380001F7807701970641C68088442F3D36846069006A8067111A8089099A809900A9506A8FDF76BFE0B4800F006FF710299A8FDF73AFE99A8FFF749FF68460078401E81
:4043C0008041C00F09498D44F0BD0000000021100000FFFF0000104000402340C423234000080028001000289CFBFFFF64040000020000230020002A01D0002901D1764893
:40440000704713604B60704780F308880847FEE780B50022694600F039FA002804D1009841680068FFF7F0FF02BD81B0694602780A7042784A706846008801B0704780B52B
:40444000010004226846FEF779FB009802BD04B46A464018117801705178417001B0704704B50B0004226946C018FEF767FB01BD80B5801CFFF7D9FF02BD4018001D7047FB
:404480000022091D02E0491E435CD2180029FAD192B2D043401C80B2704730B50022D24300294E4B10D0047854400F2225091440A4001C596C402509224092009A586A404E
:4044C000491E401C0029EED1D04330BD10B50C0001211160082121600021FFF7CEFF226801A1FEF72BFB10BD0000000000140201F8B50C001100384D002813D0002C11D08D
:4045000000290FD01E000C3D23689A19FF27BF1CBA4207D200253200C018FEF70FFB2068801920602800F2BDF8B505000E001400FFF79EFF27680021316003002A1D211D22
:404540003800FFF7D5FFF2BDF8B50024002B02D00500032D01D3204C3BE0009108060ED11700B8070BD1FEF7A5FE00991C4A914205D31C4940180099C919884201D2B84CE1
:4045800027E0B84EED00009A29003000FFF768FF3A00291D3000FFF763FF80200003B24E316801433160B14D296801432960296A084328623A1D00210098FFF7F1F9AC48F0
:4045C000316801403160296801402960296A084028622000F2BD00000F001A00705C00170002002800FAFFFFF1B586B00E00A14DB06800900024029469460C710698006827
:40460000002801D001286FD1F36805AA20210098FFF7B6FC984F9949884203D101216A46117130E000282ED1059D0494072D27D300980078012823D10098FFF719FF0390CD
:40464000C01D85421AD3202818D80098801D0399405C172814D10098001D401801A9891C02780A7042784A706846C58803990098FFF706FF854205D0814802E0049701E02F
:40468000781C04900498050015D100984178382925D13D007B4803900098FFF7E9FE0294002809D10398002805D10025069A02A90098FFF70BFFAAE0042801D00628FAD1E2
:4046C0006D1C039E0098001DFFF7B9FE864205D1069A02A90098FFF7F9FE002597E03B2903D1022006990860B7E0B81C069A1268012A22D1312931D035291FD0372920D028
:40470000472924D0492946D04C297DD102940098FFF7AEFE092875D100980479401DFFF78EFE050000980930FFF789FE0200330029002000FFF708FF346167E074604D4D77
:404740008BE0320002A90098FFF7EEFE5EE0320002A90098FFF7E8FE05007EE00098FFF787FE0294042801D001284BD100980079022807D8310000F041FC070009D04248B8
:4047800087423FD100200099087100270120029038E00120F7E7306804900098FFF768FE05000294072D2CD90098001DFFF747FE039000980830FFF742FE05902B00083B7D
:4047C000009A0C32311D0498FFF792FE070018D1059D320071680498FFF75FFE854201D0274F0EE03300022271680398FFF763FB070006D13300012271680398FFF730FB01
:4048000007007460380001E074600294050068460079002821D10298019001200099087000994D70019A02210098FFF710FE01990098FFF725FE02000199091D0098FFF72C
:4048400006FE17200099891D019A8854962301AA0199C91D0098FFF7ABFB280007B0F0BD04001A00000800280013204080132040FFFFF7FF0F001A0003001A0040001A005B
:4048800008001A000403020102001A00064BC0001818002901D003680B60002A01D0406810600020704700BF00080028F0B501248C40002B01D1446000E08460059D884B56
:4048C000C318DB091B01874C1B191F242540042907D2CE001F68B440A743B5403D431D6007E00E1FF6005F68B440A743B5403D435D608B000F24456C0F2199408D43144086
:404900009C402C434464F0BD38B577490A68774802400A6076490978012901D1002100E00421744A1368744C1C4009022143116072490A681040724A02430A600868714DA0
:404940002800FEF79BFB704C192000900023082205212000FFF7AAFF1920009001230E2204212000FFF7A2FF68492800FEF732F9002802D06648FFF71BF831BD80B561485E
:40498000FEF77CFB01BD80B5FFF7BEFF01BDF6B597B004005F48029000266A4616705E4800685E485C4A1061002C4ED05C4802900A204343019306915748406E400639D0DA
:4049C0000020029068460078002804D10120694608703C200190002000210490042207AD504B1B688F00EB51491C521EF8D103940591049D002413E0200107A909184968EF
:404A000009030F0F082F00D908273A0007A909180831039880194019FEF790F8ED19641C059880088442E7D3039C76190698864206D308E00198401E0190642000F009FB3F
:404A400001980028B8D118980660029819B0F0BDF7B596B0002000900025179C294F386C2E4838651698002837D01798002834D001AE3570FF20B2300290357216984119CF
:404A8000082C0AD9082230000C30FEF757F80835083C08204C21705407E0220030000C30FEF74CF84C203454002401AA00213800FEF740FB002805D0164800900AE001203B
:404AC00000F0C7FA00213800FEF7D0FB0228F6D1002CD3D1189817990160009819B0F0BD0000CFBF00003040002C044000FCFFFF1908002800300440FF00FFFF00200440D6
:404B00000000FF830000524080023140DC5B0017430100F10F001A0040005240FFFFFF3F40001A00A8015240F8B504000D0016001A00069F00F02CF83A002900200000F005
:404B40000BF8A9000F22636C0F208840834332408A401A436264F1BD10B5964BC018C0090001954BC0181F231A40042907D2C90004688B409C438A402243026010BD091FB8
:404B8000C90044688B409C438A402243426010BD01238B40002A01D14360704783607047864800680068022800D0704738B5844D002206212800FFF7CFFF012206212800A5
:404BC000FFF7E6FF322000F044FA7E4C002201212000FFF7DDFF0C2000F03BFA002206212800FFF7D5FF0C2000F033FA4020A8600C2000F02EFA0220A060322000F029FA52
:404C0000182206212800FFF7A7FF31BD38B56E4D2878002801D01A2100E09B216B4A13686B48034013606B4A13686B4C1C4009022143116069490A681040694A02430A60B7
:404C400008685F4C1820009001230E2206212000FFF76AFF1820009001230A2207212000FFF762FF2878002804D0FFF799FF0120FFF7CBF9A04C200000F08AFCA8A12000B0
:404C800000F0A6FC002801D09C480FE00821200000F0E8FC0021200000F0D2FCC0218900200000F0F5FC002802D09548FEF780FE31BD10B5904800F06BFC434C2078002894
:404CC00006D00020FFF7A1F9FFF76AFF0020207010BD80B5FFF7EDFFFFF798FF01BDF1B58CB000270097874801900C9800285ED00291FA2080004243160083480190029838
:404D00000760C02189007C4800F0C2FC002835D17E48016C890534D5012401688906890E2D291CD10099002903D18079C01D02990860002203A90098754B9B5C0B54521CE8
:404D4000401C042AF8D30422724B9B181B1F1B780B54521C401C072AF6D9009000E00024654D6D49280000F0C7FC002C0DD0C0218900280000F08CFC002806D06048FEF7CD
:404D800017FE012000F065F9761E002E0FD00298026800989042BBD30028B9D003A90C98FDF7CCFE00F0DDF85C490860019701980DB0F0BD0000CFBF000030404408002834
:404DC00080003140000131401A080028102C044000FCFFFF00300440FF00FFFF002004400000FF83F1B584B00D0017001E004548039000244CA00068029000BF4BA00068DD
:404E0000019000F0AEF845490968081AC008049900296ED00095002D6BD03500FA2189004D4300993960FF219231884203D33A49314800F061FCC02189002F4800F028FC05
:404E400000283ED10098082801D8014600E00821401A0090002700228A4213D20498005D042A04D301AB9B181B1F187001E002AB9854521C641CEFE7002D38D0012000F083
:404E8000E8F86D1E214E306CC005F5D5002D2ED030688006800E2E2825D10821164800F0E1FB0021144800F0CBFB029870600198B0600221104800F0EBFB002801D103974C
:404EC00006E00F48FEF774FD012000F0C2F86D1E306C800701D4002DF6D10F49064800F00BFC002D03D000980028A4D101E005480390039805B0F0BD00805040410100F1FA
:404F0000420100F10F001A0040001A008080504084805040888050400263021F6408002800010B0001010000000000000000000010B50C0000F018F81E482102090A4160C8
:404F400000218160016802220A430260016801220A43026010BD17480168022291430160704716480068704710B51349114A0300042808D1106803431360086880221206B7
:404F800002430A6010BD0B680D4C1C400006C0239B04034023430B600868400040080860106804218843106010BD0020034908607047000010E000E00016204018E000E003
:404FC000FFFFFFFC094214D088420FD30122030C01D100041204002300185B418B4200D35B1A5241F8D319001000704701000020704708B5C046C04608BD00003EB50D002F
:405000006A4601A9FFF742FC04000BD12A0000990198FFF742FA0199009A89180968814200D0014C20003EBD02001A0038B505000C4C04E02068FEF7A3FE0B482D180B48E0
:405040008542F7D20A48006845432800FEF798FE31BD80B50100074800784843FEF790FE01BD0000400800280080FFFF018000003C08002818080028F8B506004DA00068C9
:4050800007218843C02189020143306840004008306082204001341821608E480840206080252D06306828433060B06803210143B160280C371881083800FCF7B5FF984888
:4050C000301807604168974A0A40C021C901114341600F20616801400729FBD2BD210906A160616801400729FBD2B8210906A160616801400729FBD2B4210906A1606168C4
:4051000001400729FBD2B0210906A160616801400729FBD2AC210906A160616801400729FBD2A8210906A160616801400729FBD2A4210906A160616801400729FBD2A021E8
:405140000906A160616801400729FBD29C210906A160616801400729FBD298210906A160616801400729FBD294210906A160616801400729FBD290210906A16061680140DD
:405180000729FBD28C210906A160616801400729FBD288210906A160616801400729FBD284210906A160616801400729FBD2A5600020F2BD0000000081680322914381601B
:4051C00001684900490801600020704710B55C4C001904682407240F052CFAD2E024E4050C4344604260436010BD5549401801680907090F0729FAD2C821C90541607047A3
:405200004F49401801680907090F0729FAD2CA21C90541607047F1B582B0494BC41820680007000F0728FAD2170000920D00CC26F605802D03DA0802802A0ADC4CE0802A62
:4052400017DC0298FFF7DCFF803D280207433E430BE08021491B0143314361600298FFF7CFFF009840198038064366600298FFF7C7FFF7BDF1B582B0314BC41820680007D6
:40528000000F0728FAD2170000920D00CE26F605802D03DA0802802A0ADC1DE0802A17DC0298FFF7ADFF803D280207433E430BE08021491B0143314361600298FFF7A0FFFB
:4052C000009840198038064366600298FFF798FFF7BD0000FFFFFEFF07433E436660F7BDF1B5174BC41820680007000F0728FAD217000D00D026F605802D04DA080207436A
:405300003E436660F1BD0098FFF77AFF803D280207433E4366600098FFF772FFF1BD000084140000FF80FFFF054A801802681207120F072AFAD20906416070470000000048
:405340004410000030B500BF1FA214684B69CA69A0256D014019194D2540DC07E40F2C43120280235B001A40224302608A690369FF24A343D2B21A430261CA680262096A8D
:405380000164002030BD38B505000C0020698C21490168506368226808212800FFF716FF58212800FFF7C0FF05482858C00FFBD104482858A1680860002032BDFEFEFFFF90
:4053C00004100000481400000000000070B504000D00AE68FFF709FF0020E860AB68EA6908212000FFF7F2FEF2B280212000FFF712FF70BDF8B506000C001D006068009029
:40540000E0684019E06008213000FFF7DFFE27002C00009D0AE0EAB200213000FFF7FBFE7969C9B23000FFF77FFF641BAC42F2D2F1BDF5B583B00E0070680090F4682000FA
:405440000099FFF7BFFD0191650FE4000098802801D1702700E03827CAB200210398FFF7DAFE0198B8420AD38022C1B20398FFF737FF7169C9B20398FFF756FF04E08022FC
:40548000C1B20398FFF72CFF049F2A000098411FC9B20398FFF724FF220E0098011FC9B20398FFF71DFF2202120E0098C11EC9B20398FFF715FF2204120E0098811EC9B2E6
:4054C0000398FFF70DFFE2B20098411EC9B20398FFF706FF7169C9B20398FFF725FF33693A000C210398FFF771FE3269D2B280210398FFF7BFFE039802494158C90FFBD135
:4055000005B0F0BD0410000019A0C861402048608860202008616A2048610A700020C860704780B5FFF766FF01BDF0B589B004000D68486800908E680F7B202101A8FCF78C
:4055400073FD3A0001A92000FFF7DEFF01A92000FFF73CFF009B2A0001A92000FFF7E1FF320001A92000FFF764FF002009B0F0BD6A09E667BB67AE853C6EF372A54FF53A62
:40558000510E527F9B05688C1F83D9AB5BE0CD1910B500BF0DA10968002801D1504810BD0268520052080260020084320023136053600200803213684A4C1C4014604A4A3C
:4055C0000A404A4911430160002010BD0000000030B50A000021424C00280BD0002A09D093781578002D03D01D000D3D132D01D2202B01D321001FE010A424683C4D254009
:405600001479A407A40F2C4355782D0125435B1E1C04F8235B0323402B43D4782402C025AD0025401D43527992072A43314B1340802212061A430260080030BD00000000F3
:4056400010B50A000021002801D1254908E043682F4C1C40120280235B001A4022434260080010BD10B50A000021002804D01300092B01D2002A01D1194907E04268072400
:40568000A2435B1E5B075B0F13434360080010BD70B5020000201369002A0AD0FF24A41C25000D40A54204D01A4C4D0703D5214201D00B4870BD80256D00DE0701D529429D
:4056C00008D11D4001D0CD0704D45D07ED0F03D00C4001D00D4870BD116170BD000000000100DE00FF00FFFFFCFCE07F11010C40ECFCE0B6FFFFFFCF02000020002A01D18D
:4057000005487047C023D150704700000200DE00FFFEFFFF030300000100DE007F49400108180C3001688A0701D1080001687C490160704710B50400FDF7BCFDA0218905A6
:405740008C4207D3844205D2A007800F401E8041C00F10BD002010BD80B572490968884701BDFEB5A021090600916C494001091808000C3001900068C9690905090F0291C5
:4057800081070DD10190001D06683000FFF7D2FF002805D030001C30FFF7CCFF002801D1614C9AE001246148006880470021604FCA191268002A06D1091D2029F8D35D490A
:4057C0000978002900D0002458484068804757480068804758480568544840688047C0202840401E8041C00F204206D002980F2803D152480068022801D0514C6DE0316883
:40580000002903D00022D243914209D101229300F3588B4204D1521C082AF8D3494C5CE00024009D301901782000443000F0ABF8002803D0641C202CF4D300E0424D434877
:40584000FEF79EFA39480068804700202C0031180968C2191268914200D03D4C001D2028F5D30096314840688047A0200006844233D10099002208235B1E98000858450885
:40588000344E2E40851B34482840AD08324E2E4080190509451931482840050A4019050C40194006400E1218002BE5D1B80D861A3100642000F067F8002801D1284C0CE0B7
:4058C0002248FEF75DFA194D2868804719480078B04200D0234C686880470025A0200006844215D1AE1D3100002000F03FF81748FEF746FA0D48006880470F480068C02102
:405900000140F140C80700D4174C0848406880476D1C012DE2D901980460F7BD000022400B0000F0540D00000F0000F00C0D000044082C4064082C4000082C40C4202040EF
:40594000080000F0E50000F0EB0000F0AC0D0000E80000F055555555333333330F0F0F0FEC0000F0E90000F0EA0000F080B50A0081088007800FD5231B011B689847401E51
:405980008041C00F02BDF8B501270126002400900D003D4205D021000098FFF7E7FF002804D06D08641C082CF3D300E000263000F2BD000030B565288041C043C00F56497E
:4059C0000322D2434B6C134003434B64534B4C6C1C404C64524C25681540054325600D68154005430D600D6A2A4002430A6222681A4022600A681A400A600A6A13400B62DE
:405A000048490A680F239A431043086030BD70B5454C464DA0682840802189050143A160434E30688220FEF7ABF900202060706030680540356030680320FEF7A1F970BDC2
:405A4000F8B504000021FDF79FFE002C09D0012C07D0FC214900611809788907890F032951D00090FFF7D3FF0025324F3D608020000638640098082844D0192800D01025E6
:405A80006420FFF797FF2A4C2BA04119C96861604159254A116041194968516040198068906020681E2560688021090601436160012605E0002D18D00820FEF761F96D1E77
:405AC000A06880083040F5D0002D01D1A0681DE015480168802212060A43026005E0002D14D00820FEF74CF96D1EA0683040F6D0002D0BD0A06802210143A160386CA10DC3
:405B0000014339640098FFF755FFF1BDFFF77FFF08200090F6E7000080132040FFFCFFFF001320400000244030152640FFFFFFCF381526400012264090010001400013039E
:405B400059080000FF007C00900100012000130379080000FF02EB00FDF7ACFB80F30888194C2068012809D11848006880470120FDF780FDFEF7EDF8FDF7CAFE0120FDF7BA
:405B8000E8FB13480168802252050A430260FDF717FF1048FDF7BDFC0500FFF751FF012D04D0002D05D12068032802D10A48FDF7ABFD2068012802D12800FDF721FE2800DC
:405BC000FDF7EEFF00BF00BFC4202040040D000004102640007C0017010100F1000000000000000000000000000000000000000000000100260909000000000000000000B8
:405C00000000000001000000382000170000000000000000FFFFFF1F02020101000000000000040100000000000200000000000000000000000000000000000000000000CB
:405C4000000000000000000000000000000000000000000000000000000000000000000000000000000000000000000000000000000000006FC75E10DE8EBD20B149E3302A
:405C8000BC1D7B41D3DA25516293C6610D549871783BF68217FCA892A6B54BA2C97215B2C4268DC3ABE1D3D31AA830E3756F6EF3000000000000000000000000000000005E
:405CC00000000000000000000000000000000000000000000000000000000000000000000000000000000000000000000000000000000000000000000000000000000000A4
:405D00000000000000000000000000000000000000000000000000000000000000000000000000000000000000000000000000000000000000000000000000000000000063
:405D40000000000000000000000000000000000000000000000000000000000000000000000000000000000000000000000000000000000000000000000000000000000023
:405D800000000000000000000000000000000000000000000000000000000000000000000000000000000000000000000000000000000000000000000000000000000000E3
:405DC00000000000000000000000000000000000000000000000000000000000000000000000000000000000000000000000000000000000000000000000000000000000A3
:407C0000FC010000201221010000000000000010000000000000000000000000000000000000000000000000000000000000000000000000000000000000000000000000E3
:407C40000000000000000000000000000000000000000000000000000000000000000000000000000000000000000000000000000000000000000000000000000000000004
:407C800000000000000000000000000000000000000000000000000000000000000000000000000000000000000000000000000000000000000000000000000000000000C4
:407CC0000000000000000000000000000000000000000000000000000000000000000000000000000000000000000000000000000000000000000000000000000000000084
:407D000003000000000000000076001700000000000000000000000000000000000000000000000000000000000000000000000000000000000000000000000000000000B3
:407D40000000000000000000000000000000000000000000000000000000000000000000000000000000000000000000000000000000000000000000000000000000000003
:407D800000000000000000000000000000000000000000000000000000000000000000000000000000000000000000000000000000000000000000000000000000000000C3
:407DC000000000000000000000000000000000000000000000000000000000000000000000000000000000000000000000000000000000000000000042020000000000003F
:401C00000004000040000000FFFFFFFFFFFFFFFFFFFFFFFFFFFFFFFFFFFFFFFFFFFFFFFFFFFFFFFFFFFFFFFFFFFFFFFFFFFFFFFFFFFFFFFFFFFFFFFFFFFFFFFFFFFFFFFF98
:401C4000FFFFFFFFFFFFFFFFFFFFFFFFFFFFFFFFFFFFFFFFFFFFFFFFFFFFFFFFFFFFFFFFFFFFFFFFFFFFFFFFFFFFFFFFFFFFFFFFFFFFFFFFFFFFFFFFFFFFFFFFFFFFFFFFA4
:401C8000FFFFFFFFFFFFFFFFFFFFFFFFFFFFFFFFFFFFFFFFFFFFFFFFFFFFFFFFFFFFFFFFFFFFFFFFFFFFFFFFFFFFFFFFFFFFFFFFFFFFFFFFFFFFFFFFFFFFFFFFFFFFFFFF64
:401CC000FFFFFFFFFFFFFFFF595700171D5700171D5700171D5700171D570017635700171D5700171D5700171D5700171D5700171D5700171D5700171D5700171D570017D0
:401D00001D5700171D57001700BF00BF00BF00BF704700000000000000000000000000000000000000000000000000000000000000000000000000000000000000000000DA
:401D40000000000000000000000000000000000000000000000000000000000000000000000000000000000000000000000000000000000000000000000000000000000063
:401D80000000000000000000000000000000000000000000000000000000000000000000000000000000000000000000000000000000000000000000000000000000000023
:401DC00000000000000000000000000000000000000000000000000000000000000000000000000000000000000000000000000000000000000000000000000000000000E3
:00000001FF