:020000041000EA
:10000000000002288D370010F93B0010013B001062
:1000100000000000000000000000000000000000E0
:100020000000000000000000000000001D3B001068
:100030000000000000000000FD3B0010013C00102B
:10004000F1330010173400103D34001063340010F9
:1000500089340010AF340010D5340010FB34001088
:10006000053C0010093C00100D3C0010113C001034
:10007000153C0010193C00101D3C0010213C0010E4
:10008000FDB5B2B03A98049102A93B2288540020F1
:100090000D9026A8401C31900DE00498329A9047AC
:1000A0000490002801D100F027FF0D98401C0D900E
:1000B0003398401C339033980178002910D02529BB
:1000C000EBD100200790089009900A900B900C90BB
:1000D000002102240120139008201290339D05E096
:1000E0000D9800F00BFF0800139901436D1C287850
:1000F0002028F8D023280BD02B2804D02D2804D07A
:10010000302808D00AE02143F0E708000421ECE79A
:1001100008000821E9E708001021E6E72A280FD1A6
:10012000349802681068121D349B1A600F900028E2
:1001300004D542420F920800042101436D1C12E0D5
:1001400000200F90654A09E00F9B934205DA9E005C
:10015000F3185B00181830380F906D1C28780300D6
:10016000303B0A2BF0D328782E2803D00020C04340
:100170000E9027E06D1C28782A2808D13498006852
:100180000268001D349B18600E926D1C1AE02D2829
:1001900002D12D226D1C00E0002200200E900CE008
:1001A000002A09D10E9B4D4EB34205DA9E00F3188A
:1001B0005B00181830380E906D1C28780300303B17
:1001C0000A2BEDD302A801872E78310041487844EC
:1001D000FF30C01C00F076FF002801D06D1C00E04D
:1001E000002602A83A214654405C682804D12878A9
:1001F00068280BD1622005E06C2807D128786C288C
:1002000004D1712002A93A2288546D1C17A80690C7
:10021000287869460870681C339068460278100098
:10022000253833D01C3800D10EE2001F022800D838
:100230000AE2133801D100F083FD093800D103E24E
:10024000801E01D100F019FE401E01D100F0C6FD54
:10025000401E022800D8F7E1001F01D100F0BEFDCA
:10026000401F00D149E1401E01D100F069FD401E50
:1002700000D1EBE0C01E10D0801E01D100F060FD67
:10028000C01E01D100F05CFD00F002FE252017A980
:1002900008701398079000F006FE34980068046810
:1002A000001D349908600594002C00D0BAE002A823
:1002B0003B21405C002800D1ADE00024E443064827
:1002C0007844143000F008FF201A01D000F014FE2A
:1002D00000F0E9FD2435000058350000CBCCCC0CF3
:1002E000641E01D000F0FEFD3295079D17AC002D75
:1002F0000FD0329E227802A9300000F0B7FE00280D
:1003000002D4641C6D1EF5D13296002801D000F095
:10031000F3FD3020694608700A9C002C0DDD329DEB
:1003200001236A4602A9280000F0B1FE002801D08E
:1003300000F0E2FD641EF3D13295059C089D002D6E
:100340000FD0329E227802A9300000F08FFE0028E4
:1003500002D4641C6D1EF5D13296002801D000F045
:10036000CBFD302769460F700B9C002C0DDD329DB4
:1003700001236A4602A9280000F089FE002801D066
:1003800000F0BAFD641EF3D132950598089944181F
:10039000099D002D0FD0329E227802A9300000F076
:1003A00065FE002802D4641C6D1EF5D1329600282B
:1003B00001D000F0A1FD684607700C9C002C0DDDFB
:1003C000329D01236A4602A9280000F060FE002841
:1003D00001D000F091FD641EF3D1329502A83821BE
:1003E000405C400700D466E620206946087001980A
:1003F000002800DC5FE6019C329D01236A4602A9C9
:10040000280000F044FE002801D000F075FD641EB5
:10041000F3D132954FE63F487844FF30C01F059036
:1004200000F041FD0E9D002D03D5200000F078FE68
:1004300009E02A000021200000F07AFE002801D007
:10044000001B00E02800089000F02DFD34980068A3
:100450000268001D349908600020C043002110404C
:1004600002AA03C217A80590069A3C2302A803C853
:10047000002904D1002802D10E9C002C13D05B1E51
:1004800005072D0F3035EEB23A2E00DB2735D55457
:1004900000090C072043090901D1002803D0059C5D
:1004A000D518AC42EBD33C20C01A0890D118059166
:1004B0000E99884208DA081A0A9002A8018FB54AF4
:1004C0000A40028700F0EFFC002901D400F0EBFCA9
:1004D00002A93822895C14220A40102A01D000F0B7
:1004E000E2FC0F99079A891A0A9A891A081A0028B1
:1004F00001DC00F0D8FC00F021FC02A83B21415CAB
:10050000002909D00024E4434B487844FF302B30C5
:10051000D8E600BF383300003A21405C62286AD038
:10052000682819D06A2845D06C2806D071284FD089
:10053000742831D07A2821D06FE03498006801689F
:10054000001D349A106000297AD10024E4433B480E
:100550007844FF301738B5E6349800680168001D0C
:10056000349A1060002905D10024E44333487844CC
:10057000CA30A7E60D98088000F095FC3498006812
:100580000168001D349A1060002959D10024E44309
:100590002A487844A63095E6349800680168001D22
:1005A000349A106000294BD10024E4432348784456
:1005B0008A3087E6349800680268001D3499086024
:1005C000002A13D10024E4431C4878446E3079E6B5
:1005D000349800680268001D34990860002A05D12B
:1005E0000024E4431548784452306BE60D98C11757
:1005F00003C200F058FC349800680168001D349A6A
:100600001060002905D10024E4430C4878442C30C4
:1006100058E60D98087000F046FC349800680168B0
:10062000001D349A106000290AD10024E4430348D5
:100630007844083046E600BFC8310000DC310000D5
:100640000D98086000F02FFC34980368DB1D07202C
:1006500083433498036003CB349D2B6002AB03C308
:100660002023C80F04D007982D2117AB19540DE093
:1006700002A8008F204204D007982B2117AB1954F1
:1006800004E0C00704D5079817A90B54401C079035
:1006900017A807994318059326AC02A803C814AD00
:1006A00003C56846007820210143684681706129AE
:1006B00009D00E98002801D5062003E003D1672950
:1006C00001D113980E9002A803C808004D006D15C3
:1006D0006D1C10D109030ED003200890613A1A2A2C
:1006E00004D24E497944FF31353111E04C49794407
:1006F000FF312F310CE0002D0FD100030DD103206D
:100700000890613A1A2A15D346497944FF311731C6
:100710000322180000F032FDC5E302A80CC8B9A0FE
:1007200003C81940002680277F03B94207D2002062
:1007300059400DE03C497944FF311139E8E7080D93
:10074000AE4E361810001900B04B0B40AC4919439F
:1007500002AA03C26846807861280FD1059830212B
:100760000170811C059169460978612901D17821C0
:1007700000E0582141700798801C079002A803C828
:10078000A0A20CCA02400B4006D1002A04D10026C8
:1007900000257EE1EFFF000068468078612800D0E8
:1007A000B8E00E98002801D5212000E0401C1690EA
:1007B000169F7F1C14A803C80022002300F0EBFC46
:1007C00002A830C802D2802000064540361F01969C
:1007D00026A90A7026A8461C002F53DD20002900F8
:1007E000002280235B0300F0EFFC4BD828004A0076
:1007F000530D1A001C32002B18D0002A16DDAE4B08
:100800009A4205DB1B05802212061040184310E0B7
:100810007E480840110501430D000CE03430000013
:1008200034300000383000003030000080221206E2
:100830001040002405002000290000F0DFFC149087
:10084000FF1F002F09DD00F013FD02000B00200048
:10085000290000F074FD04000D00F01D0721149A1A
:10086000002A0ADD491E08D4401E13071B0F03701F
:100870001211F5E7401E00220270491EFAD5C61D6E
:10088000002FABDC26A83199711A26AA541C169A9F
:100890000E00914200DD1600002E34D48E4205DA9F
:1008A000411C895D082901DB0F2100E00021320095
:1008B00026AB9B1801E0761E5B1E521E1D788D42F2
:1008C000F9D00F2904D1411C895C491C401C81547A
:1008D000002A04D526AC761C0198001D0190711EDB
:1008E00011D462186846007813783033DDB23A2D9F
:1008F00002DB05003A3D5B191370491E521E0029A8
:10090000F2D5694608700E98002800D4C0E0701E29
:100910000E90BDE014A830C86D006D086849300025
:100920004843684900F098FD019007200199401A5A
:1009300005DD02002000290000F072FB0AE04242BF
:100940000020614900F06CFB02000B002000290030
:1009500000F0DCFD6A469278662A02D1019A0A32DA
:1009600000E006220E9B9A18142A00DD142226AB02
:1009700030241C705C1C02E014A803C8169A002ADC
:1009800046DD14AB03C3169214A803C800F048FC5C
:10099000309006460834042530000A2100F05FFD3F
:1009A0000F0030000A2100F05AFD06003037601EAB
:1009B000077030000A2100F052FD0F0030000A21BC
:1009C00000F04DFD0600A41E303727706D1EE3D1E8
:1009D00008341698083816900028CDDD309800F0BD
:1009E00037FC02000B0014A803C800F0A8FC00228A
:1009F000364B00F0ECFD14AA03C2C5E702FCFFFF72
:100A00000000E03FFFFFFFFFFFFFFF7FFFFF0F80C2
:100A10003198201A26A94C1C019902E0401E491E5B
:100A2000641C2278302AF9D00191694689786629B8
:100A300002D10199491C06E069468978652901D1EE
:100A4000139900E000210E9A5618B04200DA461EB3
:100A5000002E1DD4864204DAA05D342801DD392140
:100A600000E030213200601E831801E0761E5B1E1C
:100A7000521E1D788D42F9D0392902D1A15C491C42
:100A8000A154002A04D50400761C0198401C019052
:100A9000019D68460078694648700E9F30B2002874
:100AA00003DC139E054C7C4412346846807866282B
:100AB0000ED16D1C26E000BFFF070000A42D000032
:100AC00097750000A08601000000F03F84D7974191
:100AD00068468078672846D128B20321C9438842F6
:100AE00047DBB84245DA6D1C02A8008F1299C0B2EC
:100AF000084203D130B2B84200DA070028B23F1AE8
:100B000000D5002728B2002800DDB5E00898411C78
:100B100008913021059A1154002F05DC02A8008F9E
:100B20001299C0B2084205D00898411C08912E21A4
:100B3000059A115428B241428F4200DA7D422DB20B
:100B400068420B907D1930B2854200DA2E0036B231
:100B50000996320021000598089BC01800F00EFB92
:100B6000A81B0C90D4E068464078612818D170200A
:100B70001BE030B2B84206DA02A9098F129AC9B254
:100B8000114200D107007F1E00D50027684640783B
:100B9000672802D16520694607E04520694604E0E0
:100BA00068464078412801D1502048700898411C7F
:100BB00008912178059A1154611C002F05DC02A8C8
:100BC000008F129AC0B2104218D00898421C0892A6
:100BD0002E22059B1A54002F10DD741E20B287426E
:100BE00000DA3C0022B20598089BC01800F0C6FA53
:100BF00024B2089800190890381B0B9005980899A2
:100C0000401869464978017029B2002903D42B2184
:100C10004170861C03E02D224270861C4D42002448
:100C200012A928000D0005E00A2100F015FC29702A
:100C3000641C6D1C00B20028F6DC012C08DC684640
:100C4000407820210143652902D130203070761C84
:100C5000002C09D130203070761C07E0641E12A8E9
:100C6000005D30303070761C002CF7DC0598089958
:100C70004018301A09904BE030B229B288421DDA90
:100C800032B221000598089BC01800F077FA36B2FE
:100C90000898801908902DB2A91B0B91002F05DC34
:100CA00002A9098F129AC9B2114205D02E21059AC4
:100CB00011540998401C09900C9729E02AB2210090
:100CC0000598089BC01800F059FA28B2089909182D
:100CD0000891751B002F05DC02AA128F129BD2B25D
:100CE0001A4204D04A1C08922E22059B5A5429B25B
:100CF0008F4200DA3D002AB221180598089BC018DF
:100D000000F03CFA2DB2089840190890781B0B901F
:100D100002A83821405C14210140102900D0C2E013
:100D20000798089940180B994018099940180C9990
:100D300040180F99884200DBB5E0081A0A90B2E02B
:100D400002AA3A20105C622808D068280ED06A28CF
:100D500014D06C281DD0712810D01AE03498016886
:100D60000868091D349B1960C0B218E03498016806
:100D70000868091D349B196080B210E0349803683C
:100D8000DB1D072083433498036003CB349C23602E
:100D900006E0349801680868091D349B1960002139
:100DA00002AB03C3108F1299C0B208425BD002A8F5
:100DB00003C8002901D1002855D0684600782021B9
:100DC000014378294FD1079817A930220A54401CB3
:100DD000421C07926A4612780A5444E002AA3A205A
:100DE000105C622808D068280ED06A2814D06C28BD
:100DF0001DD0712810D01AE0349801680868091DC8
:100E0000349B196040B218E0349801680868091DE5
:100E1000349B196000B210E034980368DB1D072092
:100E200083433498036003CB349D2B6006E03498F1
:100E300001680868091D349B1960C11702AB03C320
:100E4000002902DA07982D2109E0108F204202D0F4
:100E500007982B2103E0C00705D50798202117AA82
:100E60001154401C079017A8079940180590684630
:100E7000017802A800F044F815E013980790349820
:100E800000680168001D349A106017A801700AE01C
:100E9000252017A908701398079068460078002845
:100EA00001D04A7007940F980799401A0A99401A7E
:100EB0000899401A0B99401A0999401A0C99401A3E
:100EC000019002A83821405C400701D5FFF70DFAD8
:100ED0002020694608700198002801DCFFF705FA18
:100EE000019C329D01236A4602A9280000F0CFF838
:100EF000002801D1FFF7F4F90020C04335B0F0BD60
:100F0000F2B586B0040025696F2901D1082707E0F2
:100F1000084620210143782901D00A2700E0102744
:100F20003C2603CC083C04AA03C26A46127E642A0B
:100F300003D06A46127E692A09D1002907DA04A87B
:100F400003C800220023121A8B4104A80CC004A875
:100F500003C800290DD100280BD1206B002808D12F
:100F6000082F3BD13820205C000737D53B263020A6
:100F700033E00294009504A830C8761E0196200044
:100F800029003A00FB1700F0E4FB3032D0B23A28D7
:100F900003DB6846007E5138121800988255200005
:100FA00029003A00FB1700F0D4FB04000D0001D12A
:100FB000002C05D00298C068009989198842DCD3BA
:100FC000029C009D082F09D13820205C000705D520
:100FD000A85D302802D0761E3020A8553C20801B0A
:100FE000A061A919E160216B884206DA081A206223
:100FF000208F1C490140218710E000290ED538219F
:10100000615C14220A40102A08D1616B6269891A56
:10101000226A891A081A002800DD206207B0F0BD94
:10102000F8B50026104F04000D00009214E0C00730
:1010300007D532003B002000290000F0C8FA040068
:101040000D000098401000903000390032003B0045
:1010500000F0BDFA06000F0000980028E7D120003C
:101060002900F4BDEFFF00000000244010B503008C
:101070000C001100A0689847A060002804D0E06A26
:10108000401CE062002010BD0020C04310BDF8B538
:101090000024002B11D007000E0014001D00217841
:1010A000B068B847B060002809D0F06A401CF06210
:1010B0000020641C6D1EF2D104002000F2BD00204F
:1010C000C043F9E7C9B202788A4203D0401C002A23
:1010D000F9D100207047000080B5002801D100BF81
:1010E00007A006490B68002B03D022220021984755
:1010F00001E000F063FB222002BD0000541500282F
:10110000636F6E73747261696E742068616E646C73
:1011100065723A20626164206D6573736167650072
:10112000431C0178401C0942FBD1C01A70470000E3
:10113000C9B2521E05D30378401C8B42F9D1401E20
:10114000704700207047000070B4103A03D378C98C
:10115000103A78C0FBD2530701D318C918C001D583
:1011600008C908C0D20704D30B880380891C801CDF
:10117000002A01D50B78037070BC70478B0701D132
:101180008307E1D0124205D00B78491C0370401C44
:10119000521EF9D1704730B4012464054D00EC4271
:1011A0000BD85D00EC4208D80C001C4364000443DB
:1011B000144304D2994200D1904230BC7047FCD015
:1011C0008B42FAD18242F8E730B4012464054D0025
:1011D000EC420BD85D00EC4208D80C001C436400C4
:1011E0000443144304D28B4200D1824230BC704786
:1011F000FCD09942FAD19042F8E70000F4464A1830
:1012000005D200F00FF801D580174008604700F0C4
:1012100009F80121C907884200D908004042604707
:101220004A1812D2400DC90208430121C9070843D8
:10123000520D40210901521A521C06D452421F324B
:1012400001D4D0407047C01770470020704700009D
:10125000010042221201D21E004207D002D4521EC7
:101260000018FCD5C10A4005120589187047000016
:101270000100EED54042F446FFF7EBFF0122D20712
:10128000114360478B4200D1824205D98446100049
:1012900062468C4619006346DF184C18640D7F0DBA
:1012A0003AD0661C760537D0E61B352E34DCDB02DF
:1012B0002B43DB0A0C0DC9022943C912202E0DDB7A
:1012C0001700203E06D01F00F741F3405F40002684
:1012D000012A7741C01871410DD217E01700F7417C
:1012E000F2405740F3415A40B340F3405A40002681
:1012F000801859410AD3A21C52050FD0C207012FF2
:10130000724117004008CB0718434908641C2405A4
:101310004208AF4170416141F0BC7047641C210537
:101320000020F9E76B4010E06B40ABE7F742F3D1E8
:10133000E943F1E72442EFD100200021ECE7F0B4CB
:101340000125ED070F005F40EED40C00871A9C4189
:1013500005D2C01BA141D219634169406B40AE0A5E
:10136000DF184C18F442E1D2640D7F0DE2D0E61B89
:10137000362ED1DCDB022B43DB0AA4460C0DC9025E
:101380002943C90A012E28DC04D1D6075208DF07F9
:101390003A435B08EF0A76429041994114D03942B2
:1013A0003BD1B61940414941761C394204D1761CE3
:1013B000001849413942FAD0B9436746B74208D9C3
:1013C000A41B24052143A7E70042EAD13642E8D115
:1013D000A2E7E40AE10700209EE7202E0BDD203E75
:1013E0001F00F340F7415F40012A002257417E422F
:1013F000984191410BE01700F741F2405740F3410B
:101400005A40B340F3405A407E42904199410A030A
:1014100003D2641EB619404149410027641E2405C9
:101420004208AE4178416141F0BC7047F446002863
:1014300004D4494200F013F840426047404200297A
:1014400005D45FD000F00BF8404249426047494262
:1014500000F005F84942604703460B43E6D40022FA
:10146000030A8B420BD203098B4219D243088B42E9
:101470002ED2411A00D20146524110467047FF2237
:1014800009023FD012068B4205D3121209028B4289
:1014900001D31212090203098B4219D300E0090A91
:1014A000C3098B4201D3CB01C01A524183098B423D
:1014B00001D38B01C01A524143098B4201D34B0126
:1014C000C01A524103098B4201D30B01C01A524189
:1014D000C3088B4201D3CB00C01A524183088B4210
:1014E00001D38B00C01A524143088B4201D34B00F9
:1014F000C01A5241884200D3401A5241CFD201460D
:101500001046704708B500F05FF908BDF0B40E0052
:101510005E400125ED072E40B446AE0ADF184C1898
:10152000F4423BD2F74241D2640D43D07F0D38D014
:10153000E41BC902DB0229432B43CF0ADB0A060066
:10154000B61A9F4104D2641EB6197F41B6185F4196
:101550006812800D24180018844222DAE80C002159
:10156000B6197F41B61A9F4102D2B6185F413F1C9F
:1015700040414941F4D3241C21DD2405B6197F41A3
:10158000B61A9F4105D33743C60737430026012FBC
:101590007041614166463143F0BC7047FCD1F7426F
:1015A00005D20020C14349054908F3E704D00020D3
:1015B000C143F1E77F0DFAD000206146ECE72442F9
:1015C000FAD1401C61410F03F6D30020E2E7F0B5E9
:1015D0000E005E400125ED072E40B446AE0ADF182E
:1015E0004C18F44208D2F7420ED2640D01D07F0DA0
:1015F00012D100206146F0BD05D1F74201D87F0D20
:1016000005D10020C143F0BDFBD1640DF9D000200D
:10161000C143490549088FE0E419C902DB022943A7
:101620002B43DB0A460DC00231438E4630B487B2ED
:1016300095B27D432E0CADB2140C7C43A419260C3C
:10164000240425439CB27C43A419190C7943270C2C
:10165000C919A4B20F043C43090C000C97B24743CC
:101660002E0CBE193543ADB2170C4743360CBF19CB
:10167000A6B2BF193E043543240C3E0C36199FB266
:101680004743BF19BCB23E0C89191F0C47437F1852
:101690003E043443390C704680B297B247432E0C57
:1016A000BE193543ADB2170C4743360CBF19A6B26D
:1016B000BF193E043543240C3E0C36199FB24743F4
:1016C000BF19BCB23E0C89191F0C47437F183E045A
:1016D0003443390C77463F0C90B278432E0C801976
:1016E0000604ADB22E43050CA0B22D18120C7A439D
:1016F0005019020C80B2240CA4189AB27A43121921
:1017000014042043120C89181B0C7B43C91830BCED
:10171000EF0A394203D1B61940414941641E6F12A4
:10172000BF0DE41B0BDBFF19BC4211DA24050027B7
:101730004208AE417841614166463143F0BD641CC8
:1017400005D1401C6141CF0201D34908F4E750E7BD
:101750005DE7124224D0994228D970B500251B427A
:1017600002D00C00002109E0002401264918644140
:10177000944200D3A41A7641F8D33100012601E047
:10178000764109D2001864416D41A41A9D41F7D2F7
:10179000A4185D41B619F5D3300022002B0070BDAE
:1017A0001B42D8D108B500F011F808BD01D1904214
:1017B000D3D202000B0000210020704780B5012029
:1017C00000F006F801BD00007047000070470000FF
:1017D00080B500BF00BF024A11001820ABBEFBE776
:1017E0002600020000B5012029490A68520802407B
:1017F000002A02D10968084000E0022000BD294803
:1018000001680800C007C00F704700B50200921FB2
:10181000032A01D3012002E0801F0860002000BDE0
:101820001CB5FF246946FFF7F0FFC0B2002802D0C4
:101830002000C0B208E03C480099042251434158BE
:101840000800C007C00FC0B216BD00B5002801D007
:10185000062801D3012002E0401E0860002000BDE0
:101860001CB5FF246946FFF7F0FFC0B2002802D084
:101870002000C0B209E030480099102251434018BE
:10188000C1680800C007C00FC0B216BD000000004C
:10189000241526402948006881080800C007C00FA9
:1018A000704700004015264010B504002000C0B26B
:1018B0000E280AD318222249224800F0B1FB224800
:1018C00022490860002000F00BFC22482100C9B228
:1018D0000422514341580A00D205D20F002A01D1F7
:1018E000FF2005E0E4B204214C4300590007000F3B
:1018F00010BD000010B504002000C0B20E280AD3AD
:1019000018220F490F4800F08BFB11480F4908605F
:10191000002000F0E5FB0F48E4B204214C430059DD
:1019200000098007800F10BD401626400D48006852
:10193000000AC0B27047000000192640100027407E
:1019400064380010201500285908000038150028B8
:101950008E0800004012264003480068000AC0B20A
:1019600070470000101020400810204010B50400FF
:101970000B2C0BD318221249124800F051FBCE2039
:10198000400011490860002000F0AAFB0B48042128
:10199000614340584007400F010009B2042908D1B3
:1019A000054804214C430059C106C90E802040005F
:1019B000084300B210BD000000012640001226407E
:1019C000C438001020150028381500281C49096863
:1019D0008A03920B0260090E0A00D207D20FC2716D
:1019E000184909680A00D204D20C82800A00120C3D
:1019F000D2B20281090CC9B24181274909680F227C
:101A00000B00134003730B091A4042730A0AD204F5
:101A1000D20CC281090F8907890F01740A4909682C
:101A20000A0A5207520F82710A00120CD205D20D17
:101A30004282890F0A00D207D20F02757047000058
:101A400030152640341526403C1526401CB50C00A8
:101A50006946FFF7DAFE0100C9B2002901D0C0B221
:101A600018E00E4800990422514340584106490E9F
:101A700021601F21020A0A406260020C1140A1602D
:101A8000010F8907890F6173C00E0100C907C90FD3
:101A90002173002016BD0000381526400016264090
:101AA0001CB50C006946FFF7D0FE0100C9B2002941
:101AB00001D0C0B236E01C48009910225143415871
:101AC000CAB222601F220B0A134063600B0C1A403B
:101AD000A260090F8907890F2173009910225143D1
:101AE00041184A68D10F61730721130F0B40002B77
:101AF00001D0012300E00023A3731202120A226125
:101B0000009A10235A4380188068C20F2275020E73
:101B10001300DB07DB0F63750200A275000C0140A8
:101B2000E175002016BD00000019264080B50100B7
:101B300086481822FFF708FB01208549087000201D
:101B400002BD000000B583490968C90F002903D10F
:101B50000021016003200BE07D490978002904D0B1
:101B60007A4909680160002002E000210160032039
:101B700000BD000010B50400FFF734FE002803D1BB
:101B80000020206003200BE071480078002804D07A
:101B90006E4880682060002002E000202060032062
:101BA00010BD00B56A490978002904D06749496821
:101BB0000160002002E000210160032000BD000060
:101BC00000B565490968C90F002903D100210160EA
:101BD00003200BE05E490978002904D05B49C968FD
:101BE0000160002002E000210160032000BD000030
:101BF00000B55A490968C90F002903D100210160C5
:101C000003200BE052490978002904D04F490969A3
:101C10000160002002E000210160032000BD0000FF
:101C200010B50400FFF736FE002803D10020206025
:101C300003200BE046480078002804D04348406960
:101C40002060002002E000202060032010BD000082
:101C500010B50C00C0B2FFF789FE00280CD0401E62
:101C60000ED0401E10D087214900401A10D0401ECF
:101C700012D0C01E14D017E02000FFF763FF16E05B
:101C80002000FFF78EFF12E02000FFF773FF0EE049
:101C90002000FFF795FF0AE02000FFF7C1FF06E0F4
:101CA0002000FFF7A5FF02E000202060032010BD08
:101CB00080B501000020FFF7CBFF02BD80B50722F1
:101CC000D2B2824203D200200860012003E0401C0F
:101CD000C0B2FFF7BDFF02BD30B587B00400684653
:101CE000FFF7E6FF0100C9B2002903D000212160FF
:101CF000C0B228E001A8FFF769FE01AD287C0228E8
:101D000003D10098206000201DE079480068C00FD2
:101D1000002803D100982060002014E0FFF76FFD39
:101D2000C0B2002803D10020206003200BE00098FF
:101D300001994843A988FFF792FBE979491CFFF70D
:101D40008EFB2060002007B030BD00000815002881
:101D50005815002818152640081526400C15264051
:101D6000F0B58BB004000D0069462000C0B2FFF74B
:101D7000A5FF0100C9B2002903D000212960C0B22B
:101D8000B3E02000C0B2052846D307A92000C0B2A6
:101D9000401CFFF75BFEC0B200280AD0182255494C
:101DA000554800F03DF9554855490860002000F0BD
:101DB00097F954482100C9B20422514340181438FD
:101DC0000068C00F002803D10098286000208CE034
:101DD00007A8407B022803D100982860002084E0F7
:101DE000E4B2641C2000FFF71BFD0100C9B200290A
:101DF00002D0C0B2FF2803D100202860032074E085
:101E00000098079948430899FFF729FB0999FFF7BC
:101E100026FB2860002068E001A92000C0B2401C19
:101E2000FFF73EFEC0B200280AD0182231493248DE
:101E300000F0F6F85F4832490860002000F050F9E1
:101E40005D482100C9B2102251434058C00F0028FC
:101E500003D100982860002047E001AE307B0228C3
:101E600003D10098286000203FE0E4B2641C200009
:101E7000FFF7F6FC0100C9B2002902D0C0B2FF286A
:101E800003D10020286003202FE0707B012821D19E
:101E900000980021019E00273F06320A17433606AC
:101EA000059A002392197B4100F03EF906000F00CD
:101EB00002980021039A002300F036F902000B007B
:101EC00030003900FFF745FC000E0A021043090EEE
:101ED000286009E00098019948430299FFF7BFFA8A
:101EE0000399FFF7BCFA286000200BB0F0BD00009A
:101EF00030152640C4380010201500285C09000069
:101F0000381500280016264010B50723421E04008D
:101F1000E4B2002C03D10800FFF7DEFE0CE0140051
:101F2000DBB2E4B2A34204D31000C0B2FFF718FF43
:101F300002E0C0B2FFF78CFE10BD38B504000D0002
:101F40002000C0B2FFF7B0FC0100C9B2FF2904D1E4
:101F50002800FFF7F7FDC0B21BE06946C0B2FFF7EB
:101F6000D3FF0100C9B2002903D000212960C0B20B
:101F70000FE02000C0B2FFF7BDFCC0B2002805D0C2
:101F800002280BD006D303280CD00FE0009828605D
:101F9000002032BD009840082860F9E700988008CA
:101FA0002860F5E70098C0082860F1E70020286065
:101FB0000320EEE778090000001926401CB5040054
:101FC00069460020FFF7B9FF0100C9B2002903D01C
:101FD00000212160C0B208E0FFF7A8FC01000098D2
:101FE000491CFFF73CFA2060002016BD1CB5040018
:101FF0006846FFF7E3FF0100C9B2002901D0C0B273
:1020000008E0FFF7A9FC01000098491CFFF727FA38
:102010002060002016BD80B5FFF7E8FF02BD00007C
:1020200071B58B0709D0521E28D30B780370401C62
:102030001B421FD0491C8B07F5D1121F3ED3274CE2
:10204000E50140C9331BB3432B4209D1830716D1A5
:1020500040C0121F32D340C9331BB3432B42F7D0C9
:10206000121DFF231E4205D00670401C360A521E68
:102070001E42F9D11100002200F070F871BDDB4260
:1020800016D0401E4670360A4680360C0671001D7A
:10209000121F06D340C9331BB3432B42F2D0401C5E
:1020A000DEE7401C0AE040C9331BB3432B42D7D1C3
:1020B0000680360C4680001D121FF4D2121D0BD074
:1020C0000B780370521E07D0401C491C1B42F7D1ED
:1020D0000370401C521EFBD171BD000001010101C3
:1020E00000B501BEFEE780B50C4A0D490B6893426E
:1020F00010D00A6002684A6042688A608268CA60DA
:10210000C2680A6102694A6142698A618269CA6178
:10211000C069086200F006F801BD0000F3F2F1F0BA
:10212000E414002800B5FEE730B4434351435D1882
:10213000010C0C00130C5C432D1980B2434392B286
:1021400051430024C918644124040B04090C0919E3
:102150005043C018694130BC70470000094205D0A7
:10216000830705D00270401C491EF9D1704700005A
:102170001300103906D330B41400150010393CC0D8
:10218000FCD230BC490700D30CC000D504C0890084
:1021900002D30280801C002900D502707047000025
:1021A000F0B587B000F010FC0124E949086803226B
:1021B000904320430860E7480A6802400A60E64905
:1021C0000A6803239A4322430A600A6802400A60AD
:1021D000E2490A6803239A4322430A600A680240DC
:1021E0000A60DF490A6803239A4322430A600A68A7
:1021F00010400860EC4801680F22914321430160C0
:10220000EA480168072291430160E9480168072212
:10221000914304220A4302600168F0229143C022E4
:102220000A4302600168C02292000A43026001680A
:10223000C02212010A4302600168DE4A0A4080217E
:1022400049011143016080252D06E44801682943B6
:102250000160E348016821400029FAD0016849087B
:1022600021400029FAD0DF48016808220A430260B1
:10227000DD480068800820400028F9D0DB4EDC48AB
:10228000016831400160DB48016831408022520022
:102290000A430260D84801683140802252000A4354
:1022A0000260EB48016831400160EA48016807229A
:1022B000914302220A430260E74801684900490845
:1022C0000160E6480168890A890229220A430260FE
:1022D0000168E34A0A4002600168802252040A430E
:1022E00002600168E74A0A40026001682943016010
:1022F000E54A1068E549014080204000084310602D
:102300001068FF2188431E2101431160C02189020A
:102310001068E34B03400B4313601068E14B03402C
:102320008020800418431060DF4813680340136066
:1023300013682B431360DD4A13680727BB4302274A
:102340001F431760DA4A13681B0E1B06D94F1F4341
:1023500017601768E44B3B4080277F051F431760D9
:1023600013682B431360E14A13685B005B0813603A
:10237000DF4A1768C54B3B408027BF001F431760EB
:102380001368FF27BB4349271F4317601368C44FD7
:102390001F40394311601168C24B0B4080218904F2
:1023A00019431160116801401160116829431160DF
:1023B000DD490A6807239A43022313430B60DB4974
:1023C0000A68520052080A60D9490A68920A9202C1
:1023D000292313430B600A68A14B13400B600A6862
:1023E00080235B0413430B600A68A64B13400B6009
:1023F0000A682A430A608021C900D64A1368A34F9D
:102400001F400F4317601368FF27BB4385271F43F7
:1024100017601768A24B3B408027BF021F4317601D
:102420001768A04B3B408027BF041F431760136809
:102430000340136013682B431360C74A13680727D0
:10244000BB4302271F431760C44A13685B005B0845
:102450001360C34A13689B0A9B0229271F43176016
:1024600013687F4F1F401760136880277F041F4346
:1024700017601368834F1F40176013682B43136066
:10248000B84A1368814F1F40394311601168FF2318
:10249000994364230B4313601168814B0B408021E7
:1024A00089021943116011687E4B0B408021890419
:1024B00019431160116801401160116829431160CE
:1024C000A9490A6807239A43022313430B60A749CB
:1024D0000A68520052080A60A5490A68920A9202E4
:1024E000292313430B600A685D4B13400B600A6895
:1024F00080235B0413430B600A68624B13400B603C
:102500000A682A430A60D8490A68604B134080224F
:1025100092001A430A600A68FF239A433723134341
:102520000B600A685E4B1340802292021A430A60D5
:102530000A685C4B1340802292041A430A600A68BE
:1025400002400A600A682A430A60C8490AE000BFDC
:10255000C4132040FFFCFFFF0013204080132040E5
:10256000A01320400A6807239A43022313430B60F9
:10257000BF4A11687F23994328230B4313601168D6
:10258000424B0B4080218900194311601168444B74
:102590000B4080218902194311601168414B0B40A7
:1025A0001360B44908E000BF000024400015264035
:1025B00044152640FF8FFFFF13680B40136013681C
:1025C0000340136013682B431360AB4A136807275B
:1025D000BB4302271F431760A84A0FE01C15264083
:1025E000241526400000274010002740FF00FFFF71
:1025F00010102040081020400C10204013687F2746
:10260000BB4328271F4317601768204B3B40802798
:10261000BF001F4317601768214B3B408027FF0214
:102620001F43176013681F4F1F40176013680B404C
:10263000136013680340136013682B431360904AC0
:1026400013680727BB4302271F4317608D4A09E021
:102650002003204004122640041926400819264071
:10266000FFFFF8FF13687F27BB4332271F43176024
:102670001768064B3B408027BF001F431760176851
:10268000074B05E0FFFFFFEF00192640FFE0FFFFCB
:102690003B408027BF021F4317601368014F0BE0C8
:1026A000FFFFE0FFFFFFFFF9FFFFFFCF081226400B
:1026B00014192640355EBA001F4017601368194090
:1026C000116011680840106010682843106091483C
:1026D000006820400028FAD08F4800682040002879
:1026E000FAD08E4806E000BFFFFFFF8F1819264082
:1026F00010192640006820400028F2D08848006861
:1027000020400028FAD08748006820400028FAD0EE
:102710008548006820400028FAD08448006820409E
:102720000028FAD0824805E00C12264024192640E1
:1027300028192640006820400028F3D07D48016811
:1027400007229143016068467B491C22FEF7FCFC8E
:1027500000205AE020192640101226403419264045
:1027600038192640301926401412264044192640B4
:102770004819264071496A4603005BB204277B432F
:10278000CF580F239F43BC4607007FB202235F430D
:10279000D3195B781B071B0F67463B439C4607001A
:1027A0007FB204235F436346CB5103005BB204272F
:1027B0007B43CB583027BB43944607007FB20222AD
:1027C00057436246D25D170130223A401A43030054
:1027D0005BB204277B43CA50020052B204235A431F
:1027E0008B58802252001A4307007FB204235F43B4
:1027F000CA51020052B204235A438A582A430300A2
:102800005BB204277B43CA50401C010049B20E2929
:10281000B0D34B49086830400860F820C0430A68CC
:1028200002400A6047490A6816400E600A68104074
:10283000086000F0B6F8444801680D43056001687F
:102840002143016000F0A2F84048016803220A43D6
:10285000026047480068000920400028F9D000F0D5
:1028600013F807B0F0BD00BF4019264018122640EB
:1028700000162640FFFFFFF71C12264004162640D4
:10288000201226400816264038B586B068463049E2
:102890001822FEF759FC6846FFF748F9C0B2002835
:1028A0000AD018222B492C48FFF7BAFB2B482C4999
:1028B00008600020FFF714FC2A4C2000FFF7ABFB58
:1028C000C0B200280AD0182222492348FFF7A8FBEB
:1028D0002548234908600020FFF702FC234D2068AB
:1028E00028602868234940182349FEF7B8FD23498A
:1028F0000870234C286823494018FA218900FEF704
:10290000AEFD206020688021090248431E4908600E
:1029100007B030BD0C1926401C1926402C19264042
:102920003C1926404C1926404016264044162640A5
:102930004816264024122640E43A00104012264051
:102940000800204008042040081526400000B04040
:10295000503B00101C370010201500281502000005
:1029600038150028441500281702000048150028D3
:102970001000B0403F420F0040420F005A1500289F
:102980004C150028E70300005015002880B500F022
:1029900037F813490A68032313430B6000F034F837
:1029A00001BD80B500F02CF80D490A6803239A4355
:1029B000012313430B600A6803239A430223134342
:1029C0000B6000F021F801BD80B5FFF7EAFF054874
:1029D0000168490049080160FFF7D8FF01BD000008
:1029E00040C0264000C0264000000000000000005B
:1029F000801C800803D0401C801EFCD100BF7047A3
:102A0000EFF3108072B6704780F3108870470000B3
:102A1000F4B587B0BF4CC04A1568C04A1268069228
:102A2000BF4A1668BF4A12680592BF4A12680492EC
:102A3000BE4A12680392BE4A12680292BD4A1268E8
:102A40000192BD4A12680092BC4A1268002800D167
:102A50005DE10B00002B00D159E11968022905D175
:102A60002621595C002901D1002101E05968491E45
:102A700024241C5D002C01D0012400E00024B04F70
:102A80002F40240480256D022C403C43AD4D254051
:102A90000F24A5430C07240F2C43AB490C40802581
:102AA000AD04254305601C68069D29402506C02409
:102AB000A4042C400C4304642521595C002901D056
:102AC000012100E000214024A64389014024214047
:102AD0003143DC7E002C01D0012400E000249B4D1A
:102AE0000D40A1028024E400214029435C7E002C9B
:102AF00001D0012400E00024954D0D4021028024E6
:102B00006400214029439C7E002C01D0012400E078
:102B10000024904D294064028026B60034400C43C6
:102B2000996B491E8C4E26400C04F021090321406C
:102B300031431C69641E0726B1436607760F0E43B6
:102B40000124596921401027BE430901102739404B
:102B500031435E69760826402027B9437601202755
:102B60003E400E438664197B002901D0260000E018
:102B70000026059F76493940360280277F003E4077
:102B80000E43197E002901D0210000E000213540CC
:102B900049028026B600314029439E68761E1F25D3
:102BA0001F27B9432E400E43C02189004650D969E2
:102BB000049EFF27BE43C9B231431E6A674F0F40D0
:102BC0003604FF21090431403943C426B60081513F
:102BD0002721595C002901D0260000E00026039F30
:102BE0005B493940360280277F003E400E43196919
:102BF000491E0727BE434907490F31430E00596953
:102C000021401027BE4309011027394031435E6936
:102C1000760826402027B943760120273E400E4300
:102C20004664197B002901D0260000E00026029F9F
:102C300047493940360280277F003E400E4399685D
:102C4000491E1F27BE430D40354329001D68012D35
:102C500001D1260000E00026394D294036048027A6
:102C60007F023E400E43802189004650DE6B019971
:102C7000FF27B943F6B20E43C121890046502821EF
:102C8000595C002901D0260000E00026009F34494D
:102C9000394077068026B60437400F43D96A0129A8
:102CA00001D1260000E000262E4939403606802753
:102CB0007F043E400E43596B012900D00024079940
:102CC000354024048026760234402C431D6BFF26B9
:102CD000B443EDB2254305655C6CFF25AA43E4B21D
:102CE00014438122920084509A6C1F4C02511A6C3A
:102CF0001E4BC250002909D000204860086088603F
:102D0000C8600862C862086319484863002420004C
:102D100008B0F0BD0160AA00D03B0010D43B001009
:102D2000D83B0010DC3B0010E03B0010E43B0010FF
:102D3000E83B0010EC3B0010F03B0010F43B0010AF
:102D4000FFFFFEFFFF3FFFFFFFFFFFFCFFFBFFFF5B
:102D5000FFFEFFFFFFFDFFFFFFFFF0FFFFFF00FF94
:102D6000FFFFFFFDFFFFFFFE880F0000C80F000000
:102D7000EFCDAB0000B5010009B2002905D4012157
:102D8000C006C00E81409C48016000BDF0B5020045
:102D900012B2002A1CD40322984B040024B2A408C7
:102DA00004256C431C59FF250600164008277E4366
:102DB000B540AC438901C9B205002A4008256A43E1
:102DC0009140214300B2800804225043195022E070
:102DD0000F248B4A032305002DB22540083DAD0882
:102DE00004267543060036B23440083CA408042685
:102DF00074431659FF27BC4604001C4008277C4337
:102E00006746A740BE438901C9B203400820434337
:102E1000994031435151F0BD80B500F012F8794826
:102E200079490A6802400A6078490A6802400A60E3
:102E300077490A681040086000F09CF800F0B5F887
:102E400001BDFEB5684673490CC90CC00839083885
:102E5000002630000BE06A460300DBB2082463431F
:102E6000D2185268521C114000290FD1401C010099
:102E7000C9B200290BD107216A460300DBB208243E
:102E80006343D2580A40002AE5D0FEE7FEE7624CD1
:102E9000072021680140002900D0FEE75F4F396814
:102EA000491C0840002800D0FEE7350028E06846AD
:102EB0002900C9B2082251434018416868462A00D7
:102EC000D2B208235A43805800F04AF817E0300085
:102ED0000028ECD02168491E68462A00D2B2082397
:102EE0005A43805800F03CF868462900C9B20822CD
:102EF0005143401841683868401C00F031F86D1C9F
:102F00002800C0B200282AD168462900C9B2082288
:102F100051434058002816D0206869462A00D2B292
:102F200008235A43895888420BD368462900C9B2FE
:102F300008225143401840682168884201D301208B
:102F4000C6E73000C4E768462900C9B208225143E9
:102F50004018406821688842B9D30120B8E7F7BD1E
:102F600080B50022002302E00CC0083808308842F7
:102F7000FAD301BD70B52A4880082A492A4A00239D
:102F80000AE01C00E4B204256C4314591D00EDB2A4
:102F9000042675434C515B1C1C000500E4B2EDB2E5
:102FA000AC42EED32148016070BD38B51023112129
:102FB0001C4800221C00E4B204256C431459DBB207
:102FC00004256B43C4500B00DBB204246343D25886
:102FD000C9B204235943425001210020FFF7D6FE15
:102FE00000210120FFF7D2FE0020FFF7C3FE0120E1
:102FF000FFF7C0FE31BD000000E100E000E400E0AA
:103000001CED00E0FFFFF7FF00132040801320407D
:10301000A0132040A83B0010F0370010F437001038
:1030200080000000001600280000001008ED00E0FD
:10303000F8B505000C0017001A00069E21002800B4
:1030400000F031F83200D2B22100280000F006F87A
:103050003A002100280000F031F8F1BD70B5514B65
:10306000C018C009102358434F4BC31804290CD271
:103070001F251C68CE002800B0408443D2B2154002
:10308000C800854025431D600CE0091F1F255C68B2
:10309000CE002800B0408443D2B21540C80085401D
:1030A00025435D6070BD00B5002A03D101228A402E
:1030B000426002E001228A40826000BD30B4030019
:1030C0008C000F25596C2800A04081431540A54075
:1030D0000D435D6430BC70470168802212060A43CC
:1030E0000260704780B500F086F802BD1CB5C020B4
:1030F00080002E4A11680143116001211368FF24EA
:10310000A3430B4313602A4A1368DBB2A824A4012B
:103110001C4314601368F824A34360241C43146008
:10312000244A1368184310601068FF239843014332
:103130001160106880210906014311601E4C1720A0
:1031400000900023062201212000FFF771FF1720C5
:1031500000900023082200212000FFF769FF13BD23
:1031600010B5164C164A17492000FFF751FC2000F5
:10317000FFF7B2FF144800F053F810BD70B50C0013
:103180001600002508E021780C48FFF7ABFF002867
:10319000F9D06D1C641C761E002EF4D1280070BD81
:1031A000000000000000CFBF00003040202C044091
:1031B000043C044000200440800231400000604094
:1031C000AC14002884390010383B00109022920083
:1031D00081507047822189004058C005C00D70475A
:1031E00000B50068800B8007800F002801D1802087
:1031F00000E0402000BDF8B505000C0000262800C6
:10320000FFF7EEFF07002800FFF7E4FF874204D036
:1032100021002800FFF7DAFF01263000F2BD000090
:103220000EB4C0B5020003A801900020009001ABCD
:103230000121044878440C30FCF722FF029906B0C3
:10324000084700BF2509000070B5604BC018C009D1
:10325000102358435E4BC31804290CD21F251C6849
:10326000CE002800B0408443D2B21540C80085404B
:1032700025431D600CE0091F1F255C68CE00280057
:10328000B0408443D2B21540C800854025435D60FC
:1032900070BD00B5002A03D101228A40426002E0DD
:1032A00001228A40826000BD30B403008C000F25EB
:1032B000596C2800A04081431540A5400D435D6432
:1032C00030BC704730B4030001259C6C2800884056
:1032D000844315408D4025439D6430BC704730B415
:1032E00003000125DC6C28008840844315408D4094
:1032F0002543DD6430BC704730B403004C0010340B
:103300000325D96C2800A04081431540A5400D43FA
:10331000DD6430BC7047426901228A4042614069E5
:10332000704730B4030001259C692800884084431D
:1033300015408D4025439D6130BC704730B403007B
:103340004C000325196C2800A04081431540A5407E
:103350000D431D6430BC7047F8B504000025002CF7
:1033600030D01600002E2DD00F003268390020001A
:10337000FFF78FFF327A39002000FFF765FF72698F
:1033800039002000FFF79EFFB26939002000FFF7E7
:10339000A6FFF26939002000FFF7AEFF726839001E
:1033A0002000FFF781FFF26839002000FFF7C6FF19
:1033B00039002000FFF7AFFF326939002000FFF726
:1033C000B0FF00E0034D2800F2BD00000000CFBFB9
:1033D0000000304001005A0000B5010009B2002988
:1033E00005D40121C006C00E81404D48016000BDDA
:1033F00080B54C4800684C480068C10F002906D0D1
:103400004A498005800D0422504308588047002017
:10341000FFF7E2FF01BD80B54548006845480068F8
:10342000C10F002906D041498005800D0422504378
:10343000085880470120FFF7CFFF01BD80B53E4807
:1034400000683E480068C10F002906D03749800552
:10345000800D04225043085880470220FFF7BCFF2C
:1034600001BD80B53648006836480068C10F0029A4
:1034700006D02E498005800D04225043085880470D
:103480000320FFF7A9FF01BD80B52F4800682F4832
:103490000068C10F002906D024498005800D042250
:1034A0005043085880470420FFF796FF01BD80B5C0
:1034B0002748006827480068C10F002906D01B492B
:1034C0008005800D04225043085880470520FFF7EF
:1034D00083FF01BD80B52048006820480068C10F07
:1034E000002906D011498005800D04225043085858
:1034F00080470620FFF770FF01BD80B518480068BF
:1035000018480068C10F002906D008498005800DC1
:1035100004225043085880470720FFF75DFF01BD94
:1035200080E200E0B03B00100011204000080028BD
:10353000B43B001004112040B83B0010081120409B
:10354000BC3B00100C112040C03B0010101120406B
:10355000C43B001014112040C83B0010181120403B
:10356000CC3B00101C11204070B504000D00304E03
:10357000307800280BD0182229492A48FEF750FD40
:10358000CF204000284908600020FEF7A9FD200058
:1035900029000122327080225204002399420AD36A
:1035A00001D8904207D3234A04000D0022A003C88B
:1035B0000019694102E00200002000211B4B002499
:1035C0001C601F4D2A60204A146005221A601A6888
:1035D000D203FCD51C600029DDD10028DBD134707A
:1035E00070BD38B50400174D286800280BD118228B
:1035F0000B490C48FEF714FDFF20CA300A49086049
:103600000020FEF76DFD28681049FDF728FF002116
:1036100022000023FEF788FDFFF7A6FF31BD000062
:1036200024390010201500283815002810E000E08B
:1036300059150028FFFFFF00010000FFFFFFFFFFFB
:1036400014E000E04415002818E000E040420F00BC
:1036500001228A40C260704770B5FEF7A1FD62B6D4
:10366000194C1A4A02212000FFF776FEFFF73EFDB3
:10367000FFF776FD1648FFF7D3FD00252800154E0D
:10368000356000F02BF83560022000F02CF8356032
:1036900000F02EF83560022000F02CF8356000F0C4
:1036A0002DF83560022000F02EF8356000F032F879
:1036B0003560022000F030F80748FFF792FF022142
:1036C0002000FFF7C5FFF7E780033140781400289A
:1036D000803B00103C15002850C3000006480168DC
:1036E000891C0160704704490A6810180860704717
:1036F000A52070470018704740150028044801684D
:10370000491C0160704702490A6810180860704738
:1037100040150028A520704700187047473A5C54B0
:10372000726176656F5C545649492D4332442D349D
:103730004D2D41325C53494C49434F4E5C53444CF0
:103740005C53444C5F312E32365F696E7465726E25
:10375000616C5C74766969633264346D5C73726346
:103760005C73797374656D5C7265765F615C7379A7
:103770007374656D5F74766969633264346D5F6319
:103780006D30706C75732E630000000072B61048C7
:1037900010490860BFF34F8F0120C0040E490A682A
:1037A00002430A600D490A6802430A600C490A682C
:1037B00002430A60002000210D4A03C26A45FCD181
:1037C000084FB847084FB847084FB847FEE7000012
:1037D0000000001008ED00E000132040801320409E
:1037E000A0132040192E0010493A00109D3B0010F4
:1037F00000FF0128FFFF0128686A6C747A4C000002
:103800007072696E74665F733A20256E2064697306
:10381000616C6C6F776564007072696E74663A20D3
:1038200062616420256E20617267756D656E74003B
:103830007072696E74665F733A20626164202573EA
:1038400020617267756D656E7400000000000000F5
:103850006E616E004E414E00696E6600494E460034
:1038600030000000473A5C54726176656F5C5456D4
:1038700049492D4332442D344D2D41325C53494C3E
:1038800049434F4E5C53444C5C53444C5F312E32A1
:10389000365F696E7465726E616C5C7476696963BB
:1038A0003264346D5C7372635C64726976657273E2
:1038B0005C737973636C6B5C63795F737973636C4E
:1038C0006B2E6800473A5C54726176656F5C5456A3
:1038D00049492D4332442D344D2D41325C53494CDE
:1038E00049434F4E5C53444C5C53444C5F312E3241
:1038F000365F696E7465726E616C5C74766969635B
:103900003264346D5C7372635C6472697665727381
:103910005C737973636C6B5C63795F737973636CED
:103920006B2E6300473A5C54726176656F5C545647
:1039300049492D4332442D344D2D41325C53494C7D
:1039400049434F4E5C53444C5C53444C5F312E32E0
:10395000365F696E7465726E616C5C636F6D6D6FFE
:103960006E5C7372635C647269766572735C7379A2
:10397000737469636B5C63795F7379737469636B88
:103980002E6300000000000010000000080000008E
:103990000000000002000000000000000000000025
:1039A0000000000000000000000000000000000017
:1039B0000000000000000000000000000B000000FC
:1039C00000000000000000000000000000000000F7
:1039D00070B40123002413E00168001D194202D0D5
:1039E0004D466D1E49190C60091D121F042AFAD29A
:1039F0000D00960701D50C80AD1C1A4000D02C702C
:103A00000268001D002AE7D170BC704730B501681C
:103A10004118446862088A188368E40704D54C4654
:103A20001B1901E0641C06D191420BD00C7864B2E2
:103A3000491C0D78491C1D705B1C002CF2D4641EBF
:103A4000F7D5F1E70C3030BD10B50749794418318E
:103A5000064C7C44163404E0081D0A68891888471F
:103A60000100A142F8D110BD0800000024000000B0
:103A700061FFFFFFB0000000AC1400280000000050
:103A80008DFFFFFF9E010000740000000008002869
:103A900000F00EF8002801D0FFF7D6FF00BF00BFEE
:103AA000002000BF00BFFFF7D7FD00F003F80000C3
:103AB0000020704780B500F001F801BD0746384688
:103AC000FDF786FEFBE780B56946087001220120FC
:103AD000FFF754FB012802D16846007802BD0020A0
:103AE000C04302BD000600010007010602060002F5
:103AF00000020002000300030004000500070009A3
:103B000004207146084202D0EFF3098001E0EFF390
:103B1000088000B500498847E7200010042071465E
:103B2000084201D0EFF30980EFF3088000B50149A6
:103B3000884700BD913B00100A0D446562756720FF
:103B4000554152542053746172740A0D00000000F4
:103B500000127A00000000000024F4000080000041
:103B6000008000000080000038B505000C00200037
:103B7000FFF7A9FFA04200D00025280032BD0000B9
:103B8000576F726B696E672121210A0D00000000DA
:103B90008169891E0978C9B20160704700BF00BF02
:103BA00000BF00BFFFF774FF00080028FFFF0128D7
:103BB0000000000000000000000000000000000005
:103BC00000000000000000000000000000000000F5
:103BD00000000000000000000000000000000000E5
:103BE00000000000000000000000000000000000D5
:103BF0000000000000000000FEE70000FEE70000FB
:103C0000FEE70000FEE70000FEE70000FEE7000020
:103C1000FEE70000FEE70000FEE70000FEE7000010
:103C2000FEE781FF81FF81FF81FF81FF81FF81FF2F
:103C300081FF81FF81FF81FF81FF81FF81FF81FF84
:103C400081FF81FF81FF81FF81FF81FF81FF81FF74
:0C3C500081FF81FFEFFFFC000006D100A7
:0400000510003B9D0F
:00000001FF
