:020000041000EA
:4000000000040000000000000000000001000000F000000000000000000000000000000010B500F00DF904001448016803220A430260200080F3108810BD10B500F000F9CD
:4000400004000E4801680322914301220A43026001680322914302220A430260200080F3108810BD80B5FFF7E8FF05480168490049080160FFF7D4FF01BD000040C0264015
:4000800000C026400000000000000000000000000000000000000000000000000000000000000000000000000000000000000000000000000000000000000000000000001A
:4000C0000000000000000000000000000000000000000000000000000000000000000000000000000000000000000000000000000000000000000000000000000000000000
:4001000000800028CB010010F8B505000C001700069E009A2100280000F03AF83200D2B22100280000F006F83A002100280000F03EF8F1BDF1B50098354BC018C3091020E7
:400140005843344C0419042910D20D001F262768BC46EF003000B840674687431000C0B20640E80086403E43266010E00800051F1F266768BC46EF003000B840674687438A
:400180001000C0B20640E80086403E436660F1BD00B5002A03D101238B40436002E001238B40836000BD01228A40C260704770B40B009D000F26446C3100A9408C43164068
:4001C000AE402643466470BC7047F8B50024032011490860FFF746FF104DAA27FF052F600F4E002000900123062202213000FFF78BFF0C4828600C4800F01AF802213000B8
:40020000FFF7D1FF200080B238432860641CF2E70000CFBF0000304000E100E00C002240800131400060065520BCBE0000000000801C800803D0401C801EFCD100BF7047A2
:40024000EFF3108072B6704780F31088704700000000000000000000000000000000000000000000000000000000000000000000000000000000000000000000000000006B
:40028000000000000000000000000000000000000000000000000000000000000000000000000000000000000000000000000000000000000000000000000000000000003E
:4002C00000000000000000000000000000000000000000000000000000000000000000000000000000000000000000000000000000000000000000000000000000000000FE
:4003000000000000000000000000000000000000000000000000000000000000000000000000000000000000000000000000000000000000000000000000000000000000BD
:40034000000000000000000000000000000000000000000000000000000000000000000000000000000000000000000000000000000000000000000000000000000000007D
:40038000000000000000000000000000000000000000000000000000000000000000000000000000000000000000000000000000000000000000000000000000000000003D
:4003C00000000000000000000000000000000000000000000000000000000000000000000000000000000000000000000000000000000000000000000000000000000000FD
:40040000082D060F96DDEA4324CDABB190E8BA2439EADCA83C53A1463B4EDD60AA7E40FF4A4E4EB9FB4526D538A8EA348A82A4C5B8E49EBA5EEC23B59555E7B74CDEBFC849
:40044000260D0BBAF421D2EE92E2B24B787C57AF3859B7587631834630289D5B454A442DF47F6B05CEE009C5C19B9903F7167B9D55790C4E396DE8637DA018F3815C526890
:4004800056514D9E91A99AF435115A23AFB31FDEAC60DF85342352F638CC041EA31AB7FB7D13D491B9A84877B150182C32F3F14E53B7BFE36976CA816F3EF030C831CACE2A
:4004C000E5D6FE0C0AEE57F4CC56912A6268F72068CC8D8FDD3C38C9FF62AA34D24FBD819C839091BCD53B54AA34F8DED7EA402D3C6C4BB5E9942E9F78952AC1ABB33C1D4B
:40050000785540351EB892DD5981B0B883332A6927B96C3C5CE0B3AE4357426D831221B2BD29F93A83FA4D69469949F021C7FEB91B8B0C1B5654F826E014FC542ACA0B7088
:40054000421CA9198814E494069118A8A753AD123AB768B0F4D44FC7B7FBBEFABB255572C27725B7961F1638E081903A8B21E6D8EF00848800DA791A7AE20DBED42019B541
:40058000000000000000000000000000000000000000000000000000000000000000000000000000000000000000000000000000000000000000000000000000000000003B
:4005C00000000000000000000000000000000000000000000000000000000000000000000000000000000000000000000000000000000000000000000000000000000000FB
:4006000000000000000000000000000000000000000000000000000000000000000000000000000000000000000000000000000000000000000000000000000000000000BA
:40064000000000000000000000000000000000000000000000000000000000000000000000000000000000000000000000000000000000000000000000000000000000007A
:40068000000000000000000000000000000000000000000000000000000000000000000000000000000000000000000000000000000000000000000000000000000000003A
:4006C00000000000000000000000000000000000000000000000000000000000000000000000000000000000000000000000000000000000000000000000000000000000FA
:4007000000000000000000000000000000000000000000000000000000000000000000000000000000000000000000000000000000000000000000000000000000000000B9
:400740000000000000000000000000000000000000000000000000000000000000000000000000000000000000000000000000000000000000000000000000000000000079
:400780000000000000000000000000000000000000000000000000000000000000000000000000000000000000000000000000000000000000000000000000000000000039
:4007C00000000000000000000000000000000000000000000000000000000000000000000000000000000000000000000000000000000000000000000000000000000000F9
:0200000490303A
:020000004D2D84
:0200000490501A
:0C000000000000000000000000014D2D79
:00000001FF