:020000041000EA
:4000000000040000000000000000000001000000F000000000000000000000000000000010B500F025FB04001448016803220A430260200080F3108810BD10B500F018FB99
:4000400004000E4801680322914301220A43026001680322914302220A430260200080F3108810BD80B5FFF7E8FF05480168490049080160FFF7D4FF01BD000040C0264015
:4000800000C026400000000000000000000000000000000000000000000000000000000000000000000000000000000000000000000000000000000000000000000000001A
:4000C0000000000000000000000000000000000000000000000000000000000000000000000000000000000000000000000000000000000000000000000000000000000000
:4001000000800028CB010010F8B505000C001700069E009A2100280000F03AF83200D2B22100280000F006F83A002100280000F03EF8F1BDF1B50098614BC018C3091020BB
:400140005843604C0419042910D20D001F262768BC46EF003000B840674687431000C0B20640E80086403E43266010E00800051F1F266768BC46EF003000B840674687435E
:400180001000C0B20640E80086403E436660F1BD00B5002A03D101238B40436002E001238B40836000BD01228A40C260704770B40B009D000F26446C3100A9408C43164068
:4001C000AE402643466470BC7047F8B5002403203D490860FFF746FF3C4DAA27FF052F603B4E002000900123062207213000FFF78BFF3848286000F00DF8374800F030FA1E
:4002000007213000FFF7CFFF200080B238432860641CF2E7F8B586B02C4C304820603048019030482060019800F048FA05002E482060002D01D0012D02D1F42000F045FA98
:40024000286805900599280000F02FFA0390FE20400028180068000C02902448206003980299884202D0F32000F02FFA8220400028180068083000901D4820600099280061
:4002800000F00AFA002802D1F22000F01EFA802676053768F019049016482060009B049A3900300000F0ECF9002804D112482060F12000F00AFAAA20C005206007B0F0BD34
:4002C0000000CFBF0000304000E100E00C002240800231400060065520BCBE00F0800066007C0017F1800066F2800066F3800066F4800066F5800066F68000660000000007
:4003000000000000000000000000000000000000000000000000000000000000000000000000000000000000000000000000000000000000000000000000000000000000BD
:40034000000000000000000000000000000000000000000000000000000000000000000000000000000000000000000000000000000000000000000000000000000000007D
:40038000000000000000000000000000000000000000000000000000000000000000000000000000000000000000000000000000000000000000000000000000000000003D
:4003C00000000000000000000000000000000000000000000000000000000000000000000000000000000000000000000000000000000000000000000000000000000000FD
:4004000015CCA4830B87740E7FCB1EC828D4311272D1F0D0E5AE920CF619B6D79EFAF8FA90584EBFB104F1126FB53EA8840857ABD5FE7AFCAC93AD74F794DD42CF5B51576D
:400440008F0203D7C53629A9BD71550D0725D49CBF2E2296F2A201960EB71E209FF585752D672B7F532520A80DEF09A2F5D5203E19977F42C0D5F0EC58AFFF20FBF15B110A
:4004800052154CA7A84404DE5FD4E976CF7FD238F2719CE747B9268A339637457E3771DF3C07C979E1219AEBF6E1FC32A0BA034B743A23611C64A48D8B0698405E183D068C
:4004C0008F66CA539C1BACBEFAF364680950740F57EF26EB6BEA4CA265FD8356D4ABA0A2C38F1A9012F732CCD976D35BDA56D41943B9C5FE816DC863B4289E832B5B026341
:4005000000000000000000000000000000000000000000000000000000000000000000000000000000000000000000000000000000000000000000000000000000000000BB
:40054000000000000000000000000000000000000000000000000000000000000000000000000000000000000000000000000000000000000000000000000000000000007B
:40058000000000000000000000000000000000000000000000000000000000000000000000000000000000000000000000000000000000000000000000000000000000003B
:4005C00000000000000000000000000000000000000000000000000000000000000000000000000000000000000000000000000000000000000000000000000000000000FB
:4006000000000000000000000000000000000000000000000000000000000000000000000000000000000000000000000000000000000000000000000000000000000000BA
:400640000000000000000000000000000000000000000000000000000000000000000000801C800803D0401C801EFCD100BF7047EFF3108072B6704780F310887047000033
:40068000F1B50F0016001D00124804682B00320039000098A047F2BD70B506000C000E48056821003000A84770BD70B506000C000A48056821003000A84770BD38B504000D
:4006C000074805682000A84732BD00B505490860FEE700004020001744200017482000174C20001700F0010800000000000000000000000000000000000000000000000003
:4007000000000000000000000000000000000000000000000000000000000000000000000000000000000000000000000000000000000000000000000000000000000000B9
:400740000000000000000000000000000000000000000000000000000000000000000000000000000000000000000000000000000000000000000000000000000000000079
:400780000000000000000000000000000000000000000000000000000000000000000000000000000000000000000000000000000000000000000000000000000000000039
:4007C00000000000000000000000000000000000000000000000000000000000000000000000000000000000000000000000000000000000000000000000000000000000F9
:0200000490303A
:0200000072701C
:0200000490501A
:0C00000000000000000000000001727011
:00000001FF