:020000041000EA
:4000000000040000000000000000000001000000F000000000000000000000000000000010B500F025FB04001448016803220A430260200080F3108810BD10B500F018FB99
:4000400004000E4801680322914301220A43026001680322914302220A430260200080F3108810BD80B5FFF7E8FF05480168490049080160FFF7D4FF01BD000040C0264015
:4000800000C026400000000000000000000000000000000000000000000000000000000000000000000000000000000000000000000000000000000000000000000000001A
:4000C0000000000000000000000000000000000000000000000000000000000000000000000000000000000000000000000000000000000000000000000000000000000000
:4001000000800008CB010010F8B505000C001700069E009A2100280000F03AF83200D2B22100280000F006F83A002100280000F03EF8F1BDF1B50098614BC018C3091020DB
:400140005843604C0419042910D20D001F262768BC46EF003000B840674687431000C0B20640E80086403E43266010E00800051F1F266768BC46EF003000B840674687435E
:400180001000C0B20640E80086403E436660F1BD00B5002A03D101238B40436002E001238B40836000BD01228A40C260704770B40B009D000F26446C3100A9408C43164068
:4001C000AE402643466470BC7047F8B5002403203D490860FFF746FF3C4DAA27FF052F603B4E002000900123062204213000FFF78BFF3848286000F00DF8374800F030FA21
:4002000004213000FFF7CFFF200080B238432860641CF2E7F8B586B02C4C304820603048019030482060019800F048FA05002E482060002D01D0012D02D1F42000F045FA9B
:40024000286805900599280000F02FFA0390FE20400028180068000C02902448206003980299884202D0F32000F02FFA8220400028180068083000901D4820600099280061
:4002800000F00AFA002802D1F22000F01EFA802676053768F019049016482060009B049A3900300000F0ECF9002804D112482060F12000F00AFAAA20C005206007B0F0BD34
:4002C0000000CFBF0000304000E100E00C002240800131400060065520BCBE00F0800066007C0017F1800066F2800066F3800066F4800066F5800066F68000660000000008
:4003000000000000000000000000000000000000000000000000000000000000000000000000000000000000000000000000000000000000000000000000000000000000BD
:40034000000000000000000000000000000000000000000000000000000000000000000000000000000000000000000000000000000000000000000000000000000000007D
:40038000000000000000000000000000000000000000000000000000000000000000000000000000000000000000000000000000000000000000000000000000000000003D
:4003C00000000000000000000000000000000000000000000000000000000000000000000000000000000000000000000000000000000000000000000000000000000000FD
:400400004D7EA497D84C8074CDC80687577EFBA14B25E4D904DEFEE913383DAD6C9930994A18C985B77A5E3F585A094341310ABB18C28D9231AFEE1FB1C8054D5FF14FFB14
:40044000951058BA3CE5F228E201A0622D9E4525BC9DB5632BD0D8F44EA818DA320B113CF73C3E11C8F9E90EAD4CDB5DFD9F24EF5C9E5AAAE1EC845437B7788795963D2E86
:40048000DCA84F34EC79F5C66649356B3B068269DAA7B3AC62DCAE59ED8FC16263B75D13C7A43AD6F07A64E79B78AEDC9991ECBEACAEE2FCBA12AD0E8C37F2993241F1D169
:4004C0007FB903DB4495BD453BE768A3FEF5D9C52A92BA9CE05BFDF3DE33BC9688E837651BB2515071D556BB72DA1B2CEE1C027B8FD93AE11A7E357CC4C71E5F37E4485734
:40050000AE8C523BC467FFEAD1C012B6E90CC6B50B6ECC6CB660AC5A70F5CEE1D9A907559FD8CD4190FD6945DF218BD0DBD658DA9294D6B79AC38A030D49EC44EC7FD87B79
:4005400081F1AFA0BE4AE0982069AB918FE6B7642E073DC340C64CAA9BE708E36F41D16DDADFA94610AB7969900908693CCDB29F79EC10F95B6DAF808DF91C78A1114276C7
:40058000000000000000000000000000000000000000000000000000000000000000000000000000000000000000000000000000000000000000000000000000000000003B
:4005C00000000000000000000000000000000000000000000000000000000000000000000000000000000000000000000000000000000000000000000000000000000000FB
:4006000000000000000000000000000000000000000000000000000000000000000000000000000000000000000000000000000000000000000000000000000000000000BA
:400640000000000000000000000000000000000000000000000000000000000000000000801C800803D0401C801EFCD100BF7047EFF3108072B6704780F310887047000033
:40068000F1B50F0016001D00124804682B00320039000098A047F2BD70B506000C000E48056821003000A84770BD70B506000C000A48056821003000A84770BD38B504000D
:4006C000074805682000A84732BD00B505490860FEE700004020001744200017482000174C20001700F0010800000000000000000000000000000000000000000000000003
:4007000000000000000000000000000000000000000000000000000000000000000000000000000000000000000000000000000000000000000000000000000000000000B9
:400740000000000000000000000000000000000000000000000000000000000000000000000000000000000000000000000000000000000000000000000000000000000079
:400780000000000000000000000000000000000000000000000000000000000000000000000000000000000000000000000000000000000000000000000000000000000039
:4007C00000000000000000000000000000000000000000000000000000000000000000000000000000000000000000000000000000000000000000000000000000000000F9
:0200000490303A
:02000000BD4CF5
:0200000490501A
:0C00000000000000000000000001BD4CEA
:00000001FF