:020000041000EA
:4000000000040000000000000000000001000000F000000000000000000000000000000010B500F025FB04001448016803220A430260200080F3108810BD10B500F018FB99
:4000400004000E4801680322914301220A43026001680322914302220A430260200080F3108810BD80B5FFF7E8FF05480168490049080160FFF7D4FF01BD000040C0264015
:4000800000C026400000000000000000000000000000000000000000000000000000000000000000000000000000000000000000000000000000000000000000000000001A
:4000C0000000000000000000000000000000000000000000000000000000000000000000000000000000000000000000000000000000000000000000000000000000000000
:4001000000800008CB010010F8B505000C001700069E009A2100280000F03AF83200D2B22100280000F006F83A002100280000F03EF8F1BDF1B50098614BC018C3091020DB
:400140005843604C0419042910D20D001F262768BC46EF003000B840674687431000C0B20640E80086403E43266010E00800051F1F266768BC46EF003000B840674687435E
:400180001000C0B20640E80086403E436660F1BD00B5002A03D101238B40436002E001238B40836000BD01228A40C260704770B40B009D000F26446C3100A9408C43164068
:4001C000AE402643466470BC7047F8B5002403203D490860FFF746FF3C4DAA27FF052F603B4E002000900123062204213000FFF78BFF3848286000F00DF8374800F030FA21
:4002000004213000FFF7CFFF200080B238432860641CF2E7F8B586B02C4C304820603048019030482060019800F048FA05002E482060002D01D0012D02D1F42000F045FA9B
:40024000286805900599280000F02FFA0390FE20400028180068000C02902448206003980299884202D0F32000F02FFA8220400028180068083000901D4820600099280061
:4002800000F00AFA002802D1F22000F01EFA802676053768F019049016482060009B049A3900300000F0ECF9002804D112482060F12000F00AFAAA20C005206007B0F0BD34
:4002C0000000CFBF0000304000E100E00C002240800131400060065520BCBE00F0800066007C0017F1800066F2800066F3800066F4800066F5800066F68000660000000008
:4003000000000000000000000000000000000000000000000000000000000000000000000000000000000000000000000000000000000000000000000000000000000000BD
:40034000000000000000000000000000000000000000000000000000000000000000000000000000000000000000000000000000000000000000000000000000000000007D
:40038000000000000000000000000000000000000000000000000000000000000000000000000000000000000000000000000000000000000000000000000000000000003D
:4003C00000000000000000000000000000000000000000000000000000000000000000000000000000000000000000000000000000000000000000000000000000000000FD
:40040000040F77E79EF6B2A09F78F74F5EA296E637C3F4566F9C93947DC2EA8E34A649750B1AD2D9FCC8F6E5CF9E2BC8855F9519BB4954F1336E9C329AC778423D46B29EC0
:400440001CF11A4AEC440A41EFFD6964C8AD587B06873EC87351796A5CFB5F58B8978F9A5F2394C83442074C551FB947F36A7DFD09B0270FC5D426CDCDAB055FC6F09DD063
:400480003FC07477EDDFB5D1B0B06F17E32C0B496428563B4E92AB4304B0FA37BE73BC5C5CEE6ED628ED45C704065D28832137CF77DF11329C80DC70FF0ADDD12CABB75B15
:4004C0001E344C330B8D5697B56FA641A79C03A8B727C803A730B0E0A47B86A1D2EF5EFC7C106B783697377C919C85B2DCBD6793B710ABFB11BC0B0563467C3A868483DE42
:400500004EBE4585B6D4A0F508671774E739D92E611196A1FBE50EE4240D10D662D26D18CB43BB06645C1CBA90F563B1D5246E5007E5B05F35C4E329AAA3B3C375E7B8AF1F
:400540006E8B04D9C59D221B033BB7096F2E05A2835D918393EE805E2654BC0695976E0B97DBDE940C1481D082F7EEA74557B2F9A0A1CC362715AFE9BCE05973E48142E6DA
:4005800056A9E7BC4365FDF9595EF9196AE7808AAB1CE772CE0A3C6DC2BED61A3571D6D29844763263C3E8AE8764470AB9902303BBD699332AE7580261246D4DD115DF16AB
:4005C0008B3C927E21FEE19B8AF16A18406CD7257894FDC75B4FC54BA1A4A6F9001C76667AFDC6A7A3ADABD25029CB00494F73989E1791752BE8C27D3459502B2A7D7E4C60
:4006000000000000000000000000000000000000000000000000000000000000000000000000000000000000000000000000000000000000000000000000000000000000BA
:400640000000000000000000000000000000000000000000000000000000000000000000801C800803D0401C801EFCD100BF7047EFF3108072B6704780F310887047000033
:40068000F1B50F0016001D00124804682B00320039000098A047F2BD70B506000C000E48056821003000A84770BD70B506000C000A48056821003000A84770BD38B504000D
:4006C000074805682000A84732BD00B505490860FEE700004020001744200017482000174C20001700F0010800000000000000000000000000000000000000000000000003
:4007000000000000000000000000000000000000000000000000000000000000000000000000000000000000000000000000000000000000000000000000000000000000B9
:400740000000000000000000000000000000000000000000000000000000000000000000000000000000000000000000000000000000000000000000000000000000000079
:400780000000000000000000000000000000000000000000000000000000000000000000000000000000000000000000000000000000000000000000000000000000000039
:4007C00000000000000000000000000000000000000000000000000000000000000000000000000000000000000000000000000000000000000000000000000000000000F9
:0200000490303A
:02000000F17B92
:0200000490501A
:0C00000000000000000000000001F17B87
:00000001FF