:020000041000EA
:4000000000040000000000000000000001000000F000000000000000000000000000000010B500F025FB04001448016803220A430260200080F3108810BD10B500F018FB99
:4000400004000E4801680322914301220A43026001680322914302220A430260200080F3108810BD80B5FFF7E8FF05480168490049080160FFF7D4FF01BD000040C0264015
:4000800000C026400000000000000000000000000000000000000000000000000000000000000000000000000000000000000000000000000000000000000000000000001A
:4000C0000000000000000000000000000000000000000000000000000000000000000000000000000000000000000000000000000000000000000000000000000000000000
:4001000000800008CB010010F8B505000C001700069E009A2100280000F03AF83200D2B22100280000F006F83A002100280000F03EF8F1BDF1B50098614BC018C3091020DB
:400140005843604C0419042910D20D001F262768BC46EF003000B840674687431000C0B20640E80086403E43266010E00800051F1F266768BC46EF003000B840674687435E
:400180001000C0B20640E80086403E436660F1BD00B5002A03D101238B40436002E001238B40836000BD01228A40C260704770B40B009D000F26446C3100A9408C43164068
:4001C000AE402643466470BC7047F8B5002403203D490860FFF746FF3C4DAA27FF052F603B4E002000900123062204213000FFF78BFF3848286000F00DF8374800F030FA21
:4002000004213000FFF7CFFF200080B238432860641CF2E7F8B586B02C4C304820603048019030482060019800F048FA05002E482060002D01D0012D02D1F42000F045FA9B
:40024000286805900599280000F02FFA0390FE20400028180068000C02902448206003980299884202D0F32000F02FFA8220400028180068083000901D4820600099280061
:4002800000F00AFA002802D1F22000F01EFA802676053768F019049016482060009B049A3900300000F0ECF9002804D112482060F12000F00AFAAA20C005206007B0F0BD34
:4002C0000000CFBF0000304000E100E00C002240800131400060065520BCBE00F0800066007C0017F1800066F2800066F3800066F4800066F5800066F68000660000000008
:4003000000000000000000000000000000000000000000000000000000000000000000000000000000000000000000000000000000000000000000000000000000000000BD
:40034000000000000000000000000000000000000000000000000000000000000000000000000000000000000000000000000000000000000000000000000000000000007D
:40038000000000000000000000000000000000000000000000000000000000000000000000000000000000000000000000000000000000000000000000000000000000003D
:4003C00000000000000000000000000000000000000000000000000000000000000000000000000000000000000000000000000000000000000000000000000000000000FD
:40040000040D598864BAAAC8921188443434DD24AAC40EC44B4160763FF9873BDA8C342AB9CEC463D3369D35BCCF3037AAED36CB10E2DDB49AF4168B19A8DD198324661267
:40044000AE654DE7ABD37B2BEB8DE4765315284EED263F9CD2F42F762C3F4CB8A5A0160F3A0F5E65E1968F4B7F434D5A0D20A5CA544650E58FA0D34B9F9CD04228C2C48036
:4004800061EE01555E89BFBF55BCA77FB7D2FB17631C03CA362492CACBE8DEF624BD0A397E59B6C43071A06F00C159B85904B22E4E1E706DD39911E37C4B7F4BDD3BD83544
:4004C000F12E3AFAB73BC4344B9B32052CF431E7E2A1900136604685E2978CEC6AE6FDBA50835F605D330202CCF96410E2DF28CE60E5D56E34CA9C4897428D10907F7D7308
:40050000B1F9A81370F751718A69D67E4A8047148F25DDF9EEBCBC985EDE4B399D6448C5E2606F55696408D0F9F39FBF40DDE7DC9233399D3A4AB2FEAAB163D29107D16C62
:40054000D644F537D3E1D8EF785F337A070560691C91A75BEA488239B397C7EBEC78846BF409A4DCC6A1087B09A646D07F787D16C52307E5ED68B4A99D22DCB4238A8BDED5
:40058000FB3B917B38DBE108A0197B62D790C40BA5B49EBD64E2AE4962A0243B0B0BD970D8714283C4BD3DBEF0962F3CCC6B09A7FA4DCC30746D9DEC9AE84269088CA5D03B
:4005C0008389372A6AB5A56A0C5EFB70C484B83F5EF5F139E06AFBC07623781CE1C10C8BBFE8264C46B55145AE16F21EF602F06604B9C813BA4C160164235FFD9547A25230
:4006000000000000000000000000000000000000000000000000000000000000000000000000000000000000000000000000000000000000000000000000000000000000BA
:400640000000000000000000000000000000000000000000000000000000000000000000801C800803D0401C801EFCD100BF7047EFF3108072B6704780F310887047000033
:40068000F1B50F0016001D00124804682B00320039000098A047F2BD70B506000C000E48056821003000A84770BD70B506000C000A48056821003000A84770BD38B504000D
:4006C000074805682000A84732BD00B505490860FEE700004020001744200017482000174C20001700F0010800000000000000000000000000000000000000000000000003
:4007000000000000000000000000000000000000000000000000000000000000000000000000000000000000000000000000000000000000000000000000000000000000B9
:400740000000000000000000000000000000000000000000000000000000000000000000000000000000000000000000000000000000000000000000000000000000000079
:400780000000000000000000000000000000000000000000000000000000000000000000000000000000000000000000000000000000000000000000000000000000000039
:4007C00000000000000000000000000000000000000000000000000000000000000000000000000000000000000000000000000000000000000000000000000000000000F9
:0200000490303A
:02000000F26E9E
:0200000490501A
:0C00000000000000000000000001F26E93
:00000001FF